{
	"subasta.sol": {
		"subasta": {
			"abi": [
				{
					"inputs": [],
					"stateMutability": "payable",
					"type": "constructor"
				},
				{
					"anonymous": false,
					"inputs": [
						{
							"indexed": false,
							"internalType": "address",
							"name": "remitente",
							"type": "address"
						},
						{
							"indexed": false,
							"internalType": "uint256",
							"name": "monto",
							"type": "uint256"
						}
					],
					"name": "EtherRecibido",
					"type": "event"
				},
				{
					"anonymous": false,
					"inputs": [
						{
							"indexed": false,
							"internalType": "address",
							"name": "remitente",
							"type": "address"
						},
						{
							"indexed": false,
							"internalType": "uint256",
							"name": "monto",
							"type": "uint256"
						}
					],
					"name": "ganador",
					"type": "event"
				},
				{
					"inputs": [],
					"name": "GetApostadores",
					"outputs": [
						{
							"components": [
								{
									"internalType": "address payable",
									"name": "direccion",
									"type": "address"
								},
								{
									"internalType": "uint256",
									"name": "apuesta",
									"type": "uint256"
								}
							],
							"internalType": "struct subasta.Person[]",
							"name": "",
							"type": "tuple[]"
						}
					],
					"stateMutability": "view",
					"type": "function"
				},
				{
					"inputs": [],
					"name": "GetMayorApostador",
					"outputs": [
						{
							"components": [
								{
									"internalType": "address payable",
									"name": "direccion",
									"type": "address"
								},
								{
									"internalType": "uint256",
									"name": "apuesta",
									"type": "uint256"
								}
							],
							"internalType": "struct subasta.Person",
							"name": "",
							"type": "tuple"
						}
					],
					"stateMutability": "view",
					"type": "function"
				},
				{
					"inputs": [
						{
							"internalType": "uint256",
							"name": "",
							"type": "uint256"
						}
					],
					"name": "listaApostadores",
					"outputs": [
						{
							"internalType": "address payable",
							"name": "direccion",
							"type": "address"
						},
						{
							"internalType": "uint256",
							"name": "apuesta",
							"type": "uint256"
						}
					],
					"stateMutability": "view",
					"type": "function"
				},
				{
					"inputs": [],
					"name": "mayorApostador",
					"outputs": [
						{
							"internalType": "address payable",
							"name": "direccion",
							"type": "address"
						},
						{
							"internalType": "uint256",
							"name": "apuesta",
							"type": "uint256"
						}
					],
					"stateMutability": "view",
					"type": "function"
				},
				{
					"inputs": [],
					"name": "transferEtherOwner",
					"outputs": [],
					"stateMutability": "nonpayable",
					"type": "function"
				},
				{
					"stateMutability": "payable",
					"type": "receive"
				}
			],
			"devdoc": {
				"kind": "dev",
				"methods": {},
				"version": 1
			},
			"evm": {
				"assembly": "    /* \"subasta.sol\":624:2917  contract subasta {... */\n  mstore(0x40, 0x80)\n    /* \"subasta.sol\":992:1002  msg.sender */\n  caller\n    /* \"subasta.sol\":986:991  owner */\n  0x00\n  dup1\n    /* \"subasta.sol\":986:1002  owner=msg.sender */\n  0x0100\n  exp\n  dup2\n  sload\n  dup2\n  0xffffffffffffffffffffffffffffffffffffffff\n  mul\n  not\n  and\n  swap1\n  dup4\n  0xffffffffffffffffffffffffffffffffffffffff\n  and\n  mul\n  or\n  swap1\n  sstore\n  pop\n    /* \"subasta.sol\":1047:1057  msg.sender */\n  caller\n    /* \"subasta.sol\":1013:1027  mayorApostador */\n  0x02\n    /* \"subasta.sol\":1013:1037  mayorApostador.direccion */\n  0x00\n  add\n  0x00\n    /* \"subasta.sol\":1013:1058  mayorApostador.direccion= payable(msg.sender) */\n  0x0100\n  exp\n  dup2\n  sload\n  dup2\n  0xffffffffffffffffffffffffffffffffffffffff\n  mul\n  not\n  and\n  swap1\n  dup4\n  0xffffffffffffffffffffffffffffffffffffffff\n  and\n  mul\n  or\n  swap1\n  sstore\n  pop\n    /* \"subasta.sol\":1093:1102  msg.value */\n  callvalue\n    /* \"subasta.sol\":1069:1083  mayorApostador */\n  0x02\n    /* \"subasta.sol\":1069:1091  mayorApostador.apuesta */\n  0x01\n  add\n    /* \"subasta.sol\":1069:1102  mayorApostador.apuesta= msg.value */\n  dup2\n  swap1\n  sstore\n  pop\n    /* \"subasta.sol\":624:2917  contract subasta {... */\n  dataSize(sub_0)\n  dup1\n  dataOffset(sub_0)\n  0x00\n  codecopy\n  0x00\n  return\nstop\n\nsub_0: assembly {\n        /* \"subasta.sol\":624:2917  contract subasta {... */\n      mstore(0x40, 0x80)\n      jumpi(tag_1, lt(calldatasize, 0x04))\n      shr(0xe0, calldataload(0x00))\n      dup1\n      0x30426583\n      eq\n      tag_3\n      jumpi\n      dup1\n      0x88aa112b\n      eq\n      tag_4\n      jumpi\n      dup1\n      0xb9ed4264\n      eq\n      tag_5\n      jumpi\n      dup1\n      0xbbfb7ce0\n      eq\n      tag_6\n      jumpi\n      dup1\n      0xd6df17fa\n      eq\n      tag_7\n      jumpi\n      jump(tag_2)\n    tag_1:\n      jumpi(tag_2, calldatasize)\n        /* \"subasta.sol\":1629:1638  msg.value */\n      callvalue\n        /* \"subasta.sol\":1606:1620  mayorApostador */\n      0x02\n        /* \"subasta.sol\":1606:1628  mayorApostador.apuesta */\n      0x01\n      add\n      sload\n        /* \"subasta.sol\":1606:1638  mayorApostador.apuesta<msg.value */\n      lt\n        /* \"subasta.sol\":1603:1758  if(mayorApostador.apuesta<msg.value){... */\n      iszero\n      tag_10\n      jumpi\n        /* \"subasta.sol\":1687:1697  msg.sender */\n      caller\n        /* \"subasta.sol\":1654:1668  mayorApostador */\n      0x02\n        /* \"subasta.sol\":1654:1678  mayorApostador.direccion */\n      0x00\n      add\n      0x00\n        /* \"subasta.sol\":1654:1698  mayorApostador.direccion=payable(msg.sender) */\n      0x0100\n      exp\n      dup2\n      sload\n      dup2\n      0xffffffffffffffffffffffffffffffffffffffff\n      mul\n      not\n      and\n      swap1\n      dup4\n      0xffffffffffffffffffffffffffffffffffffffff\n      and\n      mul\n      or\n      swap1\n      sstore\n      pop\n        /* \"subasta.sol\":1737:1746  msg.value */\n      callvalue\n        /* \"subasta.sol\":1713:1727  mayorApostador */\n      0x02\n        /* \"subasta.sol\":1713:1735  mayorApostador.apuesta */\n      0x01\n      add\n        /* \"subasta.sol\":1713:1746  mayorApostador.apuesta= msg.value */\n      dup2\n      swap1\n      sstore\n      pop\n        /* \"subasta.sol\":1603:1758  if(mayorApostador.apuesta<msg.value){... */\n    tag_10:\n        /* \"subasta.sol\":1789:1793  1000 */\n      0x03e8\n        /* \"subasta.sol\":1776:1785  msg.value */\n      callvalue\n        /* \"subasta.sol\":1776:1793  msg.value >= 1000 */\n      lt\n      iszero\n        /* \"subasta.sol\":1768:1833  require(msg.value >= 1000, \"El monto debe ser al menos 1000 wei\") */\n      tag_11\n      jumpi\n      mload(0x40)\n      0x08c379a000000000000000000000000000000000000000000000000000000000\n      dup2\n      mstore\n      0x04\n      add\n      tag_12\n      swap1\n      tag_13\n      jump\t// in\n    tag_12:\n      mload(0x40)\n      dup1\n      swap2\n      sub\n      swap1\n      revert\n    tag_11:\n        /* \"subasta.sol\":1872:1873  0 */\n      0x00\n        /* \"subasta.sol\":1865:1868  100 */\n      0x64\n        /* \"subasta.sol\":1853:1862  msg.value */\n      callvalue\n        /* \"subasta.sol\":1853:1868  msg.value % 100 */\n      tag_14\n      swap2\n      swap1\n      tag_15\n      jump\t// in\n    tag_14:\n        /* \"subasta.sol\":1853:1873  msg.value % 100 == 0 */\n      eq\n        /* \"subasta.sol\":1845:1915  require(msg.value % 100 == 0, \"El monto debe ser multiplo de 100 wei\") */\n      tag_16\n      jumpi\n      mload(0x40)\n      0x08c379a000000000000000000000000000000000000000000000000000000000\n      dup2\n      mstore\n      0x04\n      add\n      tag_17\n      swap1\n      tag_18\n      jump\t// in\n    tag_17:\n      mload(0x40)\n      dup1\n      swap2\n      sub\n      swap1\n      revert\n    tag_16:\n        /* \"subasta.sol\":1932:1968  EtherRecibido(msg.sender, msg.value) */\n      0xa5267797272234e2df28df9adfabfb57e08a7ff7bf3b41cac21f737d65b2748e\n        /* \"subasta.sol\":1946:1956  msg.sender */\n      caller\n        /* \"subasta.sol\":1958:1967  msg.value */\n      callvalue\n        /* \"subasta.sol\":1932:1968  EtherRecibido(msg.sender, msg.value) */\n      mload(0x40)\n      tag_19\n      swap3\n      swap2\n      swap1\n      tag_20\n      jump\t// in\n    tag_19:\n      mload(0x40)\n      dup1\n      swap2\n      sub\n      swap1\n      log1\n        /* \"subasta.sol\":624:2917  contract subasta {... */\n      stop\n    tag_2:\n      0x00\n      dup1\n      revert\n        /* \"subasta.sol\":2343:2461  function GetApostadores() external view returns (Person[] memory) {... */\n    tag_3:\n      callvalue\n      dup1\n      iszero\n      tag_21\n      jumpi\n      0x00\n      dup1\n      revert\n    tag_21:\n      pop\n      tag_22\n      tag_23\n      jump\t// in\n    tag_22:\n      mload(0x40)\n      tag_24\n      swap2\n      swap1\n      tag_25\n      jump\t// in\n    tag_24:\n      mload(0x40)\n      dup1\n      swap2\n      sub\n      swap1\n      return\n        /* \"subasta.sol\":1218:1557  function transferEtherOwner() external onlyOwner {... */\n    tag_4:\n      callvalue\n      dup1\n      iszero\n      tag_26\n      jumpi\n      0x00\n      dup1\n      revert\n    tag_26:\n      pop\n      tag_27\n      tag_28\n      jump\t// in\n    tag_27:\n      stop\n        /* \"subasta.sol\":1985:2332  function GetMayorApostador() external view returns (Person memory) {... */\n    tag_5:\n      callvalue\n      dup1\n      iszero\n      tag_29\n      jumpi\n      0x00\n      dup1\n      revert\n    tag_29:\n      pop\n      tag_30\n      tag_31\n      jump\t// in\n    tag_30:\n      mload(0x40)\n      tag_32\n      swap2\n      swap1\n      tag_33\n      jump\t// in\n    tag_32:\n      mload(0x40)\n      dup1\n      swap2\n      sub\n      swap1\n      return\n        /* \"subasta.sol\":918:946  Person public mayorApostador */\n    tag_6:\n      callvalue\n      dup1\n      iszero\n      tag_34\n      jumpi\n      0x00\n      dup1\n      revert\n    tag_34:\n      pop\n      tag_35\n      tag_36\n      jump\t// in\n    tag_35:\n      mload(0x40)\n      tag_37\n      swap3\n      swap2\n      swap1\n      tag_38\n      jump\t// in\n    tag_37:\n      mload(0x40)\n      dup1\n      swap2\n      sub\n      swap1\n      return\n        /* \"subasta.sol\":879:911  Person[] public listaApostadores */\n    tag_7:\n      callvalue\n      dup1\n      iszero\n      tag_39\n      jumpi\n      0x00\n      dup1\n      revert\n    tag_39:\n      pop\n      tag_40\n      0x04\n      dup1\n      calldatasize\n      sub\n      dup2\n      add\n      swap1\n      tag_41\n      swap2\n      swap1\n      tag_42\n      jump\t// in\n    tag_41:\n      tag_43\n      jump\t// in\n    tag_40:\n      mload(0x40)\n      tag_44\n      swap3\n      swap2\n      swap1\n      tag_38\n      jump\t// in\n    tag_44:\n      mload(0x40)\n      dup1\n      swap2\n      sub\n      swap1\n      return\n        /* \"subasta.sol\":2343:2461  function GetApostadores() external view returns (Person[] memory) {... */\n    tag_23:\n        /* \"subasta.sol\":2392:2407  Person[] memory */\n      0x60\n        /* \"subasta.sol\":2437:2453  listaApostadores */\n      0x01\n        /* \"subasta.sol\":2430:2453  return listaApostadores */\n      dup1\n      sload\n      dup1\n      0x20\n      mul\n      0x20\n      add\n      mload(0x40)\n      swap1\n      dup2\n      add\n      0x40\n      mstore\n      dup1\n      swap3\n      swap2\n      swap1\n      dup2\n      dup2\n      mstore\n      0x20\n      add\n      0x00\n      swap1\n    tag_46:\n      dup3\n      dup3\n      lt\n      iszero\n      tag_47\n      jumpi\n      dup4\n      dup3\n      swap1\n      0x00\n      mstore\n      keccak256(0x00, 0x20)\n      swap1\n      0x02\n      mul\n      add\n      mload(0x40)\n      dup1\n      0x40\n      add\n      0x40\n      mstore\n      swap1\n      dup2\n      0x00\n      dup3\n      add\n      0x00\n      swap1\n      sload\n      swap1\n      0x0100\n      exp\n      swap1\n      div\n      0xffffffffffffffffffffffffffffffffffffffff\n      and\n      0xffffffffffffffffffffffffffffffffffffffff\n      and\n      0xffffffffffffffffffffffffffffffffffffffff\n      and\n      dup2\n      mstore\n      0x20\n      add\n      0x01\n      dup3\n      add\n      sload\n      dup2\n      mstore\n      pop\n      pop\n      dup2\n      mstore\n      0x20\n      add\n      swap1\n      0x01\n      add\n      swap1\n      jump(tag_46)\n    tag_47:\n      pop\n      pop\n      pop\n      pop\n      swap1\n      pop\n        /* \"subasta.sol\":2343:2461  function GetApostadores() external view returns (Person[] memory) {... */\n      swap1\n      jump\t// out\n        /* \"subasta.sol\":1218:1557  function transferEtherOwner() external onlyOwner {... */\n    tag_28:\n        /* \"subasta.sol\":1162:1172  msg.sender */\n      caller\n        /* \"subasta.sol\":1155:1172  owner==msg.sender */\n      0xffffffffffffffffffffffffffffffffffffffff\n      and\n        /* \"subasta.sol\":1155:1160  owner */\n      0x00\n      dup1\n      sload\n      swap1\n      0x0100\n      exp\n      swap1\n      div\n      0xffffffffffffffffffffffffffffffffffffffff\n      and\n        /* \"subasta.sol\":1155:1172  owner==msg.sender */\n      0xffffffffffffffffffffffffffffffffffffffff\n      and\n      eq\n        /* \"subasta.sol\":1147:1192  require(owner==msg.sender,\"no eres el owner\") */\n      tag_50\n      jumpi\n      mload(0x40)\n      0x08c379a000000000000000000000000000000000000000000000000000000000\n      dup2\n      mstore\n      0x04\n      add\n      tag_51\n      swap1\n      tag_52\n      jump\t// in\n    tag_51:\n      mload(0x40)\n      dup1\n      swap2\n      sub\n      swap1\n      revert\n    tag_50:\n        /* \"subasta.sol\":1278:1297  address payable _to */\n      0x00\n        /* \"subasta.sol\":1323:1333  msg.sender */\n      caller\n        /* \"subasta.sol\":1308:1334  _to = payable (msg.sender) */\n      swap1\n      pop\n        /* \"subasta.sol\":1385:1390  false */\n      0x00\n        /* \"subasta.sol\":1349:1390  _to.send(mayorApostador.apuesta) == false */\n      iszero\n      iszero\n        /* \"subasta.sol\":1349:1352  _to */\n      dup2\n        /* \"subasta.sol\":1349:1357  _to.send */\n      0xffffffffffffffffffffffffffffffffffffffff\n      and\n        /* \"subasta.sol\":1349:1381  _to.send(mayorApostador.apuesta) */\n      0x08fc\n        /* \"subasta.sol\":1358:1372  mayorApostador */\n      0x02\n        /* \"subasta.sol\":1358:1380  mayorApostador.apuesta */\n      0x01\n      add\n      sload\n        /* \"subasta.sol\":1349:1381  _to.send(mayorApostador.apuesta) */\n      swap1\n      dup2\n      iszero\n      mul\n      swap1\n      mload(0x40)\n      0x00\n      mload(0x40)\n      dup1\n      dup4\n      sub\n      dup2\n      dup6\n      dup9\n      dup9\n      call\n      swap4\n      pop\n      pop\n      pop\n      pop\n        /* \"subasta.sol\":1349:1390  _to.send(mayorApostador.apuesta) == false */\n      iszero\n      iszero\n      sub\n        /* \"subasta.sol\":1345:1443  if( _to.send(mayorApostador.apuesta) == false ){... */\n      tag_55\n      jumpi\n        /* \"subasta.sol\":1407:1431  revert(\"fallo el envio\") */\n      mload(0x40)\n      0x08c379a000000000000000000000000000000000000000000000000000000000\n      dup2\n      mstore\n      0x04\n      add\n      tag_56\n      swap1\n      tag_57\n      jump\t// in\n    tag_56:\n      mload(0x40)\n      dup1\n      swap2\n      sub\n      swap1\n      revert\n        /* \"subasta.sol\":1345:1443  if( _to.send(mayorApostador.apuesta) == false ){... */\n    tag_55:\n        /* \"subasta.sol\":1454:1472  devolverApuestas() */\n      tag_58\n        /* \"subasta.sol\":1454:1470  devolverApuestas */\n      tag_59\n        /* \"subasta.sol\":1454:1472  devolverApuestas() */\n      jump\t// in\n    tag_58:\n        /* \"subasta.sol\":1490:1549  ganador(mayorApostador.direccion,   mayorApostador.apuesta) */\n      0x9f5df00419f6dd570a7220a38756403e4c9c7222d0bc24968c0071123f765112\n        /* \"subasta.sol\":1498:1512  mayorApostador */\n      0x02\n        /* \"subasta.sol\":1498:1522  mayorApostador.direccion */\n      0x00\n      add\n      0x00\n      swap1\n      sload\n      swap1\n      0x0100\n      exp\n      swap1\n      div\n      0xffffffffffffffffffffffffffffffffffffffff\n      and\n        /* \"subasta.sol\":1526:1540  mayorApostador */\n      0x02\n        /* \"subasta.sol\":1526:1548  mayorApostador.apuesta */\n      0x01\n      add\n      sload\n        /* \"subasta.sol\":1490:1549  ganador(mayorApostador.direccion,   mayorApostador.apuesta) */\n      mload(0x40)\n      tag_60\n      swap3\n      swap2\n      swap1\n      tag_61\n      jump\t// in\n    tag_60:\n      mload(0x40)\n      dup1\n      swap2\n      sub\n      swap1\n      log1\n        /* \"subasta.sol\":1267:1557  {... */\n      pop\n        /* \"subasta.sol\":1218:1557  function transferEtherOwner() external onlyOwner {... */\n      jump\t// out\n        /* \"subasta.sol\":1985:2332  function GetMayorApostador() external view returns (Person memory) {... */\n    tag_31:\n        /* \"subasta.sol\":2037:2050  Person memory */\n      tag_62\n      tag_63\n      jump\t// in\n    tag_62:\n        /* \"subasta.sol\":2073:2094  Person memory persona */\n      tag_65\n      tag_63\n      jump\t// in\n    tag_65:\n        /* \"subasta.sol\":2110:2116  uint i */\n      0x00\n        /* \"subasta.sol\":2105:2300  for (uint i = 0; i < listaApostadores.length; i++) ... */\n    tag_66:\n        /* \"subasta.sol\":2126:2142  listaApostadores */\n      0x01\n        /* \"subasta.sol\":2126:2149  listaApostadores.length */\n      dup1\n      sload\n      swap1\n      pop\n        /* \"subasta.sol\":2122:2123  i */\n      dup2\n        /* \"subasta.sol\":2122:2149  i < listaApostadores.length */\n      lt\n        /* \"subasta.sol\":2105:2300  for (uint i = 0; i < listaApostadores.length; i++) ... */\n      iszero\n      tag_67\n      jumpi\n        /* \"subasta.sol\":2200:2216  listaApostadores */\n      0x01\n        /* \"subasta.sol\":2217:2218  i */\n      dup2\n        /* \"subasta.sol\":2200:2219  listaApostadores[i] */\n      dup2\n      sload\n      dup2\n      lt\n      tag_69\n      jumpi\n      tag_70\n      tag_71\n      jump\t// in\n    tag_70:\n    tag_69:\n      swap1\n      0x00\n      mstore\n      keccak256(0x00, 0x20)\n      swap1\n      0x02\n      mul\n      add\n        /* \"subasta.sol\":2200:2227  listaApostadores[i].apuesta */\n      0x01\n      add\n      sload\n        /* \"subasta.sol\":2184:2191  persona */\n      dup3\n        /* \"subasta.sol\":2184:2199  persona.apuesta */\n      0x20\n      add\n      mload\n        /* \"subasta.sol\":2184:2227  persona.apuesta<listaApostadores[i].apuesta */\n      lt\n        /* \"subasta.sol\":2180:2289  if (persona.apuesta<listaApostadores[i].apuesta){... */\n      iszero\n      tag_73\n      jumpi\n        /* \"subasta.sol\":2255:2271  listaApostadores */\n      0x01\n        /* \"subasta.sol\":2272:2273  i */\n      dup2\n        /* \"subasta.sol\":2255:2274  listaApostadores[i] */\n      dup2\n      sload\n      dup2\n      lt\n      tag_74\n      jumpi\n      tag_75\n      tag_71\n      jump\t// in\n    tag_75:\n    tag_74:\n      swap1\n      0x00\n      mstore\n      keccak256(0x00, 0x20)\n      swap1\n      0x02\n      mul\n      add\n        /* \"subasta.sol\":2247:2274  persona=listaApostadores[i] */\n      mload(0x40)\n      dup1\n      0x40\n      add\n      0x40\n      mstore\n      swap1\n      dup2\n      0x00\n      dup3\n      add\n      0x00\n      swap1\n      sload\n      swap1\n      0x0100\n      exp\n      swap1\n      div\n      0xffffffffffffffffffffffffffffffffffffffff\n      and\n      0xffffffffffffffffffffffffffffffffffffffff\n      and\n      0xffffffffffffffffffffffffffffffffffffffff\n      and\n      dup2\n      mstore\n      0x20\n      add\n      0x01\n      dup3\n      add\n      sload\n      dup2\n      mstore\n      pop\n      pop\n      swap2\n      pop\n        /* \"subasta.sol\":2180:2289  if (persona.apuesta<listaApostadores[i].apuesta){... */\n    tag_73:\n        /* \"subasta.sol\":2151:2154  i++ */\n      dup1\n      dup1\n      0x01\n      add\n      swap2\n      pop\n      pop\n        /* \"subasta.sol\":2105:2300  for (uint i = 0; i < listaApostadores.length; i++) ... */\n      jump(tag_66)\n    tag_67:\n      pop\n        /* \"subasta.sol\":2317:2324  persona */\n      dup1\n        /* \"subasta.sol\":2310:2324  return persona */\n      swap2\n      pop\n      pop\n        /* \"subasta.sol\":1985:2332  function GetMayorApostador() external view returns (Person memory) {... */\n      swap1\n      jump\t// out\n        /* \"subasta.sol\":918:946  Person public mayorApostador */\n    tag_36:\n      0x02\n      dup1\n      0x00\n      add\n      0x00\n      swap1\n      sload\n      swap1\n      0x0100\n      exp\n      swap1\n      div\n      0xffffffffffffffffffffffffffffffffffffffff\n      and\n      swap1\n      dup1\n      0x01\n      add\n      sload\n      swap1\n      pop\n      dup3\n      jump\t// out\n        /* \"subasta.sol\":879:911  Person[] public listaApostadores */\n    tag_43:\n      0x01\n      dup2\n      dup2\n      sload\n      dup2\n      lt\n      tag_77\n      jumpi\n      0x00\n      dup1\n      revert\n    tag_77:\n      swap1\n      0x00\n      mstore\n      keccak256(0x00, 0x20)\n      swap1\n      0x02\n      mul\n      add\n      0x00\n      swap2\n      pop\n      swap1\n      pop\n      dup1\n      0x00\n      add\n      0x00\n      swap1\n      sload\n      swap1\n      0x0100\n      exp\n      swap1\n      div\n      0xffffffffffffffffffffffffffffffffffffffff\n      and\n      swap1\n      dup1\n      0x01\n      add\n      sload\n      swap1\n      pop\n      dup3\n      jump\t// out\n        /* \"subasta.sol\":2518:2906  function devolverApuestas() internal onlyOwner{... */\n    tag_59:\n        /* \"subasta.sol\":1162:1172  msg.sender */\n      caller\n        /* \"subasta.sol\":1155:1172  owner==msg.sender */\n      0xffffffffffffffffffffffffffffffffffffffff\n      and\n        /* \"subasta.sol\":1155:1160  owner */\n      0x00\n      dup1\n      sload\n      swap1\n      0x0100\n      exp\n      swap1\n      div\n      0xffffffffffffffffffffffffffffffffffffffff\n      and\n        /* \"subasta.sol\":1155:1172  owner==msg.sender */\n      0xffffffffffffffffffffffffffffffffffffffff\n      and\n      eq\n        /* \"subasta.sol\":1147:1192  require(owner==msg.sender,\"no eres el owner\") */\n      tag_80\n      jumpi\n      mload(0x40)\n      0x08c379a000000000000000000000000000000000000000000000000000000000\n      dup2\n      mstore\n      0x04\n      add\n      tag_81\n      swap1\n      tag_52\n      jump\t// in\n    tag_81:\n      mload(0x40)\n      dup1\n      swap2\n      sub\n      swap1\n      revert\n    tag_80:\n        /* \"subasta.sol\":2598:2604  uint i */\n      0x00\n        /* \"subasta.sol\":2593:2889  for (uint i = 0; i < listaApostadores.length; i++) ... */\n    tag_83:\n        /* \"subasta.sol\":2614:2630  listaApostadores */\n      0x01\n        /* \"subasta.sol\":2614:2637  listaApostadores.length */\n      dup1\n      sload\n      swap1\n      pop\n        /* \"subasta.sol\":2610:2611  i */\n      dup2\n        /* \"subasta.sol\":2610:2637  i < listaApostadores.length */\n      lt\n        /* \"subasta.sol\":2593:2889  for (uint i = 0; i < listaApostadores.length; i++) ... */\n      iszero\n      tag_84\n      jumpi\n        /* \"subasta.sol\":2701:2715  mayorApostador */\n      0x02\n        /* \"subasta.sol\":2701:2725  mayorApostador.direccion */\n      0x00\n      add\n      0x00\n      swap1\n      sload\n      swap1\n      0x0100\n      exp\n      swap1\n      div\n      0xffffffffffffffffffffffffffffffffffffffff\n      and\n        /* \"subasta.sol\":2669:2725  listaApostadores[i].direccion!= mayorApostador.direccion */\n      0xffffffffffffffffffffffffffffffffffffffff\n      and\n        /* \"subasta.sol\":2669:2685  listaApostadores */\n      0x01\n        /* \"subasta.sol\":2686:2687  i */\n      dup3\n        /* \"subasta.sol\":2669:2688  listaApostadores[i] */\n      dup2\n      sload\n      dup2\n      lt\n      tag_86\n      jumpi\n      tag_87\n      tag_71\n      jump\t// in\n    tag_87:\n    tag_86:\n      swap1\n      0x00\n      mstore\n      keccak256(0x00, 0x20)\n      swap1\n      0x02\n      mul\n      add\n        /* \"subasta.sol\":2669:2698  listaApostadores[i].direccion */\n      0x00\n      add\n      0x00\n      swap1\n      sload\n      swap1\n      0x0100\n      exp\n      swap1\n      div\n      0xffffffffffffffffffffffffffffffffffffffff\n      and\n        /* \"subasta.sol\":2669:2725  listaApostadores[i].direccion!= mayorApostador.direccion */\n      0xffffffffffffffffffffffffffffffffffffffff\n      and\n      eq\n        /* \"subasta.sol\":2666:2878  if(listaApostadores[i].direccion!= mayorApostador.direccion)... */\n      tag_89\n      jumpi\n        /* \"subasta.sol\":2820:2825  false */\n      0x00\n        /* \"subasta.sol\":2742:2825  listaApostadores[i].direccion.send( listaApostadores[i].apuesta* 98 / 100) == false */\n      iszero\n      iszero\n        /* \"subasta.sol\":2742:2758  listaApostadores */\n      0x01\n        /* \"subasta.sol\":2759:2760  i */\n      dup3\n        /* \"subasta.sol\":2742:2761  listaApostadores[i] */\n      dup2\n      sload\n      dup2\n      lt\n      tag_90\n      jumpi\n      tag_91\n      tag_71\n      jump\t// in\n    tag_91:\n    tag_90:\n      swap1\n      0x00\n      mstore\n      keccak256(0x00, 0x20)\n      swap1\n      0x02\n      mul\n      add\n        /* \"subasta.sol\":2742:2771  listaApostadores[i].direccion */\n      0x00\n      add\n      0x00\n      swap1\n      sload\n      swap1\n      0x0100\n      exp\n      swap1\n      div\n      0xffffffffffffffffffffffffffffffffffffffff\n      and\n        /* \"subasta.sol\":2742:2776  listaApostadores[i].direccion.send */\n      0xffffffffffffffffffffffffffffffffffffffff\n      and\n        /* \"subasta.sol\":2742:2816  listaApostadores[i].direccion.send( listaApostadores[i].apuesta* 98 / 100) */\n      0x08fc\n        /* \"subasta.sol\":2812:2815  100 */\n      0x64\n        /* \"subasta.sol\":2807:2809  98 */\n      0x62\n        /* \"subasta.sol\":2778:2794  listaApostadores */\n      0x01\n        /* \"subasta.sol\":2795:2796  i */\n      dup7\n        /* \"subasta.sol\":2778:2797  listaApostadores[i] */\n      dup2\n      sload\n      dup2\n      lt\n      tag_93\n      jumpi\n      tag_94\n      tag_71\n      jump\t// in\n    tag_94:\n    tag_93:\n      swap1\n      0x00\n      mstore\n      keccak256(0x00, 0x20)\n      swap1\n      0x02\n      mul\n      add\n        /* \"subasta.sol\":2778:2805  listaApostadores[i].apuesta */\n      0x01\n      add\n      sload\n        /* \"subasta.sol\":2778:2809  listaApostadores[i].apuesta* 98 */\n      tag_96\n      swap2\n      swap1\n      tag_97\n      jump\t// in\n    tag_96:\n        /* \"subasta.sol\":2778:2815  listaApostadores[i].apuesta* 98 / 100 */\n      tag_98\n      swap2\n      swap1\n      tag_99\n      jump\t// in\n    tag_98:\n        /* \"subasta.sol\":2742:2816  listaApostadores[i].direccion.send( listaApostadores[i].apuesta* 98 / 100) */\n      swap1\n      dup2\n      iszero\n      mul\n      swap1\n      mload(0x40)\n      0x00\n      mload(0x40)\n      dup1\n      dup4\n      sub\n      dup2\n      dup6\n      dup9\n      dup9\n      call\n      swap4\n      pop\n      pop\n      pop\n      pop\n        /* \"subasta.sol\":2742:2825  listaApostadores[i].direccion.send( listaApostadores[i].apuesta* 98 / 100) == false */\n      iszero\n      iszero\n      sub\n        /* \"subasta.sol\":2737:2878  if(  listaApostadores[i].direccion.send( listaApostadores[i].apuesta* 98 / 100) == false ){... */\n      tag_101\n      jumpi\n        /* \"subasta.sol\":2842:2866  revert(\"fallo el envio\") */\n      mload(0x40)\n      0x08c379a000000000000000000000000000000000000000000000000000000000\n      dup2\n      mstore\n      0x04\n      add\n      tag_102\n      swap1\n      tag_57\n      jump\t// in\n    tag_102:\n      mload(0x40)\n      dup1\n      swap2\n      sub\n      swap1\n      revert\n        /* \"subasta.sol\":2737:2878  if(  listaApostadores[i].direccion.send( listaApostadores[i].apuesta* 98 / 100) == false ){... */\n    tag_101:\n        /* \"subasta.sol\":2666:2878  if(listaApostadores[i].direccion!= mayorApostador.direccion)... */\n    tag_89:\n        /* \"subasta.sol\":2639:2642  i++ */\n      dup1\n      dup1\n      0x01\n      add\n      swap2\n      pop\n      pop\n        /* \"subasta.sol\":2593:2889  for (uint i = 0; i < listaApostadores.length; i++) ... */\n      jump(tag_83)\n    tag_84:\n      pop\n        /* \"subasta.sol\":2518:2906  function devolverApuestas() internal onlyOwner{... */\n      jump\t// out\n    tag_63:\n      mload(0x40)\n      dup1\n      0x40\n      add\n      0x40\n      mstore\n      dup1\n      and(0xffffffffffffffffffffffffffffffffffffffff, 0x00)\n      dup2\n      mstore\n      0x20\n      add\n      0x00\n      dup2\n      mstore\n      pop\n      swap1\n      jump\t// out\n        /* \"#utility.yul\":7:176   */\n    tag_103:\n        /* \"#utility.yul\":91:102   */\n      0x00\n        /* \"#utility.yul\":125:131   */\n      dup3\n        /* \"#utility.yul\":120:123   */\n      dup3\n        /* \"#utility.yul\":113:132   */\n      mstore\n        /* \"#utility.yul\":165:169   */\n      0x20\n        /* \"#utility.yul\":160:163   */\n      dup3\n        /* \"#utility.yul\":156:170   */\n      add\n        /* \"#utility.yul\":141:170   */\n      swap1\n      pop\n        /* \"#utility.yul\":7:176   */\n      swap3\n      swap2\n      pop\n      pop\n      jump\t// out\n        /* \"#utility.yul\":182:404   */\n    tag_104:\n        /* \"#utility.yul\":322:356   */\n      0x456c206d6f6e746f20646562652073657220616c206d656e6f73203130303020\n        /* \"#utility.yul\":318:319   */\n      0x00\n        /* \"#utility.yul\":310:316   */\n      dup3\n        /* \"#utility.yul\":306:320   */\n      add\n        /* \"#utility.yul\":299:357   */\n      mstore\n        /* \"#utility.yul\":391:396   */\n      0x7765690000000000000000000000000000000000000000000000000000000000\n        /* \"#utility.yul\":386:388   */\n      0x20\n        /* \"#utility.yul\":378:384   */\n      dup3\n        /* \"#utility.yul\":374:389   */\n      add\n        /* \"#utility.yul\":367:397   */\n      mstore\n        /* \"#utility.yul\":182:404   */\n      pop\n      jump\t// out\n        /* \"#utility.yul\":410:776   */\n    tag_105:\n        /* \"#utility.yul\":552:555   */\n      0x00\n        /* \"#utility.yul\":573:640   */\n      tag_145\n        /* \"#utility.yul\":637:639   */\n      0x23\n        /* \"#utility.yul\":632:635   */\n      dup4\n        /* \"#utility.yul\":573:640   */\n      tag_103\n      jump\t// in\n    tag_145:\n        /* \"#utility.yul\":566:640   */\n      swap2\n      pop\n        /* \"#utility.yul\":649:742   */\n      tag_146\n        /* \"#utility.yul\":738:741   */\n      dup3\n        /* \"#utility.yul\":649:742   */\n      tag_104\n      jump\t// in\n    tag_146:\n        /* \"#utility.yul\":767:769   */\n      0x40\n        /* \"#utility.yul\":762:765   */\n      dup3\n        /* \"#utility.yul\":758:770   */\n      add\n        /* \"#utility.yul\":751:770   */\n      swap1\n      pop\n        /* \"#utility.yul\":410:776   */\n      swap2\n      swap1\n      pop\n      jump\t// out\n        /* \"#utility.yul\":782:1201   */\n    tag_13:\n        /* \"#utility.yul\":948:952   */\n      0x00\n        /* \"#utility.yul\":986:988   */\n      0x20\n        /* \"#utility.yul\":975:984   */\n      dup3\n        /* \"#utility.yul\":971:989   */\n      add\n        /* \"#utility.yul\":963:989   */\n      swap1\n      pop\n        /* \"#utility.yul\":1035:1044   */\n      dup2\n        /* \"#utility.yul\":1029:1033   */\n      dup2\n        /* \"#utility.yul\":1025:1045   */\n      sub\n        /* \"#utility.yul\":1021:1022   */\n      0x00\n        /* \"#utility.yul\":1010:1019   */\n      dup4\n        /* \"#utility.yul\":1006:1023   */\n      add\n        /* \"#utility.yul\":999:1046   */\n      mstore\n        /* \"#utility.yul\":1063:1194   */\n      tag_148\n        /* \"#utility.yul\":1189:1193   */\n      dup2\n        /* \"#utility.yul\":1063:1194   */\n      tag_105\n      jump\t// in\n    tag_148:\n        /* \"#utility.yul\":1055:1194   */\n      swap1\n      pop\n        /* \"#utility.yul\":782:1201   */\n      swap2\n      swap1\n      pop\n      jump\t// out\n        /* \"#utility.yul\":1207:1284   */\n    tag_106:\n        /* \"#utility.yul\":1244:1251   */\n      0x00\n        /* \"#utility.yul\":1273:1278   */\n      dup2\n        /* \"#utility.yul\":1262:1278   */\n      swap1\n      pop\n        /* \"#utility.yul\":1207:1284   */\n      swap2\n      swap1\n      pop\n      jump\t// out\n        /* \"#utility.yul\":1290:1470   */\n    tag_107:\n        /* \"#utility.yul\":1338:1415   */\n      0x4e487b7100000000000000000000000000000000000000000000000000000000\n        /* \"#utility.yul\":1335:1336   */\n      0x00\n        /* \"#utility.yul\":1328:1416   */\n      mstore\n        /* \"#utility.yul\":1435:1439   */\n      0x12\n        /* \"#utility.yul\":1432:1433   */\n      0x04\n        /* \"#utility.yul\":1425:1440   */\n      mstore\n        /* \"#utility.yul\":1459:1463   */\n      0x24\n        /* \"#utility.yul\":1456:1457   */\n      0x00\n        /* \"#utility.yul\":1449:1464   */\n      revert\n        /* \"#utility.yul\":1476:1652   */\n    tag_15:\n        /* \"#utility.yul\":1508:1509   */\n      0x00\n        /* \"#utility.yul\":1525:1545   */\n      tag_152\n        /* \"#utility.yul\":1543:1544   */\n      dup3\n        /* \"#utility.yul\":1525:1545   */\n      tag_106\n      jump\t// in\n    tag_152:\n        /* \"#utility.yul\":1520:1545   */\n      swap2\n      pop\n        /* \"#utility.yul\":1559:1579   */\n      tag_153\n        /* \"#utility.yul\":1577:1578   */\n      dup4\n        /* \"#utility.yul\":1559:1579   */\n      tag_106\n      jump\t// in\n    tag_153:\n        /* \"#utility.yul\":1554:1579   */\n      swap3\n      pop\n        /* \"#utility.yul\":1598:1599   */\n      dup3\n        /* \"#utility.yul\":1588:1623   */\n      tag_154\n      jumpi\n        /* \"#utility.yul\":1603:1621   */\n      tag_155\n      tag_107\n      jump\t// in\n    tag_155:\n        /* \"#utility.yul\":1588:1623   */\n    tag_154:\n        /* \"#utility.yul\":1644:1645   */\n      dup3\n        /* \"#utility.yul\":1641:1642   */\n      dup3\n        /* \"#utility.yul\":1637:1646   */\n      mod\n        /* \"#utility.yul\":1632:1646   */\n      swap1\n      pop\n        /* \"#utility.yul\":1476:1652   */\n      swap3\n      swap2\n      pop\n      pop\n      jump\t// out\n        /* \"#utility.yul\":1658:1882   */\n    tag_108:\n        /* \"#utility.yul\":1798:1832   */\n      0x456c206d6f6e746f206465626520736572206d756c7469706c6f206465203130\n        /* \"#utility.yul\":1794:1795   */\n      0x00\n        /* \"#utility.yul\":1786:1792   */\n      dup3\n        /* \"#utility.yul\":1782:1796   */\n      add\n        /* \"#utility.yul\":1775:1833   */\n      mstore\n        /* \"#utility.yul\":1867:1874   */\n      0x3020776569000000000000000000000000000000000000000000000000000000\n        /* \"#utility.yul\":1862:1864   */\n      0x20\n        /* \"#utility.yul\":1854:1860   */\n      dup3\n        /* \"#utility.yul\":1850:1865   */\n      add\n        /* \"#utility.yul\":1843:1875   */\n      mstore\n        /* \"#utility.yul\":1658:1882   */\n      pop\n      jump\t// out\n        /* \"#utility.yul\":1888:2254   */\n    tag_109:\n        /* \"#utility.yul\":2030:2033   */\n      0x00\n        /* \"#utility.yul\":2051:2118   */\n      tag_158\n        /* \"#utility.yul\":2115:2117   */\n      0x25\n        /* \"#utility.yul\":2110:2113   */\n      dup4\n        /* \"#utility.yul\":2051:2118   */\n      tag_103\n      jump\t// in\n    tag_158:\n        /* \"#utility.yul\":2044:2118   */\n      swap2\n      pop\n        /* \"#utility.yul\":2127:2220   */\n      tag_159\n        /* \"#utility.yul\":2216:2219   */\n      dup3\n        /* \"#utility.yul\":2127:2220   */\n      tag_108\n      jump\t// in\n    tag_159:\n        /* \"#utility.yul\":2245:2247   */\n      0x40\n        /* \"#utility.yul\":2240:2243   */\n      dup3\n        /* \"#utility.yul\":2236:2248   */\n      add\n        /* \"#utility.yul\":2229:2248   */\n      swap1\n      pop\n        /* \"#utility.yul\":1888:2254   */\n      swap2\n      swap1\n      pop\n      jump\t// out\n        /* \"#utility.yul\":2260:2679   */\n    tag_18:\n        /* \"#utility.yul\":2426:2430   */\n      0x00\n        /* \"#utility.yul\":2464:2466   */\n      0x20\n        /* \"#utility.yul\":2453:2462   */\n      dup3\n        /* \"#utility.yul\":2449:2467   */\n      add\n        /* \"#utility.yul\":2441:2467   */\n      swap1\n      pop\n        /* \"#utility.yul\":2513:2522   */\n      dup2\n        /* \"#utility.yul\":2507:2511   */\n      dup2\n        /* \"#utility.yul\":2503:2523   */\n      sub\n        /* \"#utility.yul\":2499:2500   */\n      0x00\n        /* \"#utility.yul\":2488:2497   */\n      dup4\n        /* \"#utility.yul\":2484:2501   */\n      add\n        /* \"#utility.yul\":2477:2524   */\n      mstore\n        /* \"#utility.yul\":2541:2672   */\n      tag_161\n        /* \"#utility.yul\":2667:2671   */\n      dup2\n        /* \"#utility.yul\":2541:2672   */\n      tag_109\n      jump\t// in\n    tag_161:\n        /* \"#utility.yul\":2533:2672   */\n      swap1\n      pop\n        /* \"#utility.yul\":2260:2679   */\n      swap2\n      swap1\n      pop\n      jump\t// out\n        /* \"#utility.yul\":2685:2811   */\n    tag_110:\n        /* \"#utility.yul\":2722:2729   */\n      0x00\n        /* \"#utility.yul\":2762:2804   */\n      0xffffffffffffffffffffffffffffffffffffffff\n        /* \"#utility.yul\":2755:2760   */\n      dup3\n        /* \"#utility.yul\":2751:2805   */\n      and\n        /* \"#utility.yul\":2740:2805   */\n      swap1\n      pop\n        /* \"#utility.yul\":2685:2811   */\n      swap2\n      swap1\n      pop\n      jump\t// out\n        /* \"#utility.yul\":2817:2913   */\n    tag_111:\n        /* \"#utility.yul\":2854:2861   */\n      0x00\n        /* \"#utility.yul\":2883:2907   */\n      tag_164\n        /* \"#utility.yul\":2901:2906   */\n      dup3\n        /* \"#utility.yul\":2883:2907   */\n      tag_110\n      jump\t// in\n    tag_164:\n        /* \"#utility.yul\":2872:2907   */\n      swap1\n      pop\n        /* \"#utility.yul\":2817:2913   */\n      swap2\n      swap1\n      pop\n      jump\t// out\n        /* \"#utility.yul\":2919:3037   */\n    tag_112:\n        /* \"#utility.yul\":3006:3030   */\n      tag_166\n        /* \"#utility.yul\":3024:3029   */\n      dup2\n        /* \"#utility.yul\":3006:3030   */\n      tag_111\n      jump\t// in\n    tag_166:\n        /* \"#utility.yul\":3001:3004   */\n      dup3\n        /* \"#utility.yul\":2994:3031   */\n      mstore\n        /* \"#utility.yul\":2919:3037   */\n      pop\n      pop\n      jump\t// out\n        /* \"#utility.yul\":3043:3161   */\n    tag_113:\n        /* \"#utility.yul\":3130:3154   */\n      tag_168\n        /* \"#utility.yul\":3148:3153   */\n      dup2\n        /* \"#utility.yul\":3130:3154   */\n      tag_106\n      jump\t// in\n    tag_168:\n        /* \"#utility.yul\":3125:3128   */\n      dup3\n        /* \"#utility.yul\":3118:3155   */\n      mstore\n        /* \"#utility.yul\":3043:3161   */\n      pop\n      pop\n      jump\t// out\n        /* \"#utility.yul\":3167:3499   */\n    tag_20:\n        /* \"#utility.yul\":3288:3292   */\n      0x00\n        /* \"#utility.yul\":3326:3328   */\n      0x40\n        /* \"#utility.yul\":3315:3324   */\n      dup3\n        /* \"#utility.yul\":3311:3329   */\n      add\n        /* \"#utility.yul\":3303:3329   */\n      swap1\n      pop\n        /* \"#utility.yul\":3339:3410   */\n      tag_170\n        /* \"#utility.yul\":3407:3408   */\n      0x00\n        /* \"#utility.yul\":3396:3405   */\n      dup4\n        /* \"#utility.yul\":3392:3409   */\n      add\n        /* \"#utility.yul\":3383:3389   */\n      dup6\n        /* \"#utility.yul\":3339:3410   */\n      tag_112\n      jump\t// in\n    tag_170:\n        /* \"#utility.yul\":3420:3492   */\n      tag_171\n        /* \"#utility.yul\":3488:3490   */\n      0x20\n        /* \"#utility.yul\":3477:3486   */\n      dup4\n        /* \"#utility.yul\":3473:3491   */\n      add\n        /* \"#utility.yul\":3464:3470   */\n      dup5\n        /* \"#utility.yul\":3420:3492   */\n      tag_113\n      jump\t// in\n    tag_171:\n        /* \"#utility.yul\":3167:3499   */\n      swap4\n      swap3\n      pop\n      pop\n      pop\n      jump\t// out\n        /* \"#utility.yul\":3505:3641   */\n    tag_114:\n        /* \"#utility.yul\":3594:3600   */\n      0x00\n        /* \"#utility.yul\":3628:3633   */\n      dup2\n        /* \"#utility.yul\":3622:3634   */\n      mload\n        /* \"#utility.yul\":3612:3634   */\n      swap1\n      pop\n        /* \"#utility.yul\":3505:3641   */\n      swap2\n      swap1\n      pop\n      jump\t// out\n        /* \"#utility.yul\":3647:3853   */\n    tag_115:\n        /* \"#utility.yul\":3768:3779   */\n      0x00\n        /* \"#utility.yul\":3802:3808   */\n      dup3\n        /* \"#utility.yul\":3797:3800   */\n      dup3\n        /* \"#utility.yul\":3790:3809   */\n      mstore\n        /* \"#utility.yul\":3842:3846   */\n      0x20\n        /* \"#utility.yul\":3837:3840   */\n      dup3\n        /* \"#utility.yul\":3833:3847   */\n      add\n        /* \"#utility.yul\":3818:3847   */\n      swap1\n      pop\n        /* \"#utility.yul\":3647:3853   */\n      swap3\n      swap2\n      pop\n      pop\n      jump\t// out\n        /* \"#utility.yul\":3859:4013   */\n    tag_116:\n        /* \"#utility.yul\":3948:3952   */\n      0x00\n        /* \"#utility.yul\":3971:3974   */\n      dup2\n        /* \"#utility.yul\":3963:3974   */\n      swap1\n      pop\n        /* \"#utility.yul\":4001:4005   */\n      0x20\n        /* \"#utility.yul\":3996:3999   */\n      dup3\n        /* \"#utility.yul\":3992:4006   */\n      add\n        /* \"#utility.yul\":3984:4006   */\n      swap1\n      pop\n        /* \"#utility.yul\":3859:4013   */\n      swap2\n      swap1\n      pop\n      jump\t// out\n        /* \"#utility.yul\":4019:4123   */\n    tag_117:\n        /* \"#utility.yul\":4064:4071   */\n      0x00\n        /* \"#utility.yul\":4093:4117   */\n      tag_176\n        /* \"#utility.yul\":4111:4116   */\n      dup3\n        /* \"#utility.yul\":4093:4117   */\n      tag_110\n      jump\t// in\n    tag_176:\n        /* \"#utility.yul\":4082:4117   */\n      swap1\n      pop\n        /* \"#utility.yul\":4019:4123   */\n      swap2\n      swap1\n      pop\n      jump\t// out\n        /* \"#utility.yul\":4129:4261   */\n    tag_118:\n        /* \"#utility.yul\":4222:4254   */\n      tag_178\n        /* \"#utility.yul\":4248:4253   */\n      dup2\n        /* \"#utility.yul\":4222:4254   */\n      tag_117\n      jump\t// in\n    tag_178:\n        /* \"#utility.yul\":4217:4220   */\n      dup3\n        /* \"#utility.yul\":4210:4255   */\n      mstore\n        /* \"#utility.yul\":4129:4261   */\n      pop\n      pop\n      jump\t// out\n        /* \"#utility.yul\":4267:4375   */\n    tag_119:\n        /* \"#utility.yul\":4344:4368   */\n      tag_180\n        /* \"#utility.yul\":4362:4367   */\n      dup2\n        /* \"#utility.yul\":4344:4368   */\n      tag_106\n      jump\t// in\n    tag_180:\n        /* \"#utility.yul\":4339:4342   */\n      dup3\n        /* \"#utility.yul\":4332:4369   */\n      mstore\n        /* \"#utility.yul\":4267:4375   */\n      pop\n      pop\n      jump\t// out\n        /* \"#utility.yul\":4435:4950   */\n    tag_120:\n        /* \"#utility.yul\":4566:4570   */\n      0x40\n        /* \"#utility.yul\":4561:4564   */\n      dup3\n        /* \"#utility.yul\":4557:4571   */\n      add\n        /* \"#utility.yul\":4658:4662   */\n      0x00\n        /* \"#utility.yul\":4651:4656   */\n      dup3\n        /* \"#utility.yul\":4647:4663   */\n      add\n        /* \"#utility.yul\":4641:4664   */\n      mload\n        /* \"#utility.yul\":4677:4756   */\n      tag_182\n        /* \"#utility.yul\":4750:4754   */\n      0x00\n        /* \"#utility.yul\":4745:4748   */\n      dup6\n        /* \"#utility.yul\":4741:4755   */\n      add\n        /* \"#utility.yul\":4727:4739   */\n      dup3\n        /* \"#utility.yul\":4677:4756   */\n      tag_118\n      jump\t// in\n    tag_182:\n        /* \"#utility.yul\":4581:4766   */\n      pop\n        /* \"#utility.yul\":4851:4855   */\n      0x20\n        /* \"#utility.yul\":4844:4849   */\n      dup3\n        /* \"#utility.yul\":4840:4856   */\n      add\n        /* \"#utility.yul\":4834:4857   */\n      mload\n        /* \"#utility.yul\":4870:4933   */\n      tag_183\n        /* \"#utility.yul\":4927:4931   */\n      0x20\n        /* \"#utility.yul\":4922:4925   */\n      dup6\n        /* \"#utility.yul\":4918:4932   */\n      add\n        /* \"#utility.yul\":4904:4916   */\n      dup3\n        /* \"#utility.yul\":4870:4933   */\n      tag_119\n      jump\t// in\n    tag_183:\n        /* \"#utility.yul\":4776:4943   */\n      pop\n        /* \"#utility.yul\":4535:4950   */\n      pop\n        /* \"#utility.yul\":4435:4950   */\n      pop\n      pop\n      jump\t// out\n        /* \"#utility.yul\":4956:5223   */\n    tag_121:\n        /* \"#utility.yul\":5069:5079   */\n      0x00\n        /* \"#utility.yul\":5090:5180   */\n      tag_185\n        /* \"#utility.yul\":5176:5179   */\n      dup4\n        /* \"#utility.yul\":5168:5174   */\n      dup4\n        /* \"#utility.yul\":5090:5180   */\n      tag_120\n      jump\t// in\n    tag_185:\n        /* \"#utility.yul\":5212:5216   */\n      0x40\n        /* \"#utility.yul\":5207:5210   */\n      dup4\n        /* \"#utility.yul\":5203:5217   */\n      add\n        /* \"#utility.yul\":5189:5217   */\n      swap1\n      pop\n        /* \"#utility.yul\":4956:5223   */\n      swap3\n      swap2\n      pop\n      pop\n      jump\t// out\n        /* \"#utility.yul\":5229:5364   */\n    tag_122:\n        /* \"#utility.yul\":5321:5325   */\n      0x00\n        /* \"#utility.yul\":5353:5357   */\n      0x20\n        /* \"#utility.yul\":5348:5351   */\n      dup3\n        /* \"#utility.yul\":5344:5358   */\n      add\n        /* \"#utility.yul\":5336:5358   */\n      swap1\n      pop\n        /* \"#utility.yul\":5229:5364   */\n      swap2\n      swap1\n      pop\n      jump\t// out\n        /* \"#utility.yul\":5428:6336   */\n    tag_123:\n        /* \"#utility.yul\":5591:5594   */\n      0x00\n        /* \"#utility.yul\":5620:5696   */\n      tag_188\n        /* \"#utility.yul\":5690:5695   */\n      dup3\n        /* \"#utility.yul\":5620:5696   */\n      tag_114\n      jump\t// in\n    tag_188:\n        /* \"#utility.yul\":5712:5820   */\n      tag_189\n        /* \"#utility.yul\":5813:5819   */\n      dup2\n        /* \"#utility.yul\":5808:5811   */\n      dup6\n        /* \"#utility.yul\":5712:5820   */\n      tag_115\n      jump\t// in\n    tag_189:\n        /* \"#utility.yul\":5705:5820   */\n      swap4\n      pop\n        /* \"#utility.yul\":5844:5922   */\n      tag_190\n        /* \"#utility.yul\":5916:5921   */\n      dup4\n        /* \"#utility.yul\":5844:5922   */\n      tag_116\n      jump\t// in\n    tag_190:\n        /* \"#utility.yul\":5945:5952   */\n      dup1\n        /* \"#utility.yul\":5976:5977   */\n      0x00\n        /* \"#utility.yul\":5961:6311   */\n    tag_191:\n        /* \"#utility.yul\":5986:5992   */\n      dup4\n        /* \"#utility.yul\":5983:5984   */\n      dup2\n        /* \"#utility.yul\":5980:5993   */\n      lt\n        /* \"#utility.yul\":5961:6311   */\n      iszero\n      tag_193\n      jumpi\n        /* \"#utility.yul\":6062:6068   */\n      dup2\n        /* \"#utility.yul\":6056:6069   */\n      mload\n        /* \"#utility.yul\":6089:6196   */\n      tag_194\n        /* \"#utility.yul\":6192:6195   */\n      dup9\n        /* \"#utility.yul\":6177:6190   */\n      dup3\n        /* \"#utility.yul\":6089:6196   */\n      tag_121\n      jump\t// in\n    tag_194:\n        /* \"#utility.yul\":6082:6196   */\n      swap8\n      pop\n        /* \"#utility.yul\":6219:6301   */\n      tag_195\n        /* \"#utility.yul\":6294:6300   */\n      dup4\n        /* \"#utility.yul\":6219:6301   */\n      tag_122\n      jump\t// in\n    tag_195:\n        /* \"#utility.yul\":6209:6301   */\n      swap3\n      pop\n        /* \"#utility.yul\":6021:6311   */\n      pop\n        /* \"#utility.yul\":6008:6009   */\n      0x01\n        /* \"#utility.yul\":6005:6006   */\n      dup2\n        /* \"#utility.yul\":6001:6010   */\n      add\n        /* \"#utility.yul\":5996:6010   */\n      swap1\n      pop\n        /* \"#utility.yul\":5961:6311   */\n      jump(tag_191)\n    tag_193:\n        /* \"#utility.yul\":5965:5979   */\n      pop\n        /* \"#utility.yul\":6327:6330   */\n      dup6\n        /* \"#utility.yul\":6320:6330   */\n      swap4\n      pop\n        /* \"#utility.yul\":5596:6336   */\n      pop\n      pop\n      pop\n        /* \"#utility.yul\":5428:6336   */\n      swap3\n      swap2\n      pop\n      pop\n      jump\t// out\n        /* \"#utility.yul\":6342:6803   */\n    tag_25:\n        /* \"#utility.yul\":6529:6533   */\n      0x00\n        /* \"#utility.yul\":6567:6569   */\n      0x20\n        /* \"#utility.yul\":6556:6565   */\n      dup3\n        /* \"#utility.yul\":6552:6570   */\n      add\n        /* \"#utility.yul\":6544:6570   */\n      swap1\n      pop\n        /* \"#utility.yul\":6616:6625   */\n      dup2\n        /* \"#utility.yul\":6610:6614   */\n      dup2\n        /* \"#utility.yul\":6606:6626   */\n      sub\n        /* \"#utility.yul\":6602:6603   */\n      0x00\n        /* \"#utility.yul\":6591:6600   */\n      dup4\n        /* \"#utility.yul\":6587:6604   */\n      add\n        /* \"#utility.yul\":6580:6627   */\n      mstore\n        /* \"#utility.yul\":6644:6796   */\n      tag_197\n        /* \"#utility.yul\":6791:6795   */\n      dup2\n        /* \"#utility.yul\":6782:6788   */\n      dup5\n        /* \"#utility.yul\":6644:6796   */\n      tag_123\n      jump\t// in\n    tag_197:\n        /* \"#utility.yul\":6636:6796   */\n      swap1\n      pop\n        /* \"#utility.yul\":6342:6803   */\n      swap3\n      swap2\n      pop\n      pop\n      jump\t// out\n        /* \"#utility.yul\":6863:7388   */\n    tag_124:\n        /* \"#utility.yul\":7004:7008   */\n      0x40\n        /* \"#utility.yul\":6999:7002   */\n      dup3\n        /* \"#utility.yul\":6995:7009   */\n      add\n        /* \"#utility.yul\":7096:7100   */\n      0x00\n        /* \"#utility.yul\":7089:7094   */\n      dup3\n        /* \"#utility.yul\":7085:7101   */\n      add\n        /* \"#utility.yul\":7079:7102   */\n      mload\n        /* \"#utility.yul\":7115:7194   */\n      tag_199\n        /* \"#utility.yul\":7188:7192   */\n      0x00\n        /* \"#utility.yul\":7183:7186   */\n      dup6\n        /* \"#utility.yul\":7179:7193   */\n      add\n        /* \"#utility.yul\":7165:7177   */\n      dup3\n        /* \"#utility.yul\":7115:7194   */\n      tag_118\n      jump\t// in\n    tag_199:\n        /* \"#utility.yul\":7019:7204   */\n      pop\n        /* \"#utility.yul\":7289:7293   */\n      0x20\n        /* \"#utility.yul\":7282:7287   */\n      dup3\n        /* \"#utility.yul\":7278:7294   */\n      add\n        /* \"#utility.yul\":7272:7295   */\n      mload\n        /* \"#utility.yul\":7308:7371   */\n      tag_200\n        /* \"#utility.yul\":7365:7369   */\n      0x20\n        /* \"#utility.yul\":7360:7363   */\n      dup6\n        /* \"#utility.yul\":7356:7370   */\n      add\n        /* \"#utility.yul\":7342:7354   */\n      dup3\n        /* \"#utility.yul\":7308:7371   */\n      tag_119\n      jump\t// in\n    tag_200:\n        /* \"#utility.yul\":7214:7381   */\n      pop\n        /* \"#utility.yul\":6973:7388   */\n      pop\n        /* \"#utility.yul\":6863:7388   */\n      pop\n      pop\n      jump\t// out\n        /* \"#utility.yul\":7394:7704   */\n    tag_33:\n        /* \"#utility.yul\":7531:7535   */\n      0x00\n        /* \"#utility.yul\":7569:7571   */\n      0x40\n        /* \"#utility.yul\":7558:7567   */\n      dup3\n        /* \"#utility.yul\":7554:7572   */\n      add\n        /* \"#utility.yul\":7546:7572   */\n      swap1\n      pop\n        /* \"#utility.yul\":7582:7697   */\n      tag_202\n        /* \"#utility.yul\":7694:7695   */\n      0x00\n        /* \"#utility.yul\":7683:7692   */\n      dup4\n        /* \"#utility.yul\":7679:7696   */\n      add\n        /* \"#utility.yul\":7670:7676   */\n      dup5\n        /* \"#utility.yul\":7582:7697   */\n      tag_124\n      jump\t// in\n    tag_202:\n        /* \"#utility.yul\":7394:7704   */\n      swap3\n      swap2\n      pop\n      pop\n      jump\t// out\n        /* \"#utility.yul\":7710:7852   */\n    tag_125:\n        /* \"#utility.yul\":7813:7845   */\n      tag_204\n        /* \"#utility.yul\":7839:7844   */\n      dup2\n        /* \"#utility.yul\":7813:7845   */\n      tag_117\n      jump\t// in\n    tag_204:\n        /* \"#utility.yul\":7808:7811   */\n      dup3\n        /* \"#utility.yul\":7801:7846   */\n      mstore\n        /* \"#utility.yul\":7710:7852   */\n      pop\n      pop\n      jump\t// out\n        /* \"#utility.yul\":7858:8222   */\n    tag_38:\n        /* \"#utility.yul\":7995:7999   */\n      0x00\n        /* \"#utility.yul\":8033:8035   */\n      0x40\n        /* \"#utility.yul\":8022:8031   */\n      dup3\n        /* \"#utility.yul\":8018:8036   */\n      add\n        /* \"#utility.yul\":8010:8036   */\n      swap1\n      pop\n        /* \"#utility.yul\":8046:8133   */\n      tag_206\n        /* \"#utility.yul\":8130:8131   */\n      0x00\n        /* \"#utility.yul\":8119:8128   */\n      dup4\n        /* \"#utility.yul\":8115:8132   */\n      add\n        /* \"#utility.yul\":8106:8112   */\n      dup6\n        /* \"#utility.yul\":8046:8133   */\n      tag_125\n      jump\t// in\n    tag_206:\n        /* \"#utility.yul\":8143:8215   */\n      tag_207\n        /* \"#utility.yul\":8211:8213   */\n      0x20\n        /* \"#utility.yul\":8200:8209   */\n      dup4\n        /* \"#utility.yul\":8196:8214   */\n      add\n        /* \"#utility.yul\":8187:8193   */\n      dup5\n        /* \"#utility.yul\":8143:8215   */\n      tag_113\n      jump\t// in\n    tag_207:\n        /* \"#utility.yul\":7858:8222   */\n      swap4\n      swap3\n      pop\n      pop\n      pop\n      jump\t// out\n        /* \"#utility.yul\":8309:8426   */\n    tag_127:\n        /* \"#utility.yul\":8418:8419   */\n      0x00\n        /* \"#utility.yul\":8415:8416   */\n      dup1\n        /* \"#utility.yul\":8408:8420   */\n      revert\n        /* \"#utility.yul\":8555:8677   */\n    tag_129:\n        /* \"#utility.yul\":8628:8652   */\n      tag_212\n        /* \"#utility.yul\":8646:8651   */\n      dup2\n        /* \"#utility.yul\":8628:8652   */\n      tag_106\n      jump\t// in\n    tag_212:\n        /* \"#utility.yul\":8621:8626   */\n      dup2\n        /* \"#utility.yul\":8618:8653   */\n      eq\n        /* \"#utility.yul\":8608:8671   */\n      tag_213\n      jumpi\n        /* \"#utility.yul\":8667:8668   */\n      0x00\n        /* \"#utility.yul\":8664:8665   */\n      dup1\n        /* \"#utility.yul\":8657:8669   */\n      revert\n        /* \"#utility.yul\":8608:8671   */\n    tag_213:\n        /* \"#utility.yul\":8555:8677   */\n      pop\n      jump\t// out\n        /* \"#utility.yul\":8683:8822   */\n    tag_130:\n        /* \"#utility.yul\":8729:8734   */\n      0x00\n        /* \"#utility.yul\":8767:8773   */\n      dup2\n        /* \"#utility.yul\":8754:8774   */\n      calldataload\n        /* \"#utility.yul\":8745:8774   */\n      swap1\n      pop\n        /* \"#utility.yul\":8783:8816   */\n      tag_215\n        /* \"#utility.yul\":8810:8815   */\n      dup2\n        /* \"#utility.yul\":8783:8816   */\n      tag_129\n      jump\t// in\n    tag_215:\n        /* \"#utility.yul\":8683:8822   */\n      swap3\n      swap2\n      pop\n      pop\n      jump\t// out\n        /* \"#utility.yul\":8828:9157   */\n    tag_42:\n        /* \"#utility.yul\":8887:8893   */\n      0x00\n        /* \"#utility.yul\":8936:8938   */\n      0x20\n        /* \"#utility.yul\":8924:8933   */\n      dup3\n        /* \"#utility.yul\":8915:8922   */\n      dup5\n        /* \"#utility.yul\":8911:8934   */\n      sub\n        /* \"#utility.yul\":8907:8939   */\n      slt\n        /* \"#utility.yul\":8904:9023   */\n      iszero\n      tag_217\n      jumpi\n        /* \"#utility.yul\":8942:9021   */\n      tag_218\n      tag_127\n      jump\t// in\n    tag_218:\n        /* \"#utility.yul\":8904:9023   */\n    tag_217:\n        /* \"#utility.yul\":9062:9063   */\n      0x00\n        /* \"#utility.yul\":9087:9140   */\n      tag_219\n        /* \"#utility.yul\":9132:9139   */\n      dup5\n        /* \"#utility.yul\":9123:9129   */\n      dup3\n        /* \"#utility.yul\":9112:9121   */\n      dup6\n        /* \"#utility.yul\":9108:9130   */\n      add\n        /* \"#utility.yul\":9087:9140   */\n      tag_130\n      jump\t// in\n    tag_219:\n        /* \"#utility.yul\":9077:9140   */\n      swap2\n      pop\n        /* \"#utility.yul\":9033:9150   */\n      pop\n        /* \"#utility.yul\":8828:9157   */\n      swap3\n      swap2\n      pop\n      pop\n      jump\t// out\n        /* \"#utility.yul\":9163:9329   */\n    tag_131:\n        /* \"#utility.yul\":9303:9321   */\n      0x6e6f206572657320656c206f776e657200000000000000000000000000000000\n        /* \"#utility.yul\":9299:9300   */\n      0x00\n        /* \"#utility.yul\":9291:9297   */\n      dup3\n        /* \"#utility.yul\":9287:9301   */\n      add\n        /* \"#utility.yul\":9280:9322   */\n      mstore\n        /* \"#utility.yul\":9163:9329   */\n      pop\n      jump\t// out\n        /* \"#utility.yul\":9335:9701   */\n    tag_132:\n        /* \"#utility.yul\":9477:9480   */\n      0x00\n        /* \"#utility.yul\":9498:9565   */\n      tag_222\n        /* \"#utility.yul\":9562:9564   */\n      0x10\n        /* \"#utility.yul\":9557:9560   */\n      dup4\n        /* \"#utility.yul\":9498:9565   */\n      tag_103\n      jump\t// in\n    tag_222:\n        /* \"#utility.yul\":9491:9565   */\n      swap2\n      pop\n        /* \"#utility.yul\":9574:9667   */\n      tag_223\n        /* \"#utility.yul\":9663:9666   */\n      dup3\n        /* \"#utility.yul\":9574:9667   */\n      tag_131\n      jump\t// in\n    tag_223:\n        /* \"#utility.yul\":9692:9694   */\n      0x20\n        /* \"#utility.yul\":9687:9690   */\n      dup3\n        /* \"#utility.yul\":9683:9695   */\n      add\n        /* \"#utility.yul\":9676:9695   */\n      swap1\n      pop\n        /* \"#utility.yul\":9335:9701   */\n      swap2\n      swap1\n      pop\n      jump\t// out\n        /* \"#utility.yul\":9707:10126   */\n    tag_52:\n        /* \"#utility.yul\":9873:9877   */\n      0x00\n        /* \"#utility.yul\":9911:9913   */\n      0x20\n        /* \"#utility.yul\":9900:9909   */\n      dup3\n        /* \"#utility.yul\":9896:9914   */\n      add\n        /* \"#utility.yul\":9888:9914   */\n      swap1\n      pop\n        /* \"#utility.yul\":9960:9969   */\n      dup2\n        /* \"#utility.yul\":9954:9958   */\n      dup2\n        /* \"#utility.yul\":9950:9970   */\n      sub\n        /* \"#utility.yul\":9946:9947   */\n      0x00\n        /* \"#utility.yul\":9935:9944   */\n      dup4\n        /* \"#utility.yul\":9931:9948   */\n      add\n        /* \"#utility.yul\":9924:9971   */\n      mstore\n        /* \"#utility.yul\":9988:10119   */\n      tag_225\n        /* \"#utility.yul\":10114:10118   */\n      dup2\n        /* \"#utility.yul\":9988:10119   */\n      tag_132\n      jump\t// in\n    tag_225:\n        /* \"#utility.yul\":9980:10119   */\n      swap1\n      pop\n        /* \"#utility.yul\":9707:10126   */\n      swap2\n      swap1\n      pop\n      jump\t// out\n        /* \"#utility.yul\":10132:10296   */\n    tag_133:\n        /* \"#utility.yul\":10272:10288   */\n      0x66616c6c6f20656c20656e76696f000000000000000000000000000000000000\n        /* \"#utility.yul\":10268:10269   */\n      0x00\n        /* \"#utility.yul\":10260:10266   */\n      dup3\n        /* \"#utility.yul\":10256:10270   */\n      add\n        /* \"#utility.yul\":10249:10289   */\n      mstore\n        /* \"#utility.yul\":10132:10296   */\n      pop\n      jump\t// out\n        /* \"#utility.yul\":10302:10668   */\n    tag_134:\n        /* \"#utility.yul\":10444:10447   */\n      0x00\n        /* \"#utility.yul\":10465:10532   */\n      tag_228\n        /* \"#utility.yul\":10529:10531   */\n      0x0e\n        /* \"#utility.yul\":10524:10527   */\n      dup4\n        /* \"#utility.yul\":10465:10532   */\n      tag_103\n      jump\t// in\n    tag_228:\n        /* \"#utility.yul\":10458:10532   */\n      swap2\n      pop\n        /* \"#utility.yul\":10541:10634   */\n      tag_229\n        /* \"#utility.yul\":10630:10633   */\n      dup3\n        /* \"#utility.yul\":10541:10634   */\n      tag_133\n      jump\t// in\n    tag_229:\n        /* \"#utility.yul\":10659:10661   */\n      0x20\n        /* \"#utility.yul\":10654:10657   */\n      dup3\n        /* \"#utility.yul\":10650:10662   */\n      add\n        /* \"#utility.yul\":10643:10662   */\n      swap1\n      pop\n        /* \"#utility.yul\":10302:10668   */\n      swap2\n      swap1\n      pop\n      jump\t// out\n        /* \"#utility.yul\":10674:11093   */\n    tag_57:\n        /* \"#utility.yul\":10840:10844   */\n      0x00\n        /* \"#utility.yul\":10878:10880   */\n      0x20\n        /* \"#utility.yul\":10867:10876   */\n      dup3\n        /* \"#utility.yul\":10863:10881   */\n      add\n        /* \"#utility.yul\":10855:10881   */\n      swap1\n      pop\n        /* \"#utility.yul\":10927:10936   */\n      dup2\n        /* \"#utility.yul\":10921:10925   */\n      dup2\n        /* \"#utility.yul\":10917:10937   */\n      sub\n        /* \"#utility.yul\":10913:10914   */\n      0x00\n        /* \"#utility.yul\":10902:10911   */\n      dup4\n        /* \"#utility.yul\":10898:10915   */\n      add\n        /* \"#utility.yul\":10891:10938   */\n      mstore\n        /* \"#utility.yul\":10955:11086   */\n      tag_231\n        /* \"#utility.yul\":11081:11085   */\n      dup2\n        /* \"#utility.yul\":10955:11086   */\n      tag_134\n      jump\t// in\n    tag_231:\n        /* \"#utility.yul\":10947:11086   */\n      swap1\n      pop\n        /* \"#utility.yul\":10674:11093   */\n      swap2\n      swap1\n      pop\n      jump\t// out\n        /* \"#utility.yul\":11099:11159   */\n    tag_135:\n        /* \"#utility.yul\":11127:11130   */\n      0x00\n        /* \"#utility.yul\":11148:11153   */\n      dup2\n        /* \"#utility.yul\":11141:11153   */\n      swap1\n      pop\n        /* \"#utility.yul\":11099:11159   */\n      swap2\n      swap1\n      pop\n      jump\t// out\n        /* \"#utility.yul\":11165:11307   */\n    tag_136:\n        /* \"#utility.yul\":11215:11224   */\n      0x00\n        /* \"#utility.yul\":11248:11301   */\n      tag_234\n        /* \"#utility.yul\":11266:11300   */\n      tag_235\n        /* \"#utility.yul\":11275:11299   */\n      tag_236\n        /* \"#utility.yul\":11293:11298   */\n      dup5\n        /* \"#utility.yul\":11275:11299   */\n      tag_110\n      jump\t// in\n    tag_236:\n        /* \"#utility.yul\":11266:11300   */\n      tag_135\n      jump\t// in\n    tag_235:\n        /* \"#utility.yul\":11248:11301   */\n      tag_110\n      jump\t// in\n    tag_234:\n        /* \"#utility.yul\":11235:11301   */\n      swap1\n      pop\n        /* \"#utility.yul\":11165:11307   */\n      swap2\n      swap1\n      pop\n      jump\t// out\n        /* \"#utility.yul\":11313:11439   */\n    tag_137:\n        /* \"#utility.yul\":11363:11372   */\n      0x00\n        /* \"#utility.yul\":11396:11433   */\n      tag_238\n        /* \"#utility.yul\":11427:11432   */\n      dup3\n        /* \"#utility.yul\":11396:11433   */\n      tag_136\n      jump\t// in\n    tag_238:\n        /* \"#utility.yul\":11383:11433   */\n      swap1\n      pop\n        /* \"#utility.yul\":11313:11439   */\n      swap2\n      swap1\n      pop\n      jump\t// out\n        /* \"#utility.yul\":11445:11579   */\n    tag_138:\n        /* \"#utility.yul\":11503:11512   */\n      0x00\n        /* \"#utility.yul\":11536:11573   */\n      tag_240\n        /* \"#utility.yul\":11567:11572   */\n      dup3\n        /* \"#utility.yul\":11536:11573   */\n      tag_137\n      jump\t// in\n    tag_240:\n        /* \"#utility.yul\":11523:11573   */\n      swap1\n      pop\n        /* \"#utility.yul\":11445:11579   */\n      swap2\n      swap1\n      pop\n      jump\t// out\n        /* \"#utility.yul\":11585:11732   */\n    tag_139:\n        /* \"#utility.yul\":11680:11725   */\n      tag_242\n        /* \"#utility.yul\":11719:11724   */\n      dup2\n        /* \"#utility.yul\":11680:11725   */\n      tag_138\n      jump\t// in\n    tag_242:\n        /* \"#utility.yul\":11675:11678   */\n      dup3\n        /* \"#utility.yul\":11668:11726   */\n      mstore\n        /* \"#utility.yul\":11585:11732   */\n      pop\n      pop\n      jump\t// out\n        /* \"#utility.yul\":11738:12086   */\n    tag_61:\n        /* \"#utility.yul\":11867:11871   */\n      0x00\n        /* \"#utility.yul\":11905:11907   */\n      0x40\n        /* \"#utility.yul\":11894:11903   */\n      dup3\n        /* \"#utility.yul\":11890:11908   */\n      add\n        /* \"#utility.yul\":11882:11908   */\n      swap1\n      pop\n        /* \"#utility.yul\":11918:11997   */\n      tag_244\n        /* \"#utility.yul\":11994:11995   */\n      0x00\n        /* \"#utility.yul\":11983:11992   */\n      dup4\n        /* \"#utility.yul\":11979:11996   */\n      add\n        /* \"#utility.yul\":11970:11976   */\n      dup6\n        /* \"#utility.yul\":11918:11997   */\n      tag_139\n      jump\t// in\n    tag_244:\n        /* \"#utility.yul\":12007:12079   */\n      tag_245\n        /* \"#utility.yul\":12075:12077   */\n      0x20\n        /* \"#utility.yul\":12064:12073   */\n      dup4\n        /* \"#utility.yul\":12060:12078   */\n      add\n        /* \"#utility.yul\":12051:12057   */\n      dup5\n        /* \"#utility.yul\":12007:12079   */\n      tag_113\n      jump\t// in\n    tag_245:\n        /* \"#utility.yul\":11738:12086   */\n      swap4\n      swap3\n      pop\n      pop\n      pop\n      jump\t// out\n        /* \"#utility.yul\":12092:12272   */\n    tag_71:\n        /* \"#utility.yul\":12140:12217   */\n      0x4e487b7100000000000000000000000000000000000000000000000000000000\n        /* \"#utility.yul\":12137:12138   */\n      0x00\n        /* \"#utility.yul\":12130:12218   */\n      mstore\n        /* \"#utility.yul\":12237:12241   */\n      0x32\n        /* \"#utility.yul\":12234:12235   */\n      0x04\n        /* \"#utility.yul\":12227:12242   */\n      mstore\n        /* \"#utility.yul\":12261:12265   */\n      0x24\n        /* \"#utility.yul\":12258:12259   */\n      0x00\n        /* \"#utility.yul\":12251:12266   */\n      revert\n        /* \"#utility.yul\":12278:12458   */\n    tag_140:\n        /* \"#utility.yul\":12326:12403   */\n      0x4e487b7100000000000000000000000000000000000000000000000000000000\n        /* \"#utility.yul\":12323:12324   */\n      0x00\n        /* \"#utility.yul\":12316:12404   */\n      mstore\n        /* \"#utility.yul\":12423:12427   */\n      0x11\n        /* \"#utility.yul\":12420:12421   */\n      0x04\n        /* \"#utility.yul\":12413:12428   */\n      mstore\n        /* \"#utility.yul\":12447:12451   */\n      0x24\n        /* \"#utility.yul\":12444:12445   */\n      0x00\n        /* \"#utility.yul\":12437:12452   */\n      revert\n        /* \"#utility.yul\":12464:12874   */\n    tag_97:\n        /* \"#utility.yul\":12504:12511   */\n      0x00\n        /* \"#utility.yul\":12527:12547   */\n      tag_249\n        /* \"#utility.yul\":12545:12546   */\n      dup3\n        /* \"#utility.yul\":12527:12547   */\n      tag_106\n      jump\t// in\n    tag_249:\n        /* \"#utility.yul\":12522:12547   */\n      swap2\n      pop\n        /* \"#utility.yul\":12561:12581   */\n      tag_250\n        /* \"#utility.yul\":12579:12580   */\n      dup4\n        /* \"#utility.yul\":12561:12581   */\n      tag_106\n      jump\t// in\n    tag_250:\n        /* \"#utility.yul\":12556:12581   */\n      swap3\n      pop\n        /* \"#utility.yul\":12616:12617   */\n      dup3\n        /* \"#utility.yul\":12613:12614   */\n      dup3\n        /* \"#utility.yul\":12609:12618   */\n      mul\n        /* \"#utility.yul\":12638:12668   */\n      tag_251\n        /* \"#utility.yul\":12656:12667   */\n      dup2\n        /* \"#utility.yul\":12638:12668   */\n      tag_106\n      jump\t// in\n    tag_251:\n        /* \"#utility.yul\":12627:12668   */\n      swap2\n      pop\n        /* \"#utility.yul\":12817:12818   */\n      dup3\n        /* \"#utility.yul\":12808:12815   */\n      dup3\n        /* \"#utility.yul\":12804:12819   */\n      div\n        /* \"#utility.yul\":12801:12802   */\n      dup5\n        /* \"#utility.yul\":12798:12820   */\n      eq\n        /* \"#utility.yul\":12778:12779   */\n      dup4\n        /* \"#utility.yul\":12771:12780   */\n      iszero\n        /* \"#utility.yul\":12751:12834   */\n      or\n        /* \"#utility.yul\":12728:12867   */\n      tag_252\n      jumpi\n        /* \"#utility.yul\":12847:12865   */\n      tag_253\n      tag_140\n      jump\t// in\n    tag_253:\n        /* \"#utility.yul\":12728:12867   */\n    tag_252:\n        /* \"#utility.yul\":12512:12874   */\n      pop\n        /* \"#utility.yul\":12464:12874   */\n      swap3\n      swap2\n      pop\n      pop\n      jump\t// out\n        /* \"#utility.yul\":12880:13065   */\n    tag_99:\n        /* \"#utility.yul\":12920:12921   */\n      0x00\n        /* \"#utility.yul\":12937:12957   */\n      tag_255\n        /* \"#utility.yul\":12955:12956   */\n      dup3\n        /* \"#utility.yul\":12937:12957   */\n      tag_106\n      jump\t// in\n    tag_255:\n        /* \"#utility.yul\":12932:12957   */\n      swap2\n      pop\n        /* \"#utility.yul\":12971:12991   */\n      tag_256\n        /* \"#utility.yul\":12989:12990   */\n      dup4\n        /* \"#utility.yul\":12971:12991   */\n      tag_106\n      jump\t// in\n    tag_256:\n        /* \"#utility.yul\":12966:12991   */\n      swap3\n      pop\n        /* \"#utility.yul\":13010:13011   */\n      dup3\n        /* \"#utility.yul\":13000:13035   */\n      tag_257\n      jumpi\n        /* \"#utility.yul\":13015:13033   */\n      tag_258\n      tag_107\n      jump\t// in\n    tag_258:\n        /* \"#utility.yul\":13000:13035   */\n    tag_257:\n        /* \"#utility.yul\":13057:13058   */\n      dup3\n        /* \"#utility.yul\":13054:13055   */\n      dup3\n        /* \"#utility.yul\":13050:13059   */\n      div\n        /* \"#utility.yul\":13045:13059   */\n      swap1\n      pop\n        /* \"#utility.yul\":12880:13065   */\n      swap3\n      swap2\n      pop\n      pop\n      jump\t// out\n\n    auxdata: 0xa26469706673582212200f0d136b4db3cb9fca3a32037829c331eb8052eb6c80ce02b5229e5d8efaf2f064736f6c634300081a0033\n}\n",
				"bytecode": {
					"linkReferences": {},
					"object": "6080604052335f806101000a81548173ffffffffffffffffffffffffffffffffffffffff021916908373ffffffffffffffffffffffffffffffffffffffff1602179055503360025f015f6101000a81548173ffffffffffffffffffffffffffffffffffffffff021916908373ffffffffffffffffffffffffffffffffffffffff16021790555034600260010181905550610eac8061009c5f395ff3fe60806040526004361061004d575f3560e01c8063304265831461017e57806388aa112b146101a8578063b9ed4264146101be578063bbfb7ce0146101e8578063d6df17fa146102135761017a565b3661017a573460026001015410156100ac573360025f015f6101000a81548173ffffffffffffffffffffffffffffffffffffffff021916908373ffffffffffffffffffffffffffffffffffffffff160217905550346002600101819055505b6103e83410156100f1576040517f08c379a00000000000000000000000000000000000000000000000000000000081526004016100e8906108d9565b60405180910390fd5b5f6064346100ff919061092d565b1461013f576040517f08c379a0000000000000000000000000000000000000000000000000000000008152600401610136906109cd565b60405180910390fd5b7fa5267797272234e2df28df9adfabfb57e08a7ff7bf3b41cac21f737d65b2748e3334604051610170929190610a39565b60405180910390a1005b5f80fd5b348015610189575f80fd5b50610192610250565b60405161019f9190610b64565b60405180910390f35b3480156101b3575f80fd5b506101bc61030a565b005b3480156101c9575f80fd5b506101d2610485565b6040516101df9190610bb1565b60405180910390f35b3480156101f3575f80fd5b506101fc610574565b60405161020a929190610bd9565b60405180910390f35b34801561021e575f80fd5b5061023960048036038101906102349190610c2e565b6105a4565b604051610247929190610bd9565b60405180910390f35b60606001805480602002602001604051908101604052809291908181526020015f905b82821015610301578382905f5260205f2090600202016040518060400160405290815f82015f9054906101000a900473ffffffffffffffffffffffffffffffffffffffff1673ffffffffffffffffffffffffffffffffffffffff1673ffffffffffffffffffffffffffffffffffffffff16815260200160018201548152505081526020019060010190610273565b50505050905090565b3373ffffffffffffffffffffffffffffffffffffffff165f8054906101000a900473ffffffffffffffffffffffffffffffffffffffff1673ffffffffffffffffffffffffffffffffffffffff1614610397576040517f08c379a000000000000000000000000000000000000000000000000000000000815260040161038e90610ca3565b60405180910390fd5b5f3390505f15158173ffffffffffffffffffffffffffffffffffffffff166108fc60026001015490811502906040515f60405180830381858888f19350505050151503610419576040517f08c379a000000000000000000000000000000000000000000000000000000000815260040161041090610d0b565b60405180910390fd5b6104216105f2565b7f9f5df00419f6dd570a7220a38756403e4c9c7222d0bc24968c0071123f76511260025f015f9054906101000a900473ffffffffffffffffffffffffffffffffffffffff1660026001015460405161047a929190610d84565b60405180910390a150565b61048d61082b565b61049561082b565b5f5b60018054905081101561056c57600181815481106104b8576104b7610dab565b5b905f5260205f209060020201600101548260200151101561055f57600181815481106104e7576104e6610dab565b5b905f5260205f2090600202016040518060400160405290815f82015f9054906101000a900473ffffffffffffffffffffffffffffffffffffffff1673ffffffffffffffffffffffffffffffffffffffff1673ffffffffffffffffffffffffffffffffffffffff16815260200160018201548152505091505b8080600101915050610497565b508091505090565b6002805f015f9054906101000a900473ffffffffffffffffffffffffffffffffffffffff16908060010154905082565b600181815481106105b3575f80fd5b905f5260205f2090600202015f91509050805f015f9054906101000a900473ffffffffffffffffffffffffffffffffffffffff16908060010154905082565b3373ffffffffffffffffffffffffffffffffffffffff165f8054906101000a900473ffffffffffffffffffffffffffffffffffffffff1673ffffffffffffffffffffffffffffffffffffffff161461067f576040517f08c379a000000000000000000000000000000000000000000000000000000000815260040161067690610ca3565b60405180910390fd5b5f5b6001805490508110156108285760025f015f9054906101000a900473ffffffffffffffffffffffffffffffffffffffff1673ffffffffffffffffffffffffffffffffffffffff16600182815481106106dc576106db610dab565b5b905f5260205f2090600202015f015f9054906101000a900473ffffffffffffffffffffffffffffffffffffffff1673ffffffffffffffffffffffffffffffffffffffff161461081b575f15156001828154811061073c5761073b610dab565b5b905f5260205f2090600202015f015f9054906101000a900473ffffffffffffffffffffffffffffffffffffffff1673ffffffffffffffffffffffffffffffffffffffff166108fc606460626001868154811061079b5761079a610dab565b5b905f5260205f209060020201600101546107b59190610e05565b6107bf9190610e46565b90811502906040515f60405180830381858888f1935050505015150361081a576040517f08c379a000000000000000000000000000000000000000000000000000000000815260040161081190610d0b565b60405180910390fd5b5b8080600101915050610681565b50565b60405180604001604052805f73ffffffffffffffffffffffffffffffffffffffff1681526020015f81525090565b5f82825260208201905092915050565b7f456c206d6f6e746f20646562652073657220616c206d656e6f732031303030205f8201527f7765690000000000000000000000000000000000000000000000000000000000602082015250565b5f6108c3602383610859565b91506108ce82610869565b604082019050919050565b5f6020820190508181035f8301526108f0816108b7565b9050919050565b5f819050919050565b7f4e487b71000000000000000000000000000000000000000000000000000000005f52601260045260245ffd5b5f610937826108f7565b9150610942836108f7565b92508261095257610951610900565b5b828206905092915050565b7f456c206d6f6e746f206465626520736572206d756c7469706c6f2064652031305f8201527f3020776569000000000000000000000000000000000000000000000000000000602082015250565b5f6109b7602583610859565b91506109c28261095d565b604082019050919050565b5f6020820190508181035f8301526109e4816109ab565b9050919050565b5f73ffffffffffffffffffffffffffffffffffffffff82169050919050565b5f610a14826109eb565b9050919050565b610a2481610a0a565b82525050565b610a33816108f7565b82525050565b5f604082019050610a4c5f830185610a1b565b610a596020830184610a2a565b9392505050565b5f81519050919050565b5f82825260208201905092915050565b5f819050602082019050919050565b5f610a93826109eb565b9050919050565b610aa381610a89565b82525050565b610ab2816108f7565b82525050565b604082015f820151610acc5f850182610a9a565b506020820151610adf6020850182610aa9565b50505050565b5f610af08383610ab8565b60408301905092915050565b5f602082019050919050565b5f610b1282610a60565b610b1c8185610a6a565b9350610b2783610a7a565b805f5b83811015610b57578151610b3e8882610ae5565b9750610b4983610afc565b925050600181019050610b2a565b5085935050505092915050565b5f6020820190508181035f830152610b7c8184610b08565b905092915050565b604082015f820151610b985f850182610a9a565b506020820151610bab6020850182610aa9565b50505050565b5f604082019050610bc45f830184610b84565b92915050565b610bd381610a89565b82525050565b5f604082019050610bec5f830185610bca565b610bf96020830184610a2a565b9392505050565b5f80fd5b610c0d816108f7565b8114610c17575f80fd5b50565b5f81359050610c2881610c04565b92915050565b5f60208284031215610c4357610c42610c00565b5b5f610c5084828501610c1a565b91505092915050565b7f6e6f206572657320656c206f776e6572000000000000000000000000000000005f82015250565b5f610c8d601083610859565b9150610c9882610c59565b602082019050919050565b5f6020820190508181035f830152610cba81610c81565b9050919050565b7f66616c6c6f20656c20656e76696f0000000000000000000000000000000000005f82015250565b5f610cf5600e83610859565b9150610d0082610cc1565b602082019050919050565b5f6020820190508181035f830152610d2281610ce9565b9050919050565b5f819050919050565b5f610d4c610d47610d42846109eb565b610d29565b6109eb565b9050919050565b5f610d5d82610d32565b9050919050565b5f610d6e82610d53565b9050919050565b610d7e81610d64565b82525050565b5f604082019050610d975f830185610d75565b610da46020830184610a2a565b9392505050565b7f4e487b71000000000000000000000000000000000000000000000000000000005f52603260045260245ffd5b7f4e487b71000000000000000000000000000000000000000000000000000000005f52601160045260245ffd5b5f610e0f826108f7565b9150610e1a836108f7565b9250828202610e28816108f7565b91508282048414831517610e3f57610e3e610dd8565b5b5092915050565b5f610e50826108f7565b9150610e5b836108f7565b925082610e6b57610e6a610900565b5b82820490509291505056fea26469706673582212200f0d136b4db3cb9fca3a32037829c331eb8052eb6c80ce02b5229e5d8efaf2f064736f6c634300081a0033",
					"opcodes": "PUSH1 0x80 PUSH1 0x40 MSTORE CALLER PUSH0 DUP1 PUSH2 0x100 EXP DUP2 SLOAD DUP2 PUSH20 0xFFFFFFFFFFFFFFFFFFFFFFFFFFFFFFFFFFFFFFFF MUL NOT AND SWAP1 DUP4 PUSH20 0xFFFFFFFFFFFFFFFFFFFFFFFFFFFFFFFFFFFFFFFF AND MUL OR SWAP1 SSTORE POP CALLER PUSH1 0x2 PUSH0 ADD PUSH0 PUSH2 0x100 EXP DUP2 SLOAD DUP2 PUSH20 0xFFFFFFFFFFFFFFFFFFFFFFFFFFFFFFFFFFFFFFFF MUL NOT AND SWAP1 DUP4 PUSH20 0xFFFFFFFFFFFFFFFFFFFFFFFFFFFFFFFFFFFFFFFF AND MUL OR SWAP1 SSTORE POP CALLVALUE PUSH1 0x2 PUSH1 0x1 ADD DUP2 SWAP1 SSTORE POP PUSH2 0xEAC DUP1 PUSH2 0x9C PUSH0 CODECOPY PUSH0 RETURN INVALID PUSH1 0x80 PUSH1 0x40 MSTORE PUSH1 0x4 CALLDATASIZE LT PUSH2 0x4D JUMPI PUSH0 CALLDATALOAD PUSH1 0xE0 SHR DUP1 PUSH4 0x30426583 EQ PUSH2 0x17E JUMPI DUP1 PUSH4 0x88AA112B EQ PUSH2 0x1A8 JUMPI DUP1 PUSH4 0xB9ED4264 EQ PUSH2 0x1BE JUMPI DUP1 PUSH4 0xBBFB7CE0 EQ PUSH2 0x1E8 JUMPI DUP1 PUSH4 0xD6DF17FA EQ PUSH2 0x213 JUMPI PUSH2 0x17A JUMP JUMPDEST CALLDATASIZE PUSH2 0x17A JUMPI CALLVALUE PUSH1 0x2 PUSH1 0x1 ADD SLOAD LT ISZERO PUSH2 0xAC JUMPI CALLER PUSH1 0x2 PUSH0 ADD PUSH0 PUSH2 0x100 EXP DUP2 SLOAD DUP2 PUSH20 0xFFFFFFFFFFFFFFFFFFFFFFFFFFFFFFFFFFFFFFFF MUL NOT AND SWAP1 DUP4 PUSH20 0xFFFFFFFFFFFFFFFFFFFFFFFFFFFFFFFFFFFFFFFF AND MUL OR SWAP1 SSTORE POP CALLVALUE PUSH1 0x2 PUSH1 0x1 ADD DUP2 SWAP1 SSTORE POP JUMPDEST PUSH2 0x3E8 CALLVALUE LT ISZERO PUSH2 0xF1 JUMPI PUSH1 0x40 MLOAD PUSH32 0x8C379A000000000000000000000000000000000000000000000000000000000 DUP2 MSTORE PUSH1 0x4 ADD PUSH2 0xE8 SWAP1 PUSH2 0x8D9 JUMP JUMPDEST PUSH1 0x40 MLOAD DUP1 SWAP2 SUB SWAP1 REVERT JUMPDEST PUSH0 PUSH1 0x64 CALLVALUE PUSH2 0xFF SWAP2 SWAP1 PUSH2 0x92D JUMP JUMPDEST EQ PUSH2 0x13F JUMPI PUSH1 0x40 MLOAD PUSH32 0x8C379A000000000000000000000000000000000000000000000000000000000 DUP2 MSTORE PUSH1 0x4 ADD PUSH2 0x136 SWAP1 PUSH2 0x9CD JUMP JUMPDEST PUSH1 0x40 MLOAD DUP1 SWAP2 SUB SWAP1 REVERT JUMPDEST PUSH32 0xA5267797272234E2DF28DF9ADFABFB57E08A7FF7BF3B41CAC21F737D65B2748E CALLER CALLVALUE PUSH1 0x40 MLOAD PUSH2 0x170 SWAP3 SWAP2 SWAP1 PUSH2 0xA39 JUMP JUMPDEST PUSH1 0x40 MLOAD DUP1 SWAP2 SUB SWAP1 LOG1 STOP JUMPDEST PUSH0 DUP1 REVERT JUMPDEST CALLVALUE DUP1 ISZERO PUSH2 0x189 JUMPI PUSH0 DUP1 REVERT JUMPDEST POP PUSH2 0x192 PUSH2 0x250 JUMP JUMPDEST PUSH1 0x40 MLOAD PUSH2 0x19F SWAP2 SWAP1 PUSH2 0xB64 JUMP JUMPDEST PUSH1 0x40 MLOAD DUP1 SWAP2 SUB SWAP1 RETURN JUMPDEST CALLVALUE DUP1 ISZERO PUSH2 0x1B3 JUMPI PUSH0 DUP1 REVERT JUMPDEST POP PUSH2 0x1BC PUSH2 0x30A JUMP JUMPDEST STOP JUMPDEST CALLVALUE DUP1 ISZERO PUSH2 0x1C9 JUMPI PUSH0 DUP1 REVERT JUMPDEST POP PUSH2 0x1D2 PUSH2 0x485 JUMP JUMPDEST PUSH1 0x40 MLOAD PUSH2 0x1DF SWAP2 SWAP1 PUSH2 0xBB1 JUMP JUMPDEST PUSH1 0x40 MLOAD DUP1 SWAP2 SUB SWAP1 RETURN JUMPDEST CALLVALUE DUP1 ISZERO PUSH2 0x1F3 JUMPI PUSH0 DUP1 REVERT JUMPDEST POP PUSH2 0x1FC PUSH2 0x574 JUMP JUMPDEST PUSH1 0x40 MLOAD PUSH2 0x20A SWAP3 SWAP2 SWAP1 PUSH2 0xBD9 JUMP JUMPDEST PUSH1 0x40 MLOAD DUP1 SWAP2 SUB SWAP1 RETURN JUMPDEST CALLVALUE DUP1 ISZERO PUSH2 0x21E JUMPI PUSH0 DUP1 REVERT JUMPDEST POP PUSH2 0x239 PUSH1 0x4 DUP1 CALLDATASIZE SUB DUP2 ADD SWAP1 PUSH2 0x234 SWAP2 SWAP1 PUSH2 0xC2E JUMP JUMPDEST PUSH2 0x5A4 JUMP JUMPDEST PUSH1 0x40 MLOAD PUSH2 0x247 SWAP3 SWAP2 SWAP1 PUSH2 0xBD9 JUMP JUMPDEST PUSH1 0x40 MLOAD DUP1 SWAP2 SUB SWAP1 RETURN JUMPDEST PUSH1 0x60 PUSH1 0x1 DUP1 SLOAD DUP1 PUSH1 0x20 MUL PUSH1 0x20 ADD PUSH1 0x40 MLOAD SWAP1 DUP2 ADD PUSH1 0x40 MSTORE DUP1 SWAP3 SWAP2 SWAP1 DUP2 DUP2 MSTORE PUSH1 0x20 ADD PUSH0 SWAP1 JUMPDEST DUP3 DUP3 LT ISZERO PUSH2 0x301 JUMPI DUP4 DUP3 SWAP1 PUSH0 MSTORE PUSH1 0x20 PUSH0 KECCAK256 SWAP1 PUSH1 0x2 MUL ADD PUSH1 0x40 MLOAD DUP1 PUSH1 0x40 ADD PUSH1 0x40 MSTORE SWAP1 DUP2 PUSH0 DUP3 ADD PUSH0 SWAP1 SLOAD SWAP1 PUSH2 0x100 EXP SWAP1 DIV PUSH20 0xFFFFFFFFFFFFFFFFFFFFFFFFFFFFFFFFFFFFFFFF AND PUSH20 0xFFFFFFFFFFFFFFFFFFFFFFFFFFFFFFFFFFFFFFFF AND PUSH20 0xFFFFFFFFFFFFFFFFFFFFFFFFFFFFFFFFFFFFFFFF AND DUP2 MSTORE PUSH1 0x20 ADD PUSH1 0x1 DUP3 ADD SLOAD DUP2 MSTORE POP POP DUP2 MSTORE PUSH1 0x20 ADD SWAP1 PUSH1 0x1 ADD SWAP1 PUSH2 0x273 JUMP JUMPDEST POP POP POP POP SWAP1 POP SWAP1 JUMP JUMPDEST CALLER PUSH20 0xFFFFFFFFFFFFFFFFFFFFFFFFFFFFFFFFFFFFFFFF AND PUSH0 DUP1 SLOAD SWAP1 PUSH2 0x100 EXP SWAP1 DIV PUSH20 0xFFFFFFFFFFFFFFFFFFFFFFFFFFFFFFFFFFFFFFFF AND PUSH20 0xFFFFFFFFFFFFFFFFFFFFFFFFFFFFFFFFFFFFFFFF AND EQ PUSH2 0x397 JUMPI PUSH1 0x40 MLOAD PUSH32 0x8C379A000000000000000000000000000000000000000000000000000000000 DUP2 MSTORE PUSH1 0x4 ADD PUSH2 0x38E SWAP1 PUSH2 0xCA3 JUMP JUMPDEST PUSH1 0x40 MLOAD DUP1 SWAP2 SUB SWAP1 REVERT JUMPDEST PUSH0 CALLER SWAP1 POP PUSH0 ISZERO ISZERO DUP2 PUSH20 0xFFFFFFFFFFFFFFFFFFFFFFFFFFFFFFFFFFFFFFFF AND PUSH2 0x8FC PUSH1 0x2 PUSH1 0x1 ADD SLOAD SWAP1 DUP2 ISZERO MUL SWAP1 PUSH1 0x40 MLOAD PUSH0 PUSH1 0x40 MLOAD DUP1 DUP4 SUB DUP2 DUP6 DUP9 DUP9 CALL SWAP4 POP POP POP POP ISZERO ISZERO SUB PUSH2 0x419 JUMPI PUSH1 0x40 MLOAD PUSH32 0x8C379A000000000000000000000000000000000000000000000000000000000 DUP2 MSTORE PUSH1 0x4 ADD PUSH2 0x410 SWAP1 PUSH2 0xD0B JUMP JUMPDEST PUSH1 0x40 MLOAD DUP1 SWAP2 SUB SWAP1 REVERT JUMPDEST PUSH2 0x421 PUSH2 0x5F2 JUMP JUMPDEST PUSH32 0x9F5DF00419F6DD570A7220A38756403E4C9C7222D0BC24968C0071123F765112 PUSH1 0x2 PUSH0 ADD PUSH0 SWAP1 SLOAD SWAP1 PUSH2 0x100 EXP SWAP1 DIV PUSH20 0xFFFFFFFFFFFFFFFFFFFFFFFFFFFFFFFFFFFFFFFF AND PUSH1 0x2 PUSH1 0x1 ADD SLOAD PUSH1 0x40 MLOAD PUSH2 0x47A SWAP3 SWAP2 SWAP1 PUSH2 0xD84 JUMP JUMPDEST PUSH1 0x40 MLOAD DUP1 SWAP2 SUB SWAP1 LOG1 POP JUMP JUMPDEST PUSH2 0x48D PUSH2 0x82B JUMP JUMPDEST PUSH2 0x495 PUSH2 0x82B JUMP JUMPDEST PUSH0 JUMPDEST PUSH1 0x1 DUP1 SLOAD SWAP1 POP DUP2 LT ISZERO PUSH2 0x56C JUMPI PUSH1 0x1 DUP2 DUP2 SLOAD DUP2 LT PUSH2 0x4B8 JUMPI PUSH2 0x4B7 PUSH2 0xDAB JUMP JUMPDEST JUMPDEST SWAP1 PUSH0 MSTORE PUSH1 0x20 PUSH0 KECCAK256 SWAP1 PUSH1 0x2 MUL ADD PUSH1 0x1 ADD SLOAD DUP3 PUSH1 0x20 ADD MLOAD LT ISZERO PUSH2 0x55F JUMPI PUSH1 0x1 DUP2 DUP2 SLOAD DUP2 LT PUSH2 0x4E7 JUMPI PUSH2 0x4E6 PUSH2 0xDAB JUMP JUMPDEST JUMPDEST SWAP1 PUSH0 MSTORE PUSH1 0x20 PUSH0 KECCAK256 SWAP1 PUSH1 0x2 MUL ADD PUSH1 0x40 MLOAD DUP1 PUSH1 0x40 ADD PUSH1 0x40 MSTORE SWAP1 DUP2 PUSH0 DUP3 ADD PUSH0 SWAP1 SLOAD SWAP1 PUSH2 0x100 EXP SWAP1 DIV PUSH20 0xFFFFFFFFFFFFFFFFFFFFFFFFFFFFFFFFFFFFFFFF AND PUSH20 0xFFFFFFFFFFFFFFFFFFFFFFFFFFFFFFFFFFFFFFFF AND PUSH20 0xFFFFFFFFFFFFFFFFFFFFFFFFFFFFFFFFFFFFFFFF AND DUP2 MSTORE PUSH1 0x20 ADD PUSH1 0x1 DUP3 ADD SLOAD DUP2 MSTORE POP POP SWAP2 POP JUMPDEST DUP1 DUP1 PUSH1 0x1 ADD SWAP2 POP POP PUSH2 0x497 JUMP JUMPDEST POP DUP1 SWAP2 POP POP SWAP1 JUMP JUMPDEST PUSH1 0x2 DUP1 PUSH0 ADD PUSH0 SWAP1 SLOAD SWAP1 PUSH2 0x100 EXP SWAP1 DIV PUSH20 0xFFFFFFFFFFFFFFFFFFFFFFFFFFFFFFFFFFFFFFFF AND SWAP1 DUP1 PUSH1 0x1 ADD SLOAD SWAP1 POP DUP3 JUMP JUMPDEST PUSH1 0x1 DUP2 DUP2 SLOAD DUP2 LT PUSH2 0x5B3 JUMPI PUSH0 DUP1 REVERT JUMPDEST SWAP1 PUSH0 MSTORE PUSH1 0x20 PUSH0 KECCAK256 SWAP1 PUSH1 0x2 MUL ADD PUSH0 SWAP2 POP SWAP1 POP DUP1 PUSH0 ADD PUSH0 SWAP1 SLOAD SWAP1 PUSH2 0x100 EXP SWAP1 DIV PUSH20 0xFFFFFFFFFFFFFFFFFFFFFFFFFFFFFFFFFFFFFFFF AND SWAP1 DUP1 PUSH1 0x1 ADD SLOAD SWAP1 POP DUP3 JUMP JUMPDEST CALLER PUSH20 0xFFFFFFFFFFFFFFFFFFFFFFFFFFFFFFFFFFFFFFFF AND PUSH0 DUP1 SLOAD SWAP1 PUSH2 0x100 EXP SWAP1 DIV PUSH20 0xFFFFFFFFFFFFFFFFFFFFFFFFFFFFFFFFFFFFFFFF AND PUSH20 0xFFFFFFFFFFFFFFFFFFFFFFFFFFFFFFFFFFFFFFFF AND EQ PUSH2 0x67F JUMPI PUSH1 0x40 MLOAD PUSH32 0x8C379A000000000000000000000000000000000000000000000000000000000 DUP2 MSTORE PUSH1 0x4 ADD PUSH2 0x676 SWAP1 PUSH2 0xCA3 JUMP JUMPDEST PUSH1 0x40 MLOAD DUP1 SWAP2 SUB SWAP1 REVERT JUMPDEST PUSH0 JUMPDEST PUSH1 0x1 DUP1 SLOAD SWAP1 POP DUP2 LT ISZERO PUSH2 0x828 JUMPI PUSH1 0x2 PUSH0 ADD PUSH0 SWAP1 SLOAD SWAP1 PUSH2 0x100 EXP SWAP1 DIV PUSH20 0xFFFFFFFFFFFFFFFFFFFFFFFFFFFFFFFFFFFFFFFF AND PUSH20 0xFFFFFFFFFFFFFFFFFFFFFFFFFFFFFFFFFFFFFFFF AND PUSH1 0x1 DUP3 DUP2 SLOAD DUP2 LT PUSH2 0x6DC JUMPI PUSH2 0x6DB PUSH2 0xDAB JUMP JUMPDEST JUMPDEST SWAP1 PUSH0 MSTORE PUSH1 0x20 PUSH0 KECCAK256 SWAP1 PUSH1 0x2 MUL ADD PUSH0 ADD PUSH0 SWAP1 SLOAD SWAP1 PUSH2 0x100 EXP SWAP1 DIV PUSH20 0xFFFFFFFFFFFFFFFFFFFFFFFFFFFFFFFFFFFFFFFF AND PUSH20 0xFFFFFFFFFFFFFFFFFFFFFFFFFFFFFFFFFFFFFFFF AND EQ PUSH2 0x81B JUMPI PUSH0 ISZERO ISZERO PUSH1 0x1 DUP3 DUP2 SLOAD DUP2 LT PUSH2 0x73C JUMPI PUSH2 0x73B PUSH2 0xDAB JUMP JUMPDEST JUMPDEST SWAP1 PUSH0 MSTORE PUSH1 0x20 PUSH0 KECCAK256 SWAP1 PUSH1 0x2 MUL ADD PUSH0 ADD PUSH0 SWAP1 SLOAD SWAP1 PUSH2 0x100 EXP SWAP1 DIV PUSH20 0xFFFFFFFFFFFFFFFFFFFFFFFFFFFFFFFFFFFFFFFF AND PUSH20 0xFFFFFFFFFFFFFFFFFFFFFFFFFFFFFFFFFFFFFFFF AND PUSH2 0x8FC PUSH1 0x64 PUSH1 0x62 PUSH1 0x1 DUP7 DUP2 SLOAD DUP2 LT PUSH2 0x79B JUMPI PUSH2 0x79A PUSH2 0xDAB JUMP JUMPDEST JUMPDEST SWAP1 PUSH0 MSTORE PUSH1 0x20 PUSH0 KECCAK256 SWAP1 PUSH1 0x2 MUL ADD PUSH1 0x1 ADD SLOAD PUSH2 0x7B5 SWAP2 SWAP1 PUSH2 0xE05 JUMP JUMPDEST PUSH2 0x7BF SWAP2 SWAP1 PUSH2 0xE46 JUMP JUMPDEST SWAP1 DUP2 ISZERO MUL SWAP1 PUSH1 0x40 MLOAD PUSH0 PUSH1 0x40 MLOAD DUP1 DUP4 SUB DUP2 DUP6 DUP9 DUP9 CALL SWAP4 POP POP POP POP ISZERO ISZERO SUB PUSH2 0x81A JUMPI PUSH1 0x40 MLOAD PUSH32 0x8C379A000000000000000000000000000000000000000000000000000000000 DUP2 MSTORE PUSH1 0x4 ADD PUSH2 0x811 SWAP1 PUSH2 0xD0B JUMP JUMPDEST PUSH1 0x40 MLOAD DUP1 SWAP2 SUB SWAP1 REVERT JUMPDEST JUMPDEST DUP1 DUP1 PUSH1 0x1 ADD SWAP2 POP POP PUSH2 0x681 JUMP JUMPDEST POP JUMP JUMPDEST PUSH1 0x40 MLOAD DUP1 PUSH1 0x40 ADD PUSH1 0x40 MSTORE DUP1 PUSH0 PUSH20 0xFFFFFFFFFFFFFFFFFFFFFFFFFFFFFFFFFFFFFFFF AND DUP2 MSTORE PUSH1 0x20 ADD PUSH0 DUP2 MSTORE POP SWAP1 JUMP JUMPDEST PUSH0 DUP3 DUP3 MSTORE PUSH1 0x20 DUP3 ADD SWAP1 POP SWAP3 SWAP2 POP POP JUMP JUMPDEST PUSH32 0x456C206D6F6E746F20646562652073657220616C206D656E6F73203130303020 PUSH0 DUP3 ADD MSTORE PUSH32 0x7765690000000000000000000000000000000000000000000000000000000000 PUSH1 0x20 DUP3 ADD MSTORE POP JUMP JUMPDEST PUSH0 PUSH2 0x8C3 PUSH1 0x23 DUP4 PUSH2 0x859 JUMP JUMPDEST SWAP2 POP PUSH2 0x8CE DUP3 PUSH2 0x869 JUMP JUMPDEST PUSH1 0x40 DUP3 ADD SWAP1 POP SWAP2 SWAP1 POP JUMP JUMPDEST PUSH0 PUSH1 0x20 DUP3 ADD SWAP1 POP DUP2 DUP2 SUB PUSH0 DUP4 ADD MSTORE PUSH2 0x8F0 DUP2 PUSH2 0x8B7 JUMP JUMPDEST SWAP1 POP SWAP2 SWAP1 POP JUMP JUMPDEST PUSH0 DUP2 SWAP1 POP SWAP2 SWAP1 POP JUMP JUMPDEST PUSH32 0x4E487B7100000000000000000000000000000000000000000000000000000000 PUSH0 MSTORE PUSH1 0x12 PUSH1 0x4 MSTORE PUSH1 0x24 PUSH0 REVERT JUMPDEST PUSH0 PUSH2 0x937 DUP3 PUSH2 0x8F7 JUMP JUMPDEST SWAP2 POP PUSH2 0x942 DUP4 PUSH2 0x8F7 JUMP JUMPDEST SWAP3 POP DUP3 PUSH2 0x952 JUMPI PUSH2 0x951 PUSH2 0x900 JUMP JUMPDEST JUMPDEST DUP3 DUP3 MOD SWAP1 POP SWAP3 SWAP2 POP POP JUMP JUMPDEST PUSH32 0x456C206D6F6E746F206465626520736572206D756C7469706C6F206465203130 PUSH0 DUP3 ADD MSTORE PUSH32 0x3020776569000000000000000000000000000000000000000000000000000000 PUSH1 0x20 DUP3 ADD MSTORE POP JUMP JUMPDEST PUSH0 PUSH2 0x9B7 PUSH1 0x25 DUP4 PUSH2 0x859 JUMP JUMPDEST SWAP2 POP PUSH2 0x9C2 DUP3 PUSH2 0x95D JUMP JUMPDEST PUSH1 0x40 DUP3 ADD SWAP1 POP SWAP2 SWAP1 POP JUMP JUMPDEST PUSH0 PUSH1 0x20 DUP3 ADD SWAP1 POP DUP2 DUP2 SUB PUSH0 DUP4 ADD MSTORE PUSH2 0x9E4 DUP2 PUSH2 0x9AB JUMP JUMPDEST SWAP1 POP SWAP2 SWAP1 POP JUMP JUMPDEST PUSH0 PUSH20 0xFFFFFFFFFFFFFFFFFFFFFFFFFFFFFFFFFFFFFFFF DUP3 AND SWAP1 POP SWAP2 SWAP1 POP JUMP JUMPDEST PUSH0 PUSH2 0xA14 DUP3 PUSH2 0x9EB JUMP JUMPDEST SWAP1 POP SWAP2 SWAP1 POP JUMP JUMPDEST PUSH2 0xA24 DUP2 PUSH2 0xA0A JUMP JUMPDEST DUP3 MSTORE POP POP JUMP JUMPDEST PUSH2 0xA33 DUP2 PUSH2 0x8F7 JUMP JUMPDEST DUP3 MSTORE POP POP JUMP JUMPDEST PUSH0 PUSH1 0x40 DUP3 ADD SWAP1 POP PUSH2 0xA4C PUSH0 DUP4 ADD DUP6 PUSH2 0xA1B JUMP JUMPDEST PUSH2 0xA59 PUSH1 0x20 DUP4 ADD DUP5 PUSH2 0xA2A JUMP JUMPDEST SWAP4 SWAP3 POP POP POP JUMP JUMPDEST PUSH0 DUP2 MLOAD SWAP1 POP SWAP2 SWAP1 POP JUMP JUMPDEST PUSH0 DUP3 DUP3 MSTORE PUSH1 0x20 DUP3 ADD SWAP1 POP SWAP3 SWAP2 POP POP JUMP JUMPDEST PUSH0 DUP2 SWAP1 POP PUSH1 0x20 DUP3 ADD SWAP1 POP SWAP2 SWAP1 POP JUMP JUMPDEST PUSH0 PUSH2 0xA93 DUP3 PUSH2 0x9EB JUMP JUMPDEST SWAP1 POP SWAP2 SWAP1 POP JUMP JUMPDEST PUSH2 0xAA3 DUP2 PUSH2 0xA89 JUMP JUMPDEST DUP3 MSTORE POP POP JUMP JUMPDEST PUSH2 0xAB2 DUP2 PUSH2 0x8F7 JUMP JUMPDEST DUP3 MSTORE POP POP JUMP JUMPDEST PUSH1 0x40 DUP3 ADD PUSH0 DUP3 ADD MLOAD PUSH2 0xACC PUSH0 DUP6 ADD DUP3 PUSH2 0xA9A JUMP JUMPDEST POP PUSH1 0x20 DUP3 ADD MLOAD PUSH2 0xADF PUSH1 0x20 DUP6 ADD DUP3 PUSH2 0xAA9 JUMP JUMPDEST POP POP POP POP JUMP JUMPDEST PUSH0 PUSH2 0xAF0 DUP4 DUP4 PUSH2 0xAB8 JUMP JUMPDEST PUSH1 0x40 DUP4 ADD SWAP1 POP SWAP3 SWAP2 POP POP JUMP JUMPDEST PUSH0 PUSH1 0x20 DUP3 ADD SWAP1 POP SWAP2 SWAP1 POP JUMP JUMPDEST PUSH0 PUSH2 0xB12 DUP3 PUSH2 0xA60 JUMP JUMPDEST PUSH2 0xB1C DUP2 DUP6 PUSH2 0xA6A JUMP JUMPDEST SWAP4 POP PUSH2 0xB27 DUP4 PUSH2 0xA7A JUMP JUMPDEST DUP1 PUSH0 JUMPDEST DUP4 DUP2 LT ISZERO PUSH2 0xB57 JUMPI DUP2 MLOAD PUSH2 0xB3E DUP9 DUP3 PUSH2 0xAE5 JUMP JUMPDEST SWAP8 POP PUSH2 0xB49 DUP4 PUSH2 0xAFC JUMP JUMPDEST SWAP3 POP POP PUSH1 0x1 DUP2 ADD SWAP1 POP PUSH2 0xB2A JUMP JUMPDEST POP DUP6 SWAP4 POP POP POP POP SWAP3 SWAP2 POP POP JUMP JUMPDEST PUSH0 PUSH1 0x20 DUP3 ADD SWAP1 POP DUP2 DUP2 SUB PUSH0 DUP4 ADD MSTORE PUSH2 0xB7C DUP2 DUP5 PUSH2 0xB08 JUMP JUMPDEST SWAP1 POP SWAP3 SWAP2 POP POP JUMP JUMPDEST PUSH1 0x40 DUP3 ADD PUSH0 DUP3 ADD MLOAD PUSH2 0xB98 PUSH0 DUP6 ADD DUP3 PUSH2 0xA9A JUMP JUMPDEST POP PUSH1 0x20 DUP3 ADD MLOAD PUSH2 0xBAB PUSH1 0x20 DUP6 ADD DUP3 PUSH2 0xAA9 JUMP JUMPDEST POP POP POP POP JUMP JUMPDEST PUSH0 PUSH1 0x40 DUP3 ADD SWAP1 POP PUSH2 0xBC4 PUSH0 DUP4 ADD DUP5 PUSH2 0xB84 JUMP JUMPDEST SWAP3 SWAP2 POP POP JUMP JUMPDEST PUSH2 0xBD3 DUP2 PUSH2 0xA89 JUMP JUMPDEST DUP3 MSTORE POP POP JUMP JUMPDEST PUSH0 PUSH1 0x40 DUP3 ADD SWAP1 POP PUSH2 0xBEC PUSH0 DUP4 ADD DUP6 PUSH2 0xBCA JUMP JUMPDEST PUSH2 0xBF9 PUSH1 0x20 DUP4 ADD DUP5 PUSH2 0xA2A JUMP JUMPDEST SWAP4 SWAP3 POP POP POP JUMP JUMPDEST PUSH0 DUP1 REVERT JUMPDEST PUSH2 0xC0D DUP2 PUSH2 0x8F7 JUMP JUMPDEST DUP2 EQ PUSH2 0xC17 JUMPI PUSH0 DUP1 REVERT JUMPDEST POP JUMP JUMPDEST PUSH0 DUP2 CALLDATALOAD SWAP1 POP PUSH2 0xC28 DUP2 PUSH2 0xC04 JUMP JUMPDEST SWAP3 SWAP2 POP POP JUMP JUMPDEST PUSH0 PUSH1 0x20 DUP3 DUP5 SUB SLT ISZERO PUSH2 0xC43 JUMPI PUSH2 0xC42 PUSH2 0xC00 JUMP JUMPDEST JUMPDEST PUSH0 PUSH2 0xC50 DUP5 DUP3 DUP6 ADD PUSH2 0xC1A JUMP JUMPDEST SWAP2 POP POP SWAP3 SWAP2 POP POP JUMP JUMPDEST PUSH32 0x6E6F206572657320656C206F776E657200000000000000000000000000000000 PUSH0 DUP3 ADD MSTORE POP JUMP JUMPDEST PUSH0 PUSH2 0xC8D PUSH1 0x10 DUP4 PUSH2 0x859 JUMP JUMPDEST SWAP2 POP PUSH2 0xC98 DUP3 PUSH2 0xC59 JUMP JUMPDEST PUSH1 0x20 DUP3 ADD SWAP1 POP SWAP2 SWAP1 POP JUMP JUMPDEST PUSH0 PUSH1 0x20 DUP3 ADD SWAP1 POP DUP2 DUP2 SUB PUSH0 DUP4 ADD MSTORE PUSH2 0xCBA DUP2 PUSH2 0xC81 JUMP JUMPDEST SWAP1 POP SWAP2 SWAP1 POP JUMP JUMPDEST PUSH32 0x66616C6C6F20656C20656E76696F000000000000000000000000000000000000 PUSH0 DUP3 ADD MSTORE POP JUMP JUMPDEST PUSH0 PUSH2 0xCF5 PUSH1 0xE DUP4 PUSH2 0x859 JUMP JUMPDEST SWAP2 POP PUSH2 0xD00 DUP3 PUSH2 0xCC1 JUMP JUMPDEST PUSH1 0x20 DUP3 ADD SWAP1 POP SWAP2 SWAP1 POP JUMP JUMPDEST PUSH0 PUSH1 0x20 DUP3 ADD SWAP1 POP DUP2 DUP2 SUB PUSH0 DUP4 ADD MSTORE PUSH2 0xD22 DUP2 PUSH2 0xCE9 JUMP JUMPDEST SWAP1 POP SWAP2 SWAP1 POP JUMP JUMPDEST PUSH0 DUP2 SWAP1 POP SWAP2 SWAP1 POP JUMP JUMPDEST PUSH0 PUSH2 0xD4C PUSH2 0xD47 PUSH2 0xD42 DUP5 PUSH2 0x9EB JUMP JUMPDEST PUSH2 0xD29 JUMP JUMPDEST PUSH2 0x9EB JUMP JUMPDEST SWAP1 POP SWAP2 SWAP1 POP JUMP JUMPDEST PUSH0 PUSH2 0xD5D DUP3 PUSH2 0xD32 JUMP JUMPDEST SWAP1 POP SWAP2 SWAP1 POP JUMP JUMPDEST PUSH0 PUSH2 0xD6E DUP3 PUSH2 0xD53 JUMP JUMPDEST SWAP1 POP SWAP2 SWAP1 POP JUMP JUMPDEST PUSH2 0xD7E DUP2 PUSH2 0xD64 JUMP JUMPDEST DUP3 MSTORE POP POP JUMP JUMPDEST PUSH0 PUSH1 0x40 DUP3 ADD SWAP1 POP PUSH2 0xD97 PUSH0 DUP4 ADD DUP6 PUSH2 0xD75 JUMP JUMPDEST PUSH2 0xDA4 PUSH1 0x20 DUP4 ADD DUP5 PUSH2 0xA2A JUMP JUMPDEST SWAP4 SWAP3 POP POP POP JUMP JUMPDEST PUSH32 0x4E487B7100000000000000000000000000000000000000000000000000000000 PUSH0 MSTORE PUSH1 0x32 PUSH1 0x4 MSTORE PUSH1 0x24 PUSH0 REVERT JUMPDEST PUSH32 0x4E487B7100000000000000000000000000000000000000000000000000000000 PUSH0 MSTORE PUSH1 0x11 PUSH1 0x4 MSTORE PUSH1 0x24 PUSH0 REVERT JUMPDEST PUSH0 PUSH2 0xE0F DUP3 PUSH2 0x8F7 JUMP JUMPDEST SWAP2 POP PUSH2 0xE1A DUP4 PUSH2 0x8F7 JUMP JUMPDEST SWAP3 POP DUP3 DUP3 MUL PUSH2 0xE28 DUP2 PUSH2 0x8F7 JUMP JUMPDEST SWAP2 POP DUP3 DUP3 DIV DUP5 EQ DUP4 ISZERO OR PUSH2 0xE3F JUMPI PUSH2 0xE3E PUSH2 0xDD8 JUMP JUMPDEST JUMPDEST POP SWAP3 SWAP2 POP POP JUMP JUMPDEST PUSH0 PUSH2 0xE50 DUP3 PUSH2 0x8F7 JUMP JUMPDEST SWAP2 POP PUSH2 0xE5B DUP4 PUSH2 0x8F7 JUMP JUMPDEST SWAP3 POP DUP3 PUSH2 0xE6B JUMPI PUSH2 0xE6A PUSH2 0x900 JUMP JUMPDEST JUMPDEST DUP3 DUP3 DIV SWAP1 POP SWAP3 SWAP2 POP POP JUMP INVALID LOG2 PUSH5 0x6970667358 0x22 SLT KECCAK256 0xF 0xD SGT PUSH12 0x4DB3CB9FCA3A32037829C331 0xEB DUP1 MSTORE 0xEB PUSH13 0x80CE02B5229E5D8EFAF2F06473 PUSH16 0x6C634300081A00330000000000000000 "
				},
				"gasEstimates": {
					"creation": {
						"codeDepositCost": "751200",
						"executionCost": "71414",
						"totalCost": "822614"
					},
					"external": {
						"GetApostadores()": "infinite",
						"GetMayorApostador()": "infinite",
						"listaApostadores(uint256)": "infinite",
						"mayorApostador()": "4776",
						"transferEtherOwner()": "infinite"
					},
					"internal": {
						"devolverApuestas()": "infinite"
					}
				},
				"methodIdentifiers": {
					"GetApostadores()": "30426583",
					"GetMayorApostador()": "b9ed4264",
					"listaApostadores(uint256)": "d6df17fa",
					"mayorApostador()": "bbfb7ce0",
					"transferEtherOwner()": "88aa112b"
				}
			},
			"storageLayout": {
				"storage": [
					{
						"astId": 15,
						"contract": "subasta.sol:subasta",
						"label": "owner",
						"offset": 0,
						"slot": "0",
						"type": "t_address"
					},
					{
						"astId": 24,
						"contract": "subasta.sol:subasta",
						"label": "listaApostadores",
						"offset": 0,
						"slot": "1",
						"type": "t_array(t_struct(Person)20_storage)dyn_storage"
					},
					{
						"astId": 27,
						"contract": "subasta.sol:subasta",
						"label": "mayorApostador",
						"offset": 0,
						"slot": "2",
						"type": "t_struct(Person)20_storage"
					}
				],
				"types": {
					"t_address": {
						"encoding": "inplace",
						"label": "address",
						"numberOfBytes": "20"
					},
					"t_address_payable": {
						"encoding": "inplace",
						"label": "address payable",
						"numberOfBytes": "20"
					},
					"t_array(t_struct(Person)20_storage)dyn_storage": {
						"base": "t_struct(Person)20_storage",
						"encoding": "dynamic_array",
						"label": "struct subasta.Person[]",
						"numberOfBytes": "32"
					},
					"t_struct(Person)20_storage": {
						"encoding": "inplace",
						"label": "struct subasta.Person",
						"members": [
							{
								"astId": 17,
								"contract": "subasta.sol:subasta",
								"label": "direccion",
								"offset": 0,
								"slot": "0",
								"type": "t_address_payable"
							},
							{
								"astId": 19,
								"contract": "subasta.sol:subasta",
								"label": "apuesta",
								"offset": 0,
								"slot": "1",
								"type": "t_uint256"
							}
						],
						"numberOfBytes": "64"
					},
					"t_uint256": {
						"encoding": "inplace",
						"label": "uint256",
						"numberOfBytes": "32"
					}
				}
			},
			"userdoc": {
				"kind": "user",
				"methods": {},
				"version": 1
			}
		}
	}
}