{
	"subasta.sol": {
		"subasta": {
			"abi": [
				{
					"inputs": [],
					"stateMutability": "payable",
					"type": "constructor"
				},
				{
					"inputs": [],
					"name": "GetApostadores",
					"outputs": [
						{
							"components": [
								{
									"internalType": "address payable",
									"name": "direccion",
									"type": "address"
								},
								{
									"internalType": "uint256",
									"name": "apuesta",
									"type": "uint256"
								}
							],
							"internalType": "struct subasta.Person[]",
							"name": "",
							"type": "tuple[]"
						}
					],
					"stateMutability": "view",
					"type": "function"
				},
				{
					"inputs": [],
					"name": "GetMayorApostador",
					"outputs": [
						{
							"components": [
								{
									"internalType": "address payable",
									"name": "direccion",
									"type": "address"
								},
								{
									"internalType": "uint256",
									"name": "apuesta",
									"type": "uint256"
								}
							],
							"internalType": "struct subasta.Person",
							"name": "",
							"type": "tuple"
						}
					],
					"stateMutability": "view",
					"type": "function"
				},
				{
					"inputs": [
						{
							"internalType": "uint256",
							"name": "",
							"type": "uint256"
						}
					],
					"name": "listaApostadores",
					"outputs": [
						{
							"internalType": "address payable",
							"name": "direccion",
							"type": "address"
						},
						{
							"internalType": "uint256",
							"name": "apuesta",
							"type": "uint256"
						}
					],
					"stateMutability": "view",
					"type": "function"
				},
				{
					"inputs": [],
					"name": "mayorApostador",
					"outputs": [
						{
							"internalType": "address payable",
							"name": "direccion",
							"type": "address"
						},
						{
							"internalType": "uint256",
							"name": "apuesta",
							"type": "uint256"
						}
					],
					"stateMutability": "view",
					"type": "function"
				},
				{
					"inputs": [],
					"name": "transferEtherOwner",
					"outputs": [],
					"stateMutability": "nonpayable",
					"type": "function"
				},
				{
					"stateMutability": "payable",
					"type": "receive"
				}
			],
			"devdoc": {
				"kind": "dev",
				"methods": {},
				"version": 1
			},
			"evm": {
				"assembly": "    /* \"subasta.sol\":624:2454  contract subasta {... */\n  mstore(0x40, 0x80)\n    /* \"subasta.sol\":878:888  msg.sender */\n  caller\n    /* \"subasta.sol\":872:877  owner */\n  0x00\n  dup1\n    /* \"subasta.sol\":872:888  owner=msg.sender */\n  0x0100\n  exp\n  dup2\n  sload\n  dup2\n  0xffffffffffffffffffffffffffffffffffffffff\n  mul\n  not\n  and\n  swap1\n  dup4\n  0xffffffffffffffffffffffffffffffffffffffff\n  and\n  mul\n  or\n  swap1\n  sstore\n  pop\n    /* \"subasta.sol\":933:943  msg.sender */\n  caller\n    /* \"subasta.sol\":899:913  mayorApostador */\n  0x02\n    /* \"subasta.sol\":899:923  mayorApostador.direccion */\n  0x00\n  add\n  0x00\n    /* \"subasta.sol\":899:944  mayorApostador.direccion= payable(msg.sender) */\n  0x0100\n  exp\n  dup2\n  sload\n  dup2\n  0xffffffffffffffffffffffffffffffffffffffff\n  mul\n  not\n  and\n  swap1\n  dup4\n  0xffffffffffffffffffffffffffffffffffffffff\n  and\n  mul\n  or\n  swap1\n  sstore\n  pop\n    /* \"subasta.sol\":979:988  msg.value */\n  callvalue\n    /* \"subasta.sol\":955:969  mayorApostador */\n  0x02\n    /* \"subasta.sol\":955:977  mayorApostador.apuesta */\n  0x01\n  add\n    /* \"subasta.sol\":955:988  mayorApostador.apuesta= msg.value */\n  dup2\n  swap1\n  sstore\n  pop\n    /* \"subasta.sol\":624:2454  contract subasta {... */\n  dataSize(sub_0)\n  dup1\n  dataOffset(sub_0)\n  0x00\n  codecopy\n  0x00\n  return\nstop\n\nsub_0: assembly {\n        /* \"subasta.sol\":624:2454  contract subasta {... */\n      mstore(0x40, 0x80)\n      jumpi(tag_1, lt(calldatasize, 0x04))\n      shr(0xe0, calldataload(0x00))\n      dup1\n      0x30426583\n      eq\n      tag_3\n      jumpi\n      dup1\n      0x88aa112b\n      eq\n      tag_4\n      jumpi\n      dup1\n      0xb9ed4264\n      eq\n      tag_5\n      jumpi\n      dup1\n      0xbbfb7ce0\n      eq\n      tag_6\n      jumpi\n      dup1\n      0xd6df17fa\n      eq\n      tag_7\n      jumpi\n      jump(tag_2)\n    tag_1:\n      jumpi(tag_2, calldatasize)\n        /* \"subasta.sol\":1448:1457  msg.value */\n      callvalue\n        /* \"subasta.sol\":1425:1439  mayorApostador */\n      0x02\n        /* \"subasta.sol\":1425:1447  mayorApostador.apuesta */\n      0x01\n      add\n      sload\n        /* \"subasta.sol\":1425:1457  mayorApostador.apuesta<msg.value */\n      lt\n        /* \"subasta.sol\":1422:1577  if(mayorApostador.apuesta<msg.value){... */\n      iszero\n      tag_10\n      jumpi\n        /* \"subasta.sol\":1506:1516  msg.sender */\n      caller\n        /* \"subasta.sol\":1473:1487  mayorApostador */\n      0x02\n        /* \"subasta.sol\":1473:1497  mayorApostador.direccion */\n      0x00\n      add\n      0x00\n        /* \"subasta.sol\":1473:1517  mayorApostador.direccion=payable(msg.sender) */\n      0x0100\n      exp\n      dup2\n      sload\n      dup2\n      0xffffffffffffffffffffffffffffffffffffffff\n      mul\n      not\n      and\n      swap1\n      dup4\n      0xffffffffffffffffffffffffffffffffffffffff\n      and\n      mul\n      or\n      swap1\n      sstore\n      pop\n        /* \"subasta.sol\":1556:1565  msg.value */\n      callvalue\n        /* \"subasta.sol\":1532:1546  mayorApostador */\n      0x02\n        /* \"subasta.sol\":1532:1554  mayorApostador.apuesta */\n      0x01\n      add\n        /* \"subasta.sol\":1532:1565  mayorApostador.apuesta= msg.value */\n      dup2\n      swap1\n      sstore\n      pop\n        /* \"subasta.sol\":1422:1577  if(mayorApostador.apuesta<msg.value){... */\n    tag_10:\n        /* \"subasta.sol\":624:2454  contract subasta {... */\n      stop\n    tag_2:\n      0x00\n      dup1\n      revert\n        /* \"subasta.sol\":1951:2069  function GetApostadores() external view returns (Person[] memory) {... */\n    tag_3:\n      callvalue\n      dup1\n      iszero\n      tag_11\n      jumpi\n      0x00\n      dup1\n      revert\n    tag_11:\n      pop\n      tag_12\n      tag_13\n      jump\t// in\n    tag_12:\n      mload(0x40)\n      tag_14\n      swap2\n      swap1\n      tag_15\n      jump\t// in\n    tag_14:\n      mload(0x40)\n      dup1\n      swap2\n      sub\n      swap1\n      return\n        /* \"subasta.sol\":1104:1376  function transferEtherOwner() external onlyOwner {... */\n    tag_4:\n      callvalue\n      dup1\n      iszero\n      tag_16\n      jumpi\n      0x00\n      dup1\n      revert\n    tag_16:\n      pop\n      tag_17\n      tag_18\n      jump\t// in\n    tag_17:\n      stop\n        /* \"subasta.sol\":1593:1940  function GetMayorApostador() external view returns (Person memory) {... */\n    tag_5:\n      callvalue\n      dup1\n      iszero\n      tag_19\n      jumpi\n      0x00\n      dup1\n      revert\n    tag_19:\n      pop\n      tag_20\n      tag_21\n      jump\t// in\n    tag_20:\n      mload(0x40)\n      tag_22\n      swap2\n      swap1\n      tag_23\n      jump\t// in\n    tag_22:\n      mload(0x40)\n      dup1\n      swap2\n      sub\n      swap1\n      return\n        /* \"subasta.sol\":804:832  Person public mayorApostador */\n    tag_6:\n      callvalue\n      dup1\n      iszero\n      tag_24\n      jumpi\n      0x00\n      dup1\n      revert\n    tag_24:\n      pop\n      tag_25\n      tag_26\n      jump\t// in\n    tag_25:\n      mload(0x40)\n      tag_27\n      swap3\n      swap2\n      swap1\n      tag_28\n      jump\t// in\n    tag_27:\n      mload(0x40)\n      dup1\n      swap2\n      sub\n      swap1\n      return\n        /* \"subasta.sol\":765:797  Person[] public listaApostadores */\n    tag_7:\n      callvalue\n      dup1\n      iszero\n      tag_29\n      jumpi\n      0x00\n      dup1\n      revert\n    tag_29:\n      pop\n      tag_30\n      0x04\n      dup1\n      calldatasize\n      sub\n      dup2\n      add\n      swap1\n      tag_31\n      swap2\n      swap1\n      tag_32\n      jump\t// in\n    tag_31:\n      tag_33\n      jump\t// in\n    tag_30:\n      mload(0x40)\n      tag_34\n      swap3\n      swap2\n      swap1\n      tag_28\n      jump\t// in\n    tag_34:\n      mload(0x40)\n      dup1\n      swap2\n      sub\n      swap1\n      return\n        /* \"subasta.sol\":1951:2069  function GetApostadores() external view returns (Person[] memory) {... */\n    tag_13:\n        /* \"subasta.sol\":2000:2015  Person[] memory */\n      0x60\n        /* \"subasta.sol\":2045:2061  listaApostadores */\n      0x01\n        /* \"subasta.sol\":2038:2061  return listaApostadores */\n      dup1\n      sload\n      dup1\n      0x20\n      mul\n      0x20\n      add\n      mload(0x40)\n      swap1\n      dup2\n      add\n      0x40\n      mstore\n      dup1\n      swap3\n      swap2\n      swap1\n      dup2\n      dup2\n      mstore\n      0x20\n      add\n      0x00\n      swap1\n    tag_36:\n      dup3\n      dup3\n      lt\n      iszero\n      tag_37\n      jumpi\n      dup4\n      dup3\n      swap1\n      0x00\n      mstore\n      keccak256(0x00, 0x20)\n      swap1\n      0x02\n      mul\n      add\n      mload(0x40)\n      dup1\n      0x40\n      add\n      0x40\n      mstore\n      swap1\n      dup2\n      0x00\n      dup3\n      add\n      0x00\n      swap1\n      sload\n      swap1\n      0x0100\n      exp\n      swap1\n      div\n      0xffffffffffffffffffffffffffffffffffffffff\n      and\n      0xffffffffffffffffffffffffffffffffffffffff\n      and\n      0xffffffffffffffffffffffffffffffffffffffff\n      and\n      dup2\n      mstore\n      0x20\n      add\n      0x01\n      dup3\n      add\n      sload\n      dup2\n      mstore\n      pop\n      pop\n      dup2\n      mstore\n      0x20\n      add\n      swap1\n      0x01\n      add\n      swap1\n      jump(tag_36)\n    tag_37:\n      pop\n      pop\n      pop\n      pop\n      swap1\n      pop\n        /* \"subasta.sol\":1951:2069  function GetApostadores() external view returns (Person[] memory) {... */\n      swap1\n      jump\t// out\n        /* \"subasta.sol\":1104:1376  function transferEtherOwner() external onlyOwner {... */\n    tag_18:\n        /* \"subasta.sol\":1048:1058  msg.sender */\n      caller\n        /* \"subasta.sol\":1041:1058  owner==msg.sender */\n      0xffffffffffffffffffffffffffffffffffffffff\n      and\n        /* \"subasta.sol\":1041:1046  owner */\n      0x00\n      dup1\n      sload\n      swap1\n      0x0100\n      exp\n      swap1\n      div\n      0xffffffffffffffffffffffffffffffffffffffff\n      and\n        /* \"subasta.sol\":1041:1058  owner==msg.sender */\n      0xffffffffffffffffffffffffffffffffffffffff\n      and\n      eq\n        /* \"subasta.sol\":1033:1078  require(owner==msg.sender,\"no eres el owner\") */\n      tag_40\n      jumpi\n      mload(0x40)\n      0x08c379a000000000000000000000000000000000000000000000000000000000\n      dup2\n      mstore\n      0x04\n      add\n      tag_41\n      swap1\n      tag_42\n      jump\t// in\n    tag_41:\n      mload(0x40)\n      dup1\n      swap2\n      sub\n      swap1\n      revert\n    tag_40:\n        /* \"subasta.sol\":1164:1183  address payable _to */\n      0x00\n        /* \"subasta.sol\":1209:1219  msg.sender */\n      caller\n        /* \"subasta.sol\":1194:1220  _to = payable (msg.sender) */\n      swap1\n      pop\n        /* \"subasta.sol\":1271:1276  false */\n      0x00\n        /* \"subasta.sol\":1235:1276  _to.send(mayorApostador.apuesta) == false */\n      iszero\n      iszero\n        /* \"subasta.sol\":1235:1238  _to */\n      dup2\n        /* \"subasta.sol\":1235:1243  _to.send */\n      0xffffffffffffffffffffffffffffffffffffffff\n      and\n        /* \"subasta.sol\":1235:1267  _to.send(mayorApostador.apuesta) */\n      0x08fc\n        /* \"subasta.sol\":1244:1258  mayorApostador */\n      0x02\n        /* \"subasta.sol\":1244:1266  mayorApostador.apuesta */\n      0x01\n      add\n      sload\n        /* \"subasta.sol\":1235:1267  _to.send(mayorApostador.apuesta) */\n      swap1\n      dup2\n      iszero\n      mul\n      swap1\n      mload(0x40)\n      0x00\n      mload(0x40)\n      dup1\n      dup4\n      sub\n      dup2\n      dup6\n      dup9\n      dup9\n      call\n      swap4\n      pop\n      pop\n      pop\n      pop\n        /* \"subasta.sol\":1235:1276  _to.send(mayorApostador.apuesta) == false */\n      iszero\n      iszero\n      sub\n        /* \"subasta.sol\":1231:1329  if( _to.send(mayorApostador.apuesta) == false ){... */\n      tag_45\n      jumpi\n        /* \"subasta.sol\":1293:1317  revert(\"fallo el envio\") */\n      mload(0x40)\n      0x08c379a000000000000000000000000000000000000000000000000000000000\n      dup2\n      mstore\n      0x04\n      add\n      tag_46\n      swap1\n      tag_47\n      jump\t// in\n    tag_46:\n      mload(0x40)\n      dup1\n      swap2\n      sub\n      swap1\n      revert\n        /* \"subasta.sol\":1231:1329  if( _to.send(mayorApostador.apuesta) == false ){... */\n    tag_45:\n        /* \"subasta.sol\":1340:1358  devolverApuestas() */\n      tag_48\n        /* \"subasta.sol\":1340:1356  devolverApuestas */\n      tag_49\n        /* \"subasta.sol\":1340:1358  devolverApuestas() */\n      jump\t// in\n    tag_48:\n        /* \"subasta.sol\":1153:1376  {... */\n      pop\n        /* \"subasta.sol\":1104:1376  function transferEtherOwner() external onlyOwner {... */\n      jump\t// out\n        /* \"subasta.sol\":1593:1940  function GetMayorApostador() external view returns (Person memory) {... */\n    tag_21:\n        /* \"subasta.sol\":1645:1658  Person memory */\n      tag_50\n      tag_51\n      jump\t// in\n    tag_50:\n        /* \"subasta.sol\":1681:1702  Person memory persona */\n      tag_53\n      tag_51\n      jump\t// in\n    tag_53:\n        /* \"subasta.sol\":1718:1724  uint i */\n      0x00\n        /* \"subasta.sol\":1713:1908  for (uint i = 0; i < listaApostadores.length; i++) ... */\n    tag_54:\n        /* \"subasta.sol\":1734:1750  listaApostadores */\n      0x01\n        /* \"subasta.sol\":1734:1757  listaApostadores.length */\n      dup1\n      sload\n      swap1\n      pop\n        /* \"subasta.sol\":1730:1731  i */\n      dup2\n        /* \"subasta.sol\":1730:1757  i < listaApostadores.length */\n      lt\n        /* \"subasta.sol\":1713:1908  for (uint i = 0; i < listaApostadores.length; i++) ... */\n      iszero\n      tag_55\n      jumpi\n        /* \"subasta.sol\":1808:1824  listaApostadores */\n      0x01\n        /* \"subasta.sol\":1825:1826  i */\n      dup2\n        /* \"subasta.sol\":1808:1827  listaApostadores[i] */\n      dup2\n      sload\n      dup2\n      lt\n      tag_57\n      jumpi\n      tag_58\n      tag_59\n      jump\t// in\n    tag_58:\n    tag_57:\n      swap1\n      0x00\n      mstore\n      keccak256(0x00, 0x20)\n      swap1\n      0x02\n      mul\n      add\n        /* \"subasta.sol\":1808:1835  listaApostadores[i].apuesta */\n      0x01\n      add\n      sload\n        /* \"subasta.sol\":1792:1799  persona */\n      dup3\n        /* \"subasta.sol\":1792:1807  persona.apuesta */\n      0x20\n      add\n      mload\n        /* \"subasta.sol\":1792:1835  persona.apuesta<listaApostadores[i].apuesta */\n      lt\n        /* \"subasta.sol\":1788:1897  if (persona.apuesta<listaApostadores[i].apuesta){... */\n      iszero\n      tag_61\n      jumpi\n        /* \"subasta.sol\":1863:1879  listaApostadores */\n      0x01\n        /* \"subasta.sol\":1880:1881  i */\n      dup2\n        /* \"subasta.sol\":1863:1882  listaApostadores[i] */\n      dup2\n      sload\n      dup2\n      lt\n      tag_62\n      jumpi\n      tag_63\n      tag_59\n      jump\t// in\n    tag_63:\n    tag_62:\n      swap1\n      0x00\n      mstore\n      keccak256(0x00, 0x20)\n      swap1\n      0x02\n      mul\n      add\n        /* \"subasta.sol\":1855:1882  persona=listaApostadores[i] */\n      mload(0x40)\n      dup1\n      0x40\n      add\n      0x40\n      mstore\n      swap1\n      dup2\n      0x00\n      dup3\n      add\n      0x00\n      swap1\n      sload\n      swap1\n      0x0100\n      exp\n      swap1\n      div\n      0xffffffffffffffffffffffffffffffffffffffff\n      and\n      0xffffffffffffffffffffffffffffffffffffffff\n      and\n      0xffffffffffffffffffffffffffffffffffffffff\n      and\n      dup2\n      mstore\n      0x20\n      add\n      0x01\n      dup3\n      add\n      sload\n      dup2\n      mstore\n      pop\n      pop\n      swap2\n      pop\n        /* \"subasta.sol\":1788:1897  if (persona.apuesta<listaApostadores[i].apuesta){... */\n    tag_61:\n        /* \"subasta.sol\":1759:1762  i++ */\n      dup1\n      dup1\n      0x01\n      add\n      swap2\n      pop\n      pop\n        /* \"subasta.sol\":1713:1908  for (uint i = 0; i < listaApostadores.length; i++) ... */\n      jump(tag_54)\n    tag_55:\n      pop\n        /* \"subasta.sol\":1925:1932  persona */\n      dup1\n        /* \"subasta.sol\":1918:1932  return persona */\n      swap2\n      pop\n      pop\n        /* \"subasta.sol\":1593:1940  function GetMayorApostador() external view returns (Person memory) {... */\n      swap1\n      jump\t// out\n        /* \"subasta.sol\":804:832  Person public mayorApostador */\n    tag_26:\n      0x02\n      dup1\n      0x00\n      add\n      0x00\n      swap1\n      sload\n      swap1\n      0x0100\n      exp\n      swap1\n      div\n      0xffffffffffffffffffffffffffffffffffffffff\n      and\n      swap1\n      dup1\n      0x01\n      add\n      sload\n      swap1\n      pop\n      dup3\n      jump\t// out\n        /* \"subasta.sol\":765:797  Person[] public listaApostadores */\n    tag_33:\n      0x01\n      dup2\n      dup2\n      sload\n      dup2\n      lt\n      tag_65\n      jumpi\n      0x00\n      dup1\n      revert\n    tag_65:\n      swap1\n      0x00\n      mstore\n      keccak256(0x00, 0x20)\n      swap1\n      0x02\n      mul\n      add\n      0x00\n      swap2\n      pop\n      swap1\n      pop\n      dup1\n      0x00\n      add\n      0x00\n      swap1\n      sload\n      swap1\n      0x0100\n      exp\n      swap1\n      div\n      0xffffffffffffffffffffffffffffffffffffffff\n      and\n      swap1\n      dup1\n      0x01\n      add\n      sload\n      swap1\n      pop\n      dup3\n      jump\t// out\n        /* \"subasta.sol\":2126:2443  function devolverApuestas() internal onlyOwner{... */\n    tag_49:\n        /* \"subasta.sol\":1048:1058  msg.sender */\n      caller\n        /* \"subasta.sol\":1041:1058  owner==msg.sender */\n      0xffffffffffffffffffffffffffffffffffffffff\n      and\n        /* \"subasta.sol\":1041:1046  owner */\n      0x00\n      dup1\n      sload\n      swap1\n      0x0100\n      exp\n      swap1\n      div\n      0xffffffffffffffffffffffffffffffffffffffff\n      and\n        /* \"subasta.sol\":1041:1058  owner==msg.sender */\n      0xffffffffffffffffffffffffffffffffffffffff\n      and\n      eq\n        /* \"subasta.sol\":1033:1078  require(owner==msg.sender,\"no eres el owner\") */\n      tag_68\n      jumpi\n      mload(0x40)\n      0x08c379a000000000000000000000000000000000000000000000000000000000\n      dup2\n      mstore\n      0x04\n      add\n      tag_69\n      swap1\n      tag_42\n      jump\t// in\n    tag_69:\n      mload(0x40)\n      dup1\n      swap2\n      sub\n      swap1\n      revert\n    tag_68:\n        /* \"subasta.sol\":2206:2212  uint i */\n      0x00\n        /* \"subasta.sol\":2201:2426  for (uint i = 0; i < listaApostadores.length; i++) ... */\n    tag_71:\n        /* \"subasta.sol\":2222:2238  listaApostadores */\n      0x01\n        /* \"subasta.sol\":2222:2245  listaApostadores.length */\n      dup1\n      sload\n      swap1\n      pop\n        /* \"subasta.sol\":2218:2219  i */\n      dup2\n        /* \"subasta.sol\":2218:2245  i < listaApostadores.length */\n      lt\n        /* \"subasta.sol\":2201:2426  for (uint i = 0; i < listaApostadores.length; i++) ... */\n      iszero\n      tag_72\n      jumpi\n        /* \"subasta.sol\":2357:2362  false */\n      0x00\n        /* \"subasta.sol\":2289:2362  listaApostadores[i].direccion.send( listaApostadores[i].apuesta) == false */\n      iszero\n      iszero\n        /* \"subasta.sol\":2289:2305  listaApostadores */\n      0x01\n        /* \"subasta.sol\":2306:2307  i */\n      dup3\n        /* \"subasta.sol\":2289:2308  listaApostadores[i] */\n      dup2\n      sload\n      dup2\n      lt\n      tag_74\n      jumpi\n      tag_75\n      tag_59\n      jump\t// in\n    tag_75:\n    tag_74:\n      swap1\n      0x00\n      mstore\n      keccak256(0x00, 0x20)\n      swap1\n      0x02\n      mul\n      add\n        /* \"subasta.sol\":2289:2318  listaApostadores[i].direccion */\n      0x00\n      add\n      0x00\n      swap1\n      sload\n      swap1\n      0x0100\n      exp\n      swap1\n      div\n      0xffffffffffffffffffffffffffffffffffffffff\n      and\n        /* \"subasta.sol\":2289:2323  listaApostadores[i].direccion.send */\n      0xffffffffffffffffffffffffffffffffffffffff\n      and\n        /* \"subasta.sol\":2289:2353  listaApostadores[i].direccion.send( listaApostadores[i].apuesta) */\n      0x08fc\n        /* \"subasta.sol\":2325:2341  listaApostadores */\n      0x01\n        /* \"subasta.sol\":2342:2343  i */\n      dup5\n        /* \"subasta.sol\":2325:2344  listaApostadores[i] */\n      dup2\n      sload\n      dup2\n      lt\n      tag_77\n      jumpi\n      tag_78\n      tag_59\n      jump\t// in\n    tag_78:\n    tag_77:\n      swap1\n      0x00\n      mstore\n      keccak256(0x00, 0x20)\n      swap1\n      0x02\n      mul\n      add\n        /* \"subasta.sol\":2325:2352  listaApostadores[i].apuesta */\n      0x01\n      add\n      sload\n        /* \"subasta.sol\":2289:2353  listaApostadores[i].direccion.send( listaApostadores[i].apuesta) */\n      swap1\n      dup2\n      iszero\n      mul\n      swap1\n      mload(0x40)\n      0x00\n      mload(0x40)\n      dup1\n      dup4\n      sub\n      dup2\n      dup6\n      dup9\n      dup9\n      call\n      swap4\n      pop\n      pop\n      pop\n      pop\n        /* \"subasta.sol\":2289:2362  listaApostadores[i].direccion.send( listaApostadores[i].apuesta) == false */\n      iszero\n      iszero\n      sub\n        /* \"subasta.sol\":2284:2415  if(  listaApostadores[i].direccion.send( listaApostadores[i].apuesta) == false ){... */\n      tag_81\n      jumpi\n        /* \"subasta.sol\":2379:2403  revert(\"fallo el envio\") */\n      mload(0x40)\n      0x08c379a000000000000000000000000000000000000000000000000000000000\n      dup2\n      mstore\n      0x04\n      add\n      tag_82\n      swap1\n      tag_47\n      jump\t// in\n    tag_82:\n      mload(0x40)\n      dup1\n      swap2\n      sub\n      swap1\n      revert\n        /* \"subasta.sol\":2284:2415  if(  listaApostadores[i].direccion.send( listaApostadores[i].apuesta) == false ){... */\n    tag_81:\n        /* \"subasta.sol\":2247:2250  i++ */\n      dup1\n      dup1\n      0x01\n      add\n      swap2\n      pop\n      pop\n        /* \"subasta.sol\":2201:2426  for (uint i = 0; i < listaApostadores.length; i++) ... */\n      jump(tag_71)\n    tag_72:\n      pop\n        /* \"subasta.sol\":2126:2443  function devolverApuestas() internal onlyOwner{... */\n      jump\t// out\n    tag_51:\n      mload(0x40)\n      dup1\n      0x40\n      add\n      0x40\n      mstore\n      dup1\n      and(0xffffffffffffffffffffffffffffffffffffffff, 0x00)\n      dup2\n      mstore\n      0x20\n      add\n      0x00\n      dup2\n      mstore\n      pop\n      swap1\n      jump\t// out\n        /* \"#utility.yul\":7:142   */\n    tag_83:\n        /* \"#utility.yul\":95:101   */\n      0x00\n        /* \"#utility.yul\":129:134   */\n      dup2\n        /* \"#utility.yul\":123:135   */\n      mload\n        /* \"#utility.yul\":113:135   */\n      swap1\n      pop\n        /* \"#utility.yul\":7:142   */\n      swap2\n      swap1\n      pop\n      jump\t// out\n        /* \"#utility.yul\":148:353   */\n    tag_84:\n        /* \"#utility.yul\":268:279   */\n      0x00\n        /* \"#utility.yul\":302:308   */\n      dup3\n        /* \"#utility.yul\":297:300   */\n      dup3\n        /* \"#utility.yul\":290:309   */\n      mstore\n        /* \"#utility.yul\":342:346   */\n      0x20\n        /* \"#utility.yul\":337:340   */\n      dup3\n        /* \"#utility.yul\":333:347   */\n      add\n        /* \"#utility.yul\":318:347   */\n      swap1\n      pop\n        /* \"#utility.yul\":148:353   */\n      swap3\n      swap2\n      pop\n      pop\n      jump\t// out\n        /* \"#utility.yul\":359:512   */\n    tag_85:\n        /* \"#utility.yul\":447:451   */\n      0x00\n        /* \"#utility.yul\":470:473   */\n      dup2\n        /* \"#utility.yul\":462:473   */\n      swap1\n      pop\n        /* \"#utility.yul\":500:504   */\n      0x20\n        /* \"#utility.yul\":495:498   */\n      dup3\n        /* \"#utility.yul\":491:505   */\n      add\n        /* \"#utility.yul\":483:505   */\n      swap1\n      pop\n        /* \"#utility.yul\":359:512   */\n      swap2\n      swap1\n      pop\n      jump\t// out\n        /* \"#utility.yul\":518:644   */\n    tag_86:\n        /* \"#utility.yul\":555:562   */\n      0x00\n        /* \"#utility.yul\":595:637   */\n      0xffffffffffffffffffffffffffffffffffffffff\n        /* \"#utility.yul\":588:593   */\n      dup3\n        /* \"#utility.yul\":584:638   */\n      and\n        /* \"#utility.yul\":573:638   */\n      swap1\n      pop\n        /* \"#utility.yul\":518:644   */\n      swap2\n      swap1\n      pop\n      jump\t// out\n        /* \"#utility.yul\":650:754   */\n    tag_87:\n        /* \"#utility.yul\":695:702   */\n      0x00\n        /* \"#utility.yul\":724:748   */\n      tag_114\n        /* \"#utility.yul\":742:747   */\n      dup3\n        /* \"#utility.yul\":724:748   */\n      tag_86\n      jump\t// in\n    tag_114:\n        /* \"#utility.yul\":713:748   */\n      swap1\n      pop\n        /* \"#utility.yul\":650:754   */\n      swap2\n      swap1\n      pop\n      jump\t// out\n        /* \"#utility.yul\":760:892   */\n    tag_88:\n        /* \"#utility.yul\":853:885   */\n      tag_116\n        /* \"#utility.yul\":879:884   */\n      dup2\n        /* \"#utility.yul\":853:885   */\n      tag_87\n      jump\t// in\n    tag_116:\n        /* \"#utility.yul\":848:851   */\n      dup3\n        /* \"#utility.yul\":841:886   */\n      mstore\n        /* \"#utility.yul\":760:892   */\n      pop\n      pop\n      jump\t// out\n        /* \"#utility.yul\":898:975   */\n    tag_89:\n        /* \"#utility.yul\":935:942   */\n      0x00\n        /* \"#utility.yul\":964:969   */\n      dup2\n        /* \"#utility.yul\":953:969   */\n      swap1\n      pop\n        /* \"#utility.yul\":898:975   */\n      swap2\n      swap1\n      pop\n      jump\t// out\n        /* \"#utility.yul\":981:1089   */\n    tag_90:\n        /* \"#utility.yul\":1058:1082   */\n      tag_119\n        /* \"#utility.yul\":1076:1081   */\n      dup2\n        /* \"#utility.yul\":1058:1082   */\n      tag_89\n      jump\t// in\n    tag_119:\n        /* \"#utility.yul\":1053:1056   */\n      dup3\n        /* \"#utility.yul\":1046:1083   */\n      mstore\n        /* \"#utility.yul\":981:1089   */\n      pop\n      pop\n      jump\t// out\n        /* \"#utility.yul\":1149:1662   */\n    tag_91:\n        /* \"#utility.yul\":1278:1282   */\n      0x40\n        /* \"#utility.yul\":1273:1276   */\n      dup3\n        /* \"#utility.yul\":1269:1283   */\n      add\n        /* \"#utility.yul\":1370:1374   */\n      0x00\n        /* \"#utility.yul\":1363:1368   */\n      dup3\n        /* \"#utility.yul\":1359:1375   */\n      add\n        /* \"#utility.yul\":1353:1376   */\n      mload\n        /* \"#utility.yul\":1389:1468   */\n      tag_121\n        /* \"#utility.yul\":1462:1466   */\n      0x00\n        /* \"#utility.yul\":1457:1460   */\n      dup6\n        /* \"#utility.yul\":1453:1467   */\n      add\n        /* \"#utility.yul\":1439:1451   */\n      dup3\n        /* \"#utility.yul\":1389:1468   */\n      tag_88\n      jump\t// in\n    tag_121:\n        /* \"#utility.yul\":1293:1478   */\n      pop\n        /* \"#utility.yul\":1563:1567   */\n      0x20\n        /* \"#utility.yul\":1556:1561   */\n      dup3\n        /* \"#utility.yul\":1552:1568   */\n      add\n        /* \"#utility.yul\":1546:1569   */\n      mload\n        /* \"#utility.yul\":1582:1645   */\n      tag_122\n        /* \"#utility.yul\":1639:1643   */\n      0x20\n        /* \"#utility.yul\":1634:1637   */\n      dup6\n        /* \"#utility.yul\":1630:1644   */\n      add\n        /* \"#utility.yul\":1616:1628   */\n      dup3\n        /* \"#utility.yul\":1582:1645   */\n      tag_90\n      jump\t// in\n    tag_122:\n        /* \"#utility.yul\":1488:1655   */\n      pop\n        /* \"#utility.yul\":1247:1662   */\n      pop\n        /* \"#utility.yul\":1149:1662   */\n      pop\n      pop\n      jump\t// out\n        /* \"#utility.yul\":1668:1931   */\n    tag_92:\n        /* \"#utility.yul\":1779:1789   */\n      0x00\n        /* \"#utility.yul\":1800:1888   */\n      tag_124\n        /* \"#utility.yul\":1884:1887   */\n      dup4\n        /* \"#utility.yul\":1876:1882   */\n      dup4\n        /* \"#utility.yul\":1800:1888   */\n      tag_91\n      jump\t// in\n    tag_124:\n        /* \"#utility.yul\":1920:1924   */\n      0x40\n        /* \"#utility.yul\":1915:1918   */\n      dup4\n        /* \"#utility.yul\":1911:1925   */\n      add\n        /* \"#utility.yul\":1897:1925   */\n      swap1\n      pop\n        /* \"#utility.yul\":1668:1931   */\n      swap3\n      swap2\n      pop\n      pop\n      jump\t// out\n        /* \"#utility.yul\":1937:2071   */\n    tag_93:\n        /* \"#utility.yul\":2028:2032   */\n      0x00\n        /* \"#utility.yul\":2060:2064   */\n      0x20\n        /* \"#utility.yul\":2055:2058   */\n      dup3\n        /* \"#utility.yul\":2051:2065   */\n      add\n        /* \"#utility.yul\":2043:2065   */\n      swap1\n      pop\n        /* \"#utility.yul\":1937:2071   */\n      swap2\n      swap1\n      pop\n      jump\t// out\n        /* \"#utility.yul\":2135:3035   */\n    tag_94:\n        /* \"#utility.yul\":2296:2299   */\n      0x00\n        /* \"#utility.yul\":2325:2400   */\n      tag_127\n        /* \"#utility.yul\":2394:2399   */\n      dup3\n        /* \"#utility.yul\":2325:2400   */\n      tag_83\n      jump\t// in\n    tag_127:\n        /* \"#utility.yul\":2416:2523   */\n      tag_128\n        /* \"#utility.yul\":2516:2522   */\n      dup2\n        /* \"#utility.yul\":2511:2514   */\n      dup6\n        /* \"#utility.yul\":2416:2523   */\n      tag_84\n      jump\t// in\n    tag_128:\n        /* \"#utility.yul\":2409:2523   */\n      swap4\n      pop\n        /* \"#utility.yul\":2547:2624   */\n      tag_129\n        /* \"#utility.yul\":2618:2623   */\n      dup4\n        /* \"#utility.yul\":2547:2624   */\n      tag_85\n      jump\t// in\n    tag_129:\n        /* \"#utility.yul\":2647:2654   */\n      dup1\n        /* \"#utility.yul\":2678:2679   */\n      0x00\n        /* \"#utility.yul\":2663:3010   */\n    tag_130:\n        /* \"#utility.yul\":2688:2694   */\n      dup4\n        /* \"#utility.yul\":2685:2686   */\n      dup2\n        /* \"#utility.yul\":2682:2695   */\n      lt\n        /* \"#utility.yul\":2663:3010   */\n      iszero\n      tag_132\n      jumpi\n        /* \"#utility.yul\":2764:2770   */\n      dup2\n        /* \"#utility.yul\":2758:2771   */\n      mload\n        /* \"#utility.yul\":2791:2896   */\n      tag_133\n        /* \"#utility.yul\":2892:2895   */\n      dup9\n        /* \"#utility.yul\":2877:2890   */\n      dup3\n        /* \"#utility.yul\":2791:2896   */\n      tag_92\n      jump\t// in\n    tag_133:\n        /* \"#utility.yul\":2784:2896   */\n      swap8\n      pop\n        /* \"#utility.yul\":2919:3000   */\n      tag_134\n        /* \"#utility.yul\":2993:2999   */\n      dup4\n        /* \"#utility.yul\":2919:3000   */\n      tag_93\n      jump\t// in\n    tag_134:\n        /* \"#utility.yul\":2909:3000   */\n      swap3\n      pop\n        /* \"#utility.yul\":2723:3010   */\n      pop\n        /* \"#utility.yul\":2710:2711   */\n      0x01\n        /* \"#utility.yul\":2707:2708   */\n      dup2\n        /* \"#utility.yul\":2703:2712   */\n      add\n        /* \"#utility.yul\":2698:2712   */\n      swap1\n      pop\n        /* \"#utility.yul\":2663:3010   */\n      jump(tag_130)\n    tag_132:\n        /* \"#utility.yul\":2667:2681   */\n      pop\n        /* \"#utility.yul\":3026:3029   */\n      dup6\n        /* \"#utility.yul\":3019:3029   */\n      swap4\n      pop\n        /* \"#utility.yul\":2301:3035   */\n      pop\n      pop\n      pop\n        /* \"#utility.yul\":2135:3035   */\n      swap3\n      swap2\n      pop\n      pop\n      jump\t// out\n        /* \"#utility.yul\":3041:3498   */\n    tag_15:\n        /* \"#utility.yul\":3226:3230   */\n      0x00\n        /* \"#utility.yul\":3264:3266   */\n      0x20\n        /* \"#utility.yul\":3253:3262   */\n      dup3\n        /* \"#utility.yul\":3249:3267   */\n      add\n        /* \"#utility.yul\":3241:3267   */\n      swap1\n      pop\n        /* \"#utility.yul\":3313:3322   */\n      dup2\n        /* \"#utility.yul\":3307:3311   */\n      dup2\n        /* \"#utility.yul\":3303:3323   */\n      sub\n        /* \"#utility.yul\":3299:3300   */\n      0x00\n        /* \"#utility.yul\":3288:3297   */\n      dup4\n        /* \"#utility.yul\":3284:3301   */\n      add\n        /* \"#utility.yul\":3277:3324   */\n      mstore\n        /* \"#utility.yul\":3341:3491   */\n      tag_136\n        /* \"#utility.yul\":3486:3490   */\n      dup2\n        /* \"#utility.yul\":3477:3483   */\n      dup5\n        /* \"#utility.yul\":3341:3491   */\n      tag_94\n      jump\t// in\n    tag_136:\n        /* \"#utility.yul\":3333:3491   */\n      swap1\n      pop\n        /* \"#utility.yul\":3041:3498   */\n      swap3\n      swap2\n      pop\n      pop\n      jump\t// out\n        /* \"#utility.yul\":3558:4081   */\n    tag_95:\n        /* \"#utility.yul\":3697:3701   */\n      0x40\n        /* \"#utility.yul\":3692:3695   */\n      dup3\n        /* \"#utility.yul\":3688:3702   */\n      add\n        /* \"#utility.yul\":3789:3793   */\n      0x00\n        /* \"#utility.yul\":3782:3787   */\n      dup3\n        /* \"#utility.yul\":3778:3794   */\n      add\n        /* \"#utility.yul\":3772:3795   */\n      mload\n        /* \"#utility.yul\":3808:3887   */\n      tag_138\n        /* \"#utility.yul\":3881:3885   */\n      0x00\n        /* \"#utility.yul\":3876:3879   */\n      dup6\n        /* \"#utility.yul\":3872:3886   */\n      add\n        /* \"#utility.yul\":3858:3870   */\n      dup3\n        /* \"#utility.yul\":3808:3887   */\n      tag_88\n      jump\t// in\n    tag_138:\n        /* \"#utility.yul\":3712:3897   */\n      pop\n        /* \"#utility.yul\":3982:3986   */\n      0x20\n        /* \"#utility.yul\":3975:3980   */\n      dup3\n        /* \"#utility.yul\":3971:3987   */\n      add\n        /* \"#utility.yul\":3965:3988   */\n      mload\n        /* \"#utility.yul\":4001:4064   */\n      tag_139\n        /* \"#utility.yul\":4058:4062   */\n      0x20\n        /* \"#utility.yul\":4053:4056   */\n      dup6\n        /* \"#utility.yul\":4049:4063   */\n      add\n        /* \"#utility.yul\":4035:4047   */\n      dup3\n        /* \"#utility.yul\":4001:4064   */\n      tag_90\n      jump\t// in\n    tag_139:\n        /* \"#utility.yul\":3907:4074   */\n      pop\n        /* \"#utility.yul\":3666:4081   */\n      pop\n        /* \"#utility.yul\":3558:4081   */\n      pop\n      pop\n      jump\t// out\n        /* \"#utility.yul\":4087:4393   */\n    tag_23:\n        /* \"#utility.yul\":4222:4226   */\n      0x00\n        /* \"#utility.yul\":4260:4262   */\n      0x40\n        /* \"#utility.yul\":4249:4258   */\n      dup3\n        /* \"#utility.yul\":4245:4263   */\n      add\n        /* \"#utility.yul\":4237:4263   */\n      swap1\n      pop\n        /* \"#utility.yul\":4273:4386   */\n      tag_141\n        /* \"#utility.yul\":4383:4384   */\n      0x00\n        /* \"#utility.yul\":4372:4381   */\n      dup4\n        /* \"#utility.yul\":4368:4385   */\n      add\n        /* \"#utility.yul\":4359:4365   */\n      dup5\n        /* \"#utility.yul\":4273:4386   */\n      tag_95\n      jump\t// in\n    tag_141:\n        /* \"#utility.yul\":4087:4393   */\n      swap3\n      swap2\n      pop\n      pop\n      jump\t// out\n        /* \"#utility.yul\":4399:4541   */\n    tag_96:\n        /* \"#utility.yul\":4502:4534   */\n      tag_143\n        /* \"#utility.yul\":4528:4533   */\n      dup2\n        /* \"#utility.yul\":4502:4534   */\n      tag_87\n      jump\t// in\n    tag_143:\n        /* \"#utility.yul\":4497:4500   */\n      dup3\n        /* \"#utility.yul\":4490:4535   */\n      mstore\n        /* \"#utility.yul\":4399:4541   */\n      pop\n      pop\n      jump\t// out\n        /* \"#utility.yul\":4547:4665   */\n    tag_97:\n        /* \"#utility.yul\":4634:4658   */\n      tag_145\n        /* \"#utility.yul\":4652:4657   */\n      dup2\n        /* \"#utility.yul\":4634:4658   */\n      tag_89\n      jump\t// in\n    tag_145:\n        /* \"#utility.yul\":4629:4632   */\n      dup3\n        /* \"#utility.yul\":4622:4659   */\n      mstore\n        /* \"#utility.yul\":4547:4665   */\n      pop\n      pop\n      jump\t// out\n        /* \"#utility.yul\":4671:5035   */\n    tag_28:\n        /* \"#utility.yul\":4808:4812   */\n      0x00\n        /* \"#utility.yul\":4846:4848   */\n      0x40\n        /* \"#utility.yul\":4835:4844   */\n      dup3\n        /* \"#utility.yul\":4831:4849   */\n      add\n        /* \"#utility.yul\":4823:4849   */\n      swap1\n      pop\n        /* \"#utility.yul\":4859:4946   */\n      tag_147\n        /* \"#utility.yul\":4943:4944   */\n      0x00\n        /* \"#utility.yul\":4932:4941   */\n      dup4\n        /* \"#utility.yul\":4928:4945   */\n      add\n        /* \"#utility.yul\":4919:4925   */\n      dup6\n        /* \"#utility.yul\":4859:4946   */\n      tag_96\n      jump\t// in\n    tag_147:\n        /* \"#utility.yul\":4956:5028   */\n      tag_148\n        /* \"#utility.yul\":5024:5026   */\n      0x20\n        /* \"#utility.yul\":5013:5022   */\n      dup4\n        /* \"#utility.yul\":5009:5027   */\n      add\n        /* \"#utility.yul\":5000:5006   */\n      dup5\n        /* \"#utility.yul\":4956:5028   */\n      tag_97\n      jump\t// in\n    tag_148:\n        /* \"#utility.yul\":4671:5035   */\n      swap4\n      swap3\n      pop\n      pop\n      pop\n      jump\t// out\n        /* \"#utility.yul\":5122:5239   */\n    tag_99:\n        /* \"#utility.yul\":5231:5232   */\n      0x00\n        /* \"#utility.yul\":5228:5229   */\n      dup1\n        /* \"#utility.yul\":5221:5233   */\n      revert\n        /* \"#utility.yul\":5368:5490   */\n    tag_101:\n        /* \"#utility.yul\":5441:5465   */\n      tag_153\n        /* \"#utility.yul\":5459:5464   */\n      dup2\n        /* \"#utility.yul\":5441:5465   */\n      tag_89\n      jump\t// in\n    tag_153:\n        /* \"#utility.yul\":5434:5439   */\n      dup2\n        /* \"#utility.yul\":5431:5466   */\n      eq\n        /* \"#utility.yul\":5421:5484   */\n      tag_154\n      jumpi\n        /* \"#utility.yul\":5480:5481   */\n      0x00\n        /* \"#utility.yul\":5477:5478   */\n      dup1\n        /* \"#utility.yul\":5470:5482   */\n      revert\n        /* \"#utility.yul\":5421:5484   */\n    tag_154:\n        /* \"#utility.yul\":5368:5490   */\n      pop\n      jump\t// out\n        /* \"#utility.yul\":5496:5635   */\n    tag_102:\n        /* \"#utility.yul\":5542:5547   */\n      0x00\n        /* \"#utility.yul\":5580:5586   */\n      dup2\n        /* \"#utility.yul\":5567:5587   */\n      calldataload\n        /* \"#utility.yul\":5558:5587   */\n      swap1\n      pop\n        /* \"#utility.yul\":5596:5629   */\n      tag_156\n        /* \"#utility.yul\":5623:5628   */\n      dup2\n        /* \"#utility.yul\":5596:5629   */\n      tag_101\n      jump\t// in\n    tag_156:\n        /* \"#utility.yul\":5496:5635   */\n      swap3\n      swap2\n      pop\n      pop\n      jump\t// out\n        /* \"#utility.yul\":5641:5970   */\n    tag_32:\n        /* \"#utility.yul\":5700:5706   */\n      0x00\n        /* \"#utility.yul\":5749:5751   */\n      0x20\n        /* \"#utility.yul\":5737:5746   */\n      dup3\n        /* \"#utility.yul\":5728:5735   */\n      dup5\n        /* \"#utility.yul\":5724:5747   */\n      sub\n        /* \"#utility.yul\":5720:5752   */\n      slt\n        /* \"#utility.yul\":5717:5836   */\n      iszero\n      tag_158\n      jumpi\n        /* \"#utility.yul\":5755:5834   */\n      tag_159\n      tag_99\n      jump\t// in\n    tag_159:\n        /* \"#utility.yul\":5717:5836   */\n    tag_158:\n        /* \"#utility.yul\":5875:5876   */\n      0x00\n        /* \"#utility.yul\":5900:5953   */\n      tag_160\n        /* \"#utility.yul\":5945:5952   */\n      dup5\n        /* \"#utility.yul\":5936:5942   */\n      dup3\n        /* \"#utility.yul\":5925:5934   */\n      dup6\n        /* \"#utility.yul\":5921:5943   */\n      add\n        /* \"#utility.yul\":5900:5953   */\n      tag_102\n      jump\t// in\n    tag_160:\n        /* \"#utility.yul\":5890:5953   */\n      swap2\n      pop\n        /* \"#utility.yul\":5846:5963   */\n      pop\n        /* \"#utility.yul\":5641:5970   */\n      swap3\n      swap2\n      pop\n      pop\n      jump\t// out\n        /* \"#utility.yul\":5976:6145   */\n    tag_103:\n        /* \"#utility.yul\":6060:6071   */\n      0x00\n        /* \"#utility.yul\":6094:6100   */\n      dup3\n        /* \"#utility.yul\":6089:6092   */\n      dup3\n        /* \"#utility.yul\":6082:6101   */\n      mstore\n        /* \"#utility.yul\":6134:6138   */\n      0x20\n        /* \"#utility.yul\":6129:6132   */\n      dup3\n        /* \"#utility.yul\":6125:6139   */\n      add\n        /* \"#utility.yul\":6110:6139   */\n      swap1\n      pop\n        /* \"#utility.yul\":5976:6145   */\n      swap3\n      swap2\n      pop\n      pop\n      jump\t// out\n        /* \"#utility.yul\":6151:6317   */\n    tag_104:\n        /* \"#utility.yul\":6291:6309   */\n      0x6e6f206572657320656c206f776e657200000000000000000000000000000000\n        /* \"#utility.yul\":6287:6288   */\n      0x00\n        /* \"#utility.yul\":6279:6285   */\n      dup3\n        /* \"#utility.yul\":6275:6289   */\n      add\n        /* \"#utility.yul\":6268:6310   */\n      mstore\n        /* \"#utility.yul\":6151:6317   */\n      pop\n      jump\t// out\n        /* \"#utility.yul\":6323:6689   */\n    tag_105:\n        /* \"#utility.yul\":6465:6468   */\n      0x00\n        /* \"#utility.yul\":6486:6553   */\n      tag_164\n        /* \"#utility.yul\":6550:6552   */\n      0x10\n        /* \"#utility.yul\":6545:6548   */\n      dup4\n        /* \"#utility.yul\":6486:6553   */\n      tag_103\n      jump\t// in\n    tag_164:\n        /* \"#utility.yul\":6479:6553   */\n      swap2\n      pop\n        /* \"#utility.yul\":6562:6655   */\n      tag_165\n        /* \"#utility.yul\":6651:6654   */\n      dup3\n        /* \"#utility.yul\":6562:6655   */\n      tag_104\n      jump\t// in\n    tag_165:\n        /* \"#utility.yul\":6680:6682   */\n      0x20\n        /* \"#utility.yul\":6675:6678   */\n      dup3\n        /* \"#utility.yul\":6671:6683   */\n      add\n        /* \"#utility.yul\":6664:6683   */\n      swap1\n      pop\n        /* \"#utility.yul\":6323:6689   */\n      swap2\n      swap1\n      pop\n      jump\t// out\n        /* \"#utility.yul\":6695:7114   */\n    tag_42:\n        /* \"#utility.yul\":6861:6865   */\n      0x00\n        /* \"#utility.yul\":6899:6901   */\n      0x20\n        /* \"#utility.yul\":6888:6897   */\n      dup3\n        /* \"#utility.yul\":6884:6902   */\n      add\n        /* \"#utility.yul\":6876:6902   */\n      swap1\n      pop\n        /* \"#utility.yul\":6948:6957   */\n      dup2\n        /* \"#utility.yul\":6942:6946   */\n      dup2\n        /* \"#utility.yul\":6938:6958   */\n      sub\n        /* \"#utility.yul\":6934:6935   */\n      0x00\n        /* \"#utility.yul\":6923:6932   */\n      dup4\n        /* \"#utility.yul\":6919:6936   */\n      add\n        /* \"#utility.yul\":6912:6959   */\n      mstore\n        /* \"#utility.yul\":6976:7107   */\n      tag_167\n        /* \"#utility.yul\":7102:7106   */\n      dup2\n        /* \"#utility.yul\":6976:7107   */\n      tag_105\n      jump\t// in\n    tag_167:\n        /* \"#utility.yul\":6968:7107   */\n      swap1\n      pop\n        /* \"#utility.yul\":6695:7114   */\n      swap2\n      swap1\n      pop\n      jump\t// out\n        /* \"#utility.yul\":7120:7284   */\n    tag_106:\n        /* \"#utility.yul\":7260:7276   */\n      0x66616c6c6f20656c20656e76696f000000000000000000000000000000000000\n        /* \"#utility.yul\":7256:7257   */\n      0x00\n        /* \"#utility.yul\":7248:7254   */\n      dup3\n        /* \"#utility.yul\":7244:7258   */\n      add\n        /* \"#utility.yul\":7237:7277   */\n      mstore\n        /* \"#utility.yul\":7120:7284   */\n      pop\n      jump\t// out\n        /* \"#utility.yul\":7290:7656   */\n    tag_107:\n        /* \"#utility.yul\":7432:7435   */\n      0x00\n        /* \"#utility.yul\":7453:7520   */\n      tag_170\n        /* \"#utility.yul\":7517:7519   */\n      0x0e\n        /* \"#utility.yul\":7512:7515   */\n      dup4\n        /* \"#utility.yul\":7453:7520   */\n      tag_103\n      jump\t// in\n    tag_170:\n        /* \"#utility.yul\":7446:7520   */\n      swap2\n      pop\n        /* \"#utility.yul\":7529:7622   */\n      tag_171\n        /* \"#utility.yul\":7618:7621   */\n      dup3\n        /* \"#utility.yul\":7529:7622   */\n      tag_106\n      jump\t// in\n    tag_171:\n        /* \"#utility.yul\":7647:7649   */\n      0x20\n        /* \"#utility.yul\":7642:7645   */\n      dup3\n        /* \"#utility.yul\":7638:7650   */\n      add\n        /* \"#utility.yul\":7631:7650   */\n      swap1\n      pop\n        /* \"#utility.yul\":7290:7656   */\n      swap2\n      swap1\n      pop\n      jump\t// out\n        /* \"#utility.yul\":7662:8081   */\n    tag_47:\n        /* \"#utility.yul\":7828:7832   */\n      0x00\n        /* \"#utility.yul\":7866:7868   */\n      0x20\n        /* \"#utility.yul\":7855:7864   */\n      dup3\n        /* \"#utility.yul\":7851:7869   */\n      add\n        /* \"#utility.yul\":7843:7869   */\n      swap1\n      pop\n        /* \"#utility.yul\":7915:7924   */\n      dup2\n        /* \"#utility.yul\":7909:7913   */\n      dup2\n        /* \"#utility.yul\":7905:7925   */\n      sub\n        /* \"#utility.yul\":7901:7902   */\n      0x00\n        /* \"#utility.yul\":7890:7899   */\n      dup4\n        /* \"#utility.yul\":7886:7903   */\n      add\n        /* \"#utility.yul\":7879:7926   */\n      mstore\n        /* \"#utility.yul\":7943:8074   */\n      tag_173\n        /* \"#utility.yul\":8069:8073   */\n      dup2\n        /* \"#utility.yul\":7943:8074   */\n      tag_107\n      jump\t// in\n    tag_173:\n        /* \"#utility.yul\":7935:8074   */\n      swap1\n      pop\n        /* \"#utility.yul\":7662:8081   */\n      swap2\n      swap1\n      pop\n      jump\t// out\n        /* \"#utility.yul\":8087:8267   */\n    tag_59:\n        /* \"#utility.yul\":8135:8212   */\n      0x4e487b7100000000000000000000000000000000000000000000000000000000\n        /* \"#utility.yul\":8132:8133   */\n      0x00\n        /* \"#utility.yul\":8125:8213   */\n      mstore\n        /* \"#utility.yul\":8232:8236   */\n      0x32\n        /* \"#utility.yul\":8229:8230   */\n      0x04\n        /* \"#utility.yul\":8222:8237   */\n      mstore\n        /* \"#utility.yul\":8256:8260   */\n      0x24\n        /* \"#utility.yul\":8253:8254   */\n      0x00\n        /* \"#utility.yul\":8246:8261   */\n      revert\n\n    auxdata: 0xa26469706673582212205b6fd1e989e491f87a04b5573fdb43d070e90ddd917963d82cbb8e3efc79fdb064736f6c634300081a0033\n}\n",
				"bytecode": {
					"linkReferences": {},
					"object": "6080604052335f806101000a81548173ffffffffffffffffffffffffffffffffffffffff021916908373ffffffffffffffffffffffffffffffffffffffff1602179055503360025f015f6101000a81548173ffffffffffffffffffffffffffffffffffffffff021916908373ffffffffffffffffffffffffffffffffffffffff160217905550346002600101819055506109ef8061009c5f395ff3fe60806040526004361061004d575f3560e01c806330426583146100b257806388aa112b146100dc578063b9ed4264146100f2578063bbfb7ce01461011c578063d6df17fa14610147576100ae565b366100ae573460026001015410156100ac573360025f015f6101000a81548173ffffffffffffffffffffffffffffffffffffffff021916908373ffffffffffffffffffffffffffffffffffffffff160217905550346002600101819055505b005b5f80fd5b3480156100bd575f80fd5b506100c6610184565b6040516100d391906107a8565b60405180910390f35b3480156100e7575f80fd5b506100f061023e565b005b3480156100fd575f80fd5b50610106610358565b60405161011391906107f5565b60405180910390f35b348015610127575f80fd5b50610130610447565b60405161013e92919061082c565b60405180910390f35b348015610152575f80fd5b5061016d60048036038101906101689190610881565b610477565b60405161017b92919061082c565b60405180910390f35b60606001805480602002602001604051908101604052809291908181526020015f905b82821015610235578382905f5260205f2090600202016040518060400160405290815f82015f9054906101000a900473ffffffffffffffffffffffffffffffffffffffff1673ffffffffffffffffffffffffffffffffffffffff1673ffffffffffffffffffffffffffffffffffffffff168152602001600182015481525050815260200190600101906101a7565b50505050905090565b3373ffffffffffffffffffffffffffffffffffffffff165f8054906101000a900473ffffffffffffffffffffffffffffffffffffffff1673ffffffffffffffffffffffffffffffffffffffff16146102cb576040517f08c379a00000000000000000000000000000000000000000000000000000000081526004016102c290610906565b60405180910390fd5b5f3390505f15158173ffffffffffffffffffffffffffffffffffffffff166108fc60026001015490811502906040515f60405180830381858888f1935050505015150361034d576040517f08c379a00000000000000000000000000000000000000000000000000000000081526004016103449061096e565b60405180910390fd5b6103556104c5565b50565b61036061064e565b61036861064e565b5f5b60018054905081101561043f576001818154811061038b5761038a61098c565b5b905f5260205f209060020201600101548260200151101561043257600181815481106103ba576103b961098c565b5b905f5260205f2090600202016040518060400160405290815f82015f9054906101000a900473ffffffffffffffffffffffffffffffffffffffff1673ffffffffffffffffffffffffffffffffffffffff1673ffffffffffffffffffffffffffffffffffffffff16815260200160018201548152505091505b808060010191505061036a565b508091505090565b6002805f015f9054906101000a900473ffffffffffffffffffffffffffffffffffffffff16908060010154905082565b60018181548110610486575f80fd5b905f5260205f2090600202015f91509050805f015f9054906101000a900473ffffffffffffffffffffffffffffffffffffffff16908060010154905082565b3373ffffffffffffffffffffffffffffffffffffffff165f8054906101000a900473ffffffffffffffffffffffffffffffffffffffff1673ffffffffffffffffffffffffffffffffffffffff1614610552576040517f08c379a000000000000000000000000000000000000000000000000000000000815260040161054990610906565b60405180910390fd5b5f5b60018054905081101561064b575f1515600182815481106105785761057761098c565b5b905f5260205f2090600202015f015f9054906101000a900473ffffffffffffffffffffffffffffffffffffffff1673ffffffffffffffffffffffffffffffffffffffff166108fc600184815481106105d3576105d261098c565b5b905f5260205f2090600202016001015490811502906040515f60405180830381858888f1935050505015150361063e576040517f08c379a00000000000000000000000000000000000000000000000000000000081526004016106359061096e565b60405180910390fd5b8080600101915050610554565b50565b60405180604001604052805f73ffffffffffffffffffffffffffffffffffffffff1681526020015f81525090565b5f81519050919050565b5f82825260208201905092915050565b5f819050602082019050919050565b5f73ffffffffffffffffffffffffffffffffffffffff82169050919050565b5f6106ce826106a5565b9050919050565b6106de816106c4565b82525050565b5f819050919050565b6106f6816106e4565b82525050565b604082015f8201516107105f8501826106d5565b50602082015161072360208501826106ed565b50505050565b5f61073483836106fc565b60408301905092915050565b5f602082019050919050565b5f6107568261067c565b6107608185610686565b935061076b83610696565b805f5b8381101561079b5781516107828882610729565b975061078d83610740565b92505060018101905061076e565b5085935050505092915050565b5f6020820190508181035f8301526107c0818461074c565b905092915050565b604082015f8201516107dc5f8501826106d5565b5060208201516107ef60208501826106ed565b50505050565b5f6040820190506108085f8301846107c8565b92915050565b610817816106c4565b82525050565b610826816106e4565b82525050565b5f60408201905061083f5f83018561080e565b61084c602083018461081d565b9392505050565b5f80fd5b610860816106e4565b811461086a575f80fd5b50565b5f8135905061087b81610857565b92915050565b5f6020828403121561089657610895610853565b5b5f6108a38482850161086d565b91505092915050565b5f82825260208201905092915050565b7f6e6f206572657320656c206f776e6572000000000000000000000000000000005f82015250565b5f6108f06010836108ac565b91506108fb826108bc565b602082019050919050565b5f6020820190508181035f83015261091d816108e4565b9050919050565b7f66616c6c6f20656c20656e76696f0000000000000000000000000000000000005f82015250565b5f610958600e836108ac565b915061096382610924565b602082019050919050565b5f6020820190508181035f8301526109858161094c565b9050919050565b7f4e487b71000000000000000000000000000000000000000000000000000000005f52603260045260245ffdfea26469706673582212205b6fd1e989e491f87a04b5573fdb43d070e90ddd917963d82cbb8e3efc79fdb064736f6c634300081a0033",
					"opcodes": "PUSH1 0x80 PUSH1 0x40 MSTORE CALLER PUSH0 DUP1 PUSH2 0x100 EXP DUP2 SLOAD DUP2 PUSH20 0xFFFFFFFFFFFFFFFFFFFFFFFFFFFFFFFFFFFFFFFF MUL NOT AND SWAP1 DUP4 PUSH20 0xFFFFFFFFFFFFFFFFFFFFFFFFFFFFFFFFFFFFFFFF AND MUL OR SWAP1 SSTORE POP CALLER PUSH1 0x2 PUSH0 ADD PUSH0 PUSH2 0x100 EXP DUP2 SLOAD DUP2 PUSH20 0xFFFFFFFFFFFFFFFFFFFFFFFFFFFFFFFFFFFFFFFF MUL NOT AND SWAP1 DUP4 PUSH20 0xFFFFFFFFFFFFFFFFFFFFFFFFFFFFFFFFFFFFFFFF AND MUL OR SWAP1 SSTORE POP CALLVALUE PUSH1 0x2 PUSH1 0x1 ADD DUP2 SWAP1 SSTORE POP PUSH2 0x9EF DUP1 PUSH2 0x9C PUSH0 CODECOPY PUSH0 RETURN INVALID PUSH1 0x80 PUSH1 0x40 MSTORE PUSH1 0x4 CALLDATASIZE LT PUSH2 0x4D JUMPI PUSH0 CALLDATALOAD PUSH1 0xE0 SHR DUP1 PUSH4 0x30426583 EQ PUSH2 0xB2 JUMPI DUP1 PUSH4 0x88AA112B EQ PUSH2 0xDC JUMPI DUP1 PUSH4 0xB9ED4264 EQ PUSH2 0xF2 JUMPI DUP1 PUSH4 0xBBFB7CE0 EQ PUSH2 0x11C JUMPI DUP1 PUSH4 0xD6DF17FA EQ PUSH2 0x147 JUMPI PUSH2 0xAE JUMP JUMPDEST CALLDATASIZE PUSH2 0xAE JUMPI CALLVALUE PUSH1 0x2 PUSH1 0x1 ADD SLOAD LT ISZERO PUSH2 0xAC JUMPI CALLER PUSH1 0x2 PUSH0 ADD PUSH0 PUSH2 0x100 EXP DUP2 SLOAD DUP2 PUSH20 0xFFFFFFFFFFFFFFFFFFFFFFFFFFFFFFFFFFFFFFFF MUL NOT AND SWAP1 DUP4 PUSH20 0xFFFFFFFFFFFFFFFFFFFFFFFFFFFFFFFFFFFFFFFF AND MUL OR SWAP1 SSTORE POP CALLVALUE PUSH1 0x2 PUSH1 0x1 ADD DUP2 SWAP1 SSTORE POP JUMPDEST STOP JUMPDEST PUSH0 DUP1 REVERT JUMPDEST CALLVALUE DUP1 ISZERO PUSH2 0xBD JUMPI PUSH0 DUP1 REVERT JUMPDEST POP PUSH2 0xC6 PUSH2 0x184 JUMP JUMPDEST PUSH1 0x40 MLOAD PUSH2 0xD3 SWAP2 SWAP1 PUSH2 0x7A8 JUMP JUMPDEST PUSH1 0x40 MLOAD DUP1 SWAP2 SUB SWAP1 RETURN JUMPDEST CALLVALUE DUP1 ISZERO PUSH2 0xE7 JUMPI PUSH0 DUP1 REVERT JUMPDEST POP PUSH2 0xF0 PUSH2 0x23E JUMP JUMPDEST STOP JUMPDEST CALLVALUE DUP1 ISZERO PUSH2 0xFD JUMPI PUSH0 DUP1 REVERT JUMPDEST POP PUSH2 0x106 PUSH2 0x358 JUMP JUMPDEST PUSH1 0x40 MLOAD PUSH2 0x113 SWAP2 SWAP1 PUSH2 0x7F5 JUMP JUMPDEST PUSH1 0x40 MLOAD DUP1 SWAP2 SUB SWAP1 RETURN JUMPDEST CALLVALUE DUP1 ISZERO PUSH2 0x127 JUMPI PUSH0 DUP1 REVERT JUMPDEST POP PUSH2 0x130 PUSH2 0x447 JUMP JUMPDEST PUSH1 0x40 MLOAD PUSH2 0x13E SWAP3 SWAP2 SWAP1 PUSH2 0x82C JUMP JUMPDEST PUSH1 0x40 MLOAD DUP1 SWAP2 SUB SWAP1 RETURN JUMPDEST CALLVALUE DUP1 ISZERO PUSH2 0x152 JUMPI PUSH0 DUP1 REVERT JUMPDEST POP PUSH2 0x16D PUSH1 0x4 DUP1 CALLDATASIZE SUB DUP2 ADD SWAP1 PUSH2 0x168 SWAP2 SWAP1 PUSH2 0x881 JUMP JUMPDEST PUSH2 0x477 JUMP JUMPDEST PUSH1 0x40 MLOAD PUSH2 0x17B SWAP3 SWAP2 SWAP1 PUSH2 0x82C JUMP JUMPDEST PUSH1 0x40 MLOAD DUP1 SWAP2 SUB SWAP1 RETURN JUMPDEST PUSH1 0x60 PUSH1 0x1 DUP1 SLOAD DUP1 PUSH1 0x20 MUL PUSH1 0x20 ADD PUSH1 0x40 MLOAD SWAP1 DUP2 ADD PUSH1 0x40 MSTORE DUP1 SWAP3 SWAP2 SWAP1 DUP2 DUP2 MSTORE PUSH1 0x20 ADD PUSH0 SWAP1 JUMPDEST DUP3 DUP3 LT ISZERO PUSH2 0x235 JUMPI DUP4 DUP3 SWAP1 PUSH0 MSTORE PUSH1 0x20 PUSH0 KECCAK256 SWAP1 PUSH1 0x2 MUL ADD PUSH1 0x40 MLOAD DUP1 PUSH1 0x40 ADD PUSH1 0x40 MSTORE SWAP1 DUP2 PUSH0 DUP3 ADD PUSH0 SWAP1 SLOAD SWAP1 PUSH2 0x100 EXP SWAP1 DIV PUSH20 0xFFFFFFFFFFFFFFFFFFFFFFFFFFFFFFFFFFFFFFFF AND PUSH20 0xFFFFFFFFFFFFFFFFFFFFFFFFFFFFFFFFFFFFFFFF AND PUSH20 0xFFFFFFFFFFFFFFFFFFFFFFFFFFFFFFFFFFFFFFFF AND DUP2 MSTORE PUSH1 0x20 ADD PUSH1 0x1 DUP3 ADD SLOAD DUP2 MSTORE POP POP DUP2 MSTORE PUSH1 0x20 ADD SWAP1 PUSH1 0x1 ADD SWAP1 PUSH2 0x1A7 JUMP JUMPDEST POP POP POP POP SWAP1 POP SWAP1 JUMP JUMPDEST CALLER PUSH20 0xFFFFFFFFFFFFFFFFFFFFFFFFFFFFFFFFFFFFFFFF AND PUSH0 DUP1 SLOAD SWAP1 PUSH2 0x100 EXP SWAP1 DIV PUSH20 0xFFFFFFFFFFFFFFFFFFFFFFFFFFFFFFFFFFFFFFFF AND PUSH20 0xFFFFFFFFFFFFFFFFFFFFFFFFFFFFFFFFFFFFFFFF AND EQ PUSH2 0x2CB JUMPI PUSH1 0x40 MLOAD PUSH32 0x8C379A000000000000000000000000000000000000000000000000000000000 DUP2 MSTORE PUSH1 0x4 ADD PUSH2 0x2C2 SWAP1 PUSH2 0x906 JUMP JUMPDEST PUSH1 0x40 MLOAD DUP1 SWAP2 SUB SWAP1 REVERT JUMPDEST PUSH0 CALLER SWAP1 POP PUSH0 ISZERO ISZERO DUP2 PUSH20 0xFFFFFFFFFFFFFFFFFFFFFFFFFFFFFFFFFFFFFFFF AND PUSH2 0x8FC PUSH1 0x2 PUSH1 0x1 ADD SLOAD SWAP1 DUP2 ISZERO MUL SWAP1 PUSH1 0x40 MLOAD PUSH0 PUSH1 0x40 MLOAD DUP1 DUP4 SUB DUP2 DUP6 DUP9 DUP9 CALL SWAP4 POP POP POP POP ISZERO ISZERO SUB PUSH2 0x34D JUMPI PUSH1 0x40 MLOAD PUSH32 0x8C379A000000000000000000000000000000000000000000000000000000000 DUP2 MSTORE PUSH1 0x4 ADD PUSH2 0x344 SWAP1 PUSH2 0x96E JUMP JUMPDEST PUSH1 0x40 MLOAD DUP1 SWAP2 SUB SWAP1 REVERT JUMPDEST PUSH2 0x355 PUSH2 0x4C5 JUMP JUMPDEST POP JUMP JUMPDEST PUSH2 0x360 PUSH2 0x64E JUMP JUMPDEST PUSH2 0x368 PUSH2 0x64E JUMP JUMPDEST PUSH0 JUMPDEST PUSH1 0x1 DUP1 SLOAD SWAP1 POP DUP2 LT ISZERO PUSH2 0x43F JUMPI PUSH1 0x1 DUP2 DUP2 SLOAD DUP2 LT PUSH2 0x38B JUMPI PUSH2 0x38A PUSH2 0x98C JUMP JUMPDEST JUMPDEST SWAP1 PUSH0 MSTORE PUSH1 0x20 PUSH0 KECCAK256 SWAP1 PUSH1 0x2 MUL ADD PUSH1 0x1 ADD SLOAD DUP3 PUSH1 0x20 ADD MLOAD LT ISZERO PUSH2 0x432 JUMPI PUSH1 0x1 DUP2 DUP2 SLOAD DUP2 LT PUSH2 0x3BA JUMPI PUSH2 0x3B9 PUSH2 0x98C JUMP JUMPDEST JUMPDEST SWAP1 PUSH0 MSTORE PUSH1 0x20 PUSH0 KECCAK256 SWAP1 PUSH1 0x2 MUL ADD PUSH1 0x40 MLOAD DUP1 PUSH1 0x40 ADD PUSH1 0x40 MSTORE SWAP1 DUP2 PUSH0 DUP3 ADD PUSH0 SWAP1 SLOAD SWAP1 PUSH2 0x100 EXP SWAP1 DIV PUSH20 0xFFFFFFFFFFFFFFFFFFFFFFFFFFFFFFFFFFFFFFFF AND PUSH20 0xFFFFFFFFFFFFFFFFFFFFFFFFFFFFFFFFFFFFFFFF AND PUSH20 0xFFFFFFFFFFFFFFFFFFFFFFFFFFFFFFFFFFFFFFFF AND DUP2 MSTORE PUSH1 0x20 ADD PUSH1 0x1 DUP3 ADD SLOAD DUP2 MSTORE POP POP SWAP2 POP JUMPDEST DUP1 DUP1 PUSH1 0x1 ADD SWAP2 POP POP PUSH2 0x36A JUMP JUMPDEST POP DUP1 SWAP2 POP POP SWAP1 JUMP JUMPDEST PUSH1 0x2 DUP1 PUSH0 ADD PUSH0 SWAP1 SLOAD SWAP1 PUSH2 0x100 EXP SWAP1 DIV PUSH20 0xFFFFFFFFFFFFFFFFFFFFFFFFFFFFFFFFFFFFFFFF AND SWAP1 DUP1 PUSH1 0x1 ADD SLOAD SWAP1 POP DUP3 JUMP JUMPDEST PUSH1 0x1 DUP2 DUP2 SLOAD DUP2 LT PUSH2 0x486 JUMPI PUSH0 DUP1 REVERT JUMPDEST SWAP1 PUSH0 MSTORE PUSH1 0x20 PUSH0 KECCAK256 SWAP1 PUSH1 0x2 MUL ADD PUSH0 SWAP2 POP SWAP1 POP DUP1 PUSH0 ADD PUSH0 SWAP1 SLOAD SWAP1 PUSH2 0x100 EXP SWAP1 DIV PUSH20 0xFFFFFFFFFFFFFFFFFFFFFFFFFFFFFFFFFFFFFFFF AND SWAP1 DUP1 PUSH1 0x1 ADD SLOAD SWAP1 POP DUP3 JUMP JUMPDEST CALLER PUSH20 0xFFFFFFFFFFFFFFFFFFFFFFFFFFFFFFFFFFFFFFFF AND PUSH0 DUP1 SLOAD SWAP1 PUSH2 0x100 EXP SWAP1 DIV PUSH20 0xFFFFFFFFFFFFFFFFFFFFFFFFFFFFFFFFFFFFFFFF AND PUSH20 0xFFFFFFFFFFFFFFFFFFFFFFFFFFFFFFFFFFFFFFFF AND EQ PUSH2 0x552 JUMPI PUSH1 0x40 MLOAD PUSH32 0x8C379A000000000000000000000000000000000000000000000000000000000 DUP2 MSTORE PUSH1 0x4 ADD PUSH2 0x549 SWAP1 PUSH2 0x906 JUMP JUMPDEST PUSH1 0x40 MLOAD DUP1 SWAP2 SUB SWAP1 REVERT JUMPDEST PUSH0 JUMPDEST PUSH1 0x1 DUP1 SLOAD SWAP1 POP DUP2 LT ISZERO PUSH2 0x64B JUMPI PUSH0 ISZERO ISZERO PUSH1 0x1 DUP3 DUP2 SLOAD DUP2 LT PUSH2 0x578 JUMPI PUSH2 0x577 PUSH2 0x98C JUMP JUMPDEST JUMPDEST SWAP1 PUSH0 MSTORE PUSH1 0x20 PUSH0 KECCAK256 SWAP1 PUSH1 0x2 MUL ADD PUSH0 ADD PUSH0 SWAP1 SLOAD SWAP1 PUSH2 0x100 EXP SWAP1 DIV PUSH20 0xFFFFFFFFFFFFFFFFFFFFFFFFFFFFFFFFFFFFFFFF AND PUSH20 0xFFFFFFFFFFFFFFFFFFFFFFFFFFFFFFFFFFFFFFFF AND PUSH2 0x8FC PUSH1 0x1 DUP5 DUP2 SLOAD DUP2 LT PUSH2 0x5D3 JUMPI PUSH2 0x5D2 PUSH2 0x98C JUMP JUMPDEST JUMPDEST SWAP1 PUSH0 MSTORE PUSH1 0x20 PUSH0 KECCAK256 SWAP1 PUSH1 0x2 MUL ADD PUSH1 0x1 ADD SLOAD SWAP1 DUP2 ISZERO MUL SWAP1 PUSH1 0x40 MLOAD PUSH0 PUSH1 0x40 MLOAD DUP1 DUP4 SUB DUP2 DUP6 DUP9 DUP9 CALL SWAP4 POP POP POP POP ISZERO ISZERO SUB PUSH2 0x63E JUMPI PUSH1 0x40 MLOAD PUSH32 0x8C379A000000000000000000000000000000000000000000000000000000000 DUP2 MSTORE PUSH1 0x4 ADD PUSH2 0x635 SWAP1 PUSH2 0x96E JUMP JUMPDEST PUSH1 0x40 MLOAD DUP1 SWAP2 SUB SWAP1 REVERT JUMPDEST DUP1 DUP1 PUSH1 0x1 ADD SWAP2 POP POP PUSH2 0x554 JUMP JUMPDEST POP JUMP JUMPDEST PUSH1 0x40 MLOAD DUP1 PUSH1 0x40 ADD PUSH1 0x40 MSTORE DUP1 PUSH0 PUSH20 0xFFFFFFFFFFFFFFFFFFFFFFFFFFFFFFFFFFFFFFFF AND DUP2 MSTORE PUSH1 0x20 ADD PUSH0 DUP2 MSTORE POP SWAP1 JUMP JUMPDEST PUSH0 DUP2 MLOAD SWAP1 POP SWAP2 SWAP1 POP JUMP JUMPDEST PUSH0 DUP3 DUP3 MSTORE PUSH1 0x20 DUP3 ADD SWAP1 POP SWAP3 SWAP2 POP POP JUMP JUMPDEST PUSH0 DUP2 SWAP1 POP PUSH1 0x20 DUP3 ADD SWAP1 POP SWAP2 SWAP1 POP JUMP JUMPDEST PUSH0 PUSH20 0xFFFFFFFFFFFFFFFFFFFFFFFFFFFFFFFFFFFFFFFF DUP3 AND SWAP1 POP SWAP2 SWAP1 POP JUMP JUMPDEST PUSH0 PUSH2 0x6CE DUP3 PUSH2 0x6A5 JUMP JUMPDEST SWAP1 POP SWAP2 SWAP1 POP JUMP JUMPDEST PUSH2 0x6DE DUP2 PUSH2 0x6C4 JUMP JUMPDEST DUP3 MSTORE POP POP JUMP JUMPDEST PUSH0 DUP2 SWAP1 POP SWAP2 SWAP1 POP JUMP JUMPDEST PUSH2 0x6F6 DUP2 PUSH2 0x6E4 JUMP JUMPDEST DUP3 MSTORE POP POP JUMP JUMPDEST PUSH1 0x40 DUP3 ADD PUSH0 DUP3 ADD MLOAD PUSH2 0x710 PUSH0 DUP6 ADD DUP3 PUSH2 0x6D5 JUMP JUMPDEST POP PUSH1 0x20 DUP3 ADD MLOAD PUSH2 0x723 PUSH1 0x20 DUP6 ADD DUP3 PUSH2 0x6ED JUMP JUMPDEST POP POP POP POP JUMP JUMPDEST PUSH0 PUSH2 0x734 DUP4 DUP4 PUSH2 0x6FC JUMP JUMPDEST PUSH1 0x40 DUP4 ADD SWAP1 POP SWAP3 SWAP2 POP POP JUMP JUMPDEST PUSH0 PUSH1 0x20 DUP3 ADD SWAP1 POP SWAP2 SWAP1 POP JUMP JUMPDEST PUSH0 PUSH2 0x756 DUP3 PUSH2 0x67C JUMP JUMPDEST PUSH2 0x760 DUP2 DUP6 PUSH2 0x686 JUMP JUMPDEST SWAP4 POP PUSH2 0x76B DUP4 PUSH2 0x696 JUMP JUMPDEST DUP1 PUSH0 JUMPDEST DUP4 DUP2 LT ISZERO PUSH2 0x79B JUMPI DUP2 MLOAD PUSH2 0x782 DUP9 DUP3 PUSH2 0x729 JUMP JUMPDEST SWAP8 POP PUSH2 0x78D DUP4 PUSH2 0x740 JUMP JUMPDEST SWAP3 POP POP PUSH1 0x1 DUP2 ADD SWAP1 POP PUSH2 0x76E JUMP JUMPDEST POP DUP6 SWAP4 POP POP POP POP SWAP3 SWAP2 POP POP JUMP JUMPDEST PUSH0 PUSH1 0x20 DUP3 ADD SWAP1 POP DUP2 DUP2 SUB PUSH0 DUP4 ADD MSTORE PUSH2 0x7C0 DUP2 DUP5 PUSH2 0x74C JUMP JUMPDEST SWAP1 POP SWAP3 SWAP2 POP POP JUMP JUMPDEST PUSH1 0x40 DUP3 ADD PUSH0 DUP3 ADD MLOAD PUSH2 0x7DC PUSH0 DUP6 ADD DUP3 PUSH2 0x6D5 JUMP JUMPDEST POP PUSH1 0x20 DUP3 ADD MLOAD PUSH2 0x7EF PUSH1 0x20 DUP6 ADD DUP3 PUSH2 0x6ED JUMP JUMPDEST POP POP POP POP JUMP JUMPDEST PUSH0 PUSH1 0x40 DUP3 ADD SWAP1 POP PUSH2 0x808 PUSH0 DUP4 ADD DUP5 PUSH2 0x7C8 JUMP JUMPDEST SWAP3 SWAP2 POP POP JUMP JUMPDEST PUSH2 0x817 DUP2 PUSH2 0x6C4 JUMP JUMPDEST DUP3 MSTORE POP POP JUMP JUMPDEST PUSH2 0x826 DUP2 PUSH2 0x6E4 JUMP JUMPDEST DUP3 MSTORE POP POP JUMP JUMPDEST PUSH0 PUSH1 0x40 DUP3 ADD SWAP1 POP PUSH2 0x83F PUSH0 DUP4 ADD DUP6 PUSH2 0x80E JUMP JUMPDEST PUSH2 0x84C PUSH1 0x20 DUP4 ADD DUP5 PUSH2 0x81D JUMP JUMPDEST SWAP4 SWAP3 POP POP POP JUMP JUMPDEST PUSH0 DUP1 REVERT JUMPDEST PUSH2 0x860 DUP2 PUSH2 0x6E4 JUMP JUMPDEST DUP2 EQ PUSH2 0x86A JUMPI PUSH0 DUP1 REVERT JUMPDEST POP JUMP JUMPDEST PUSH0 DUP2 CALLDATALOAD SWAP1 POP PUSH2 0x87B DUP2 PUSH2 0x857 JUMP JUMPDEST SWAP3 SWAP2 POP POP JUMP JUMPDEST PUSH0 PUSH1 0x20 DUP3 DUP5 SUB SLT ISZERO PUSH2 0x896 JUMPI PUSH2 0x895 PUSH2 0x853 JUMP JUMPDEST JUMPDEST PUSH0 PUSH2 0x8A3 DUP5 DUP3 DUP6 ADD PUSH2 0x86D JUMP JUMPDEST SWAP2 POP POP SWAP3 SWAP2 POP POP JUMP JUMPDEST PUSH0 DUP3 DUP3 MSTORE PUSH1 0x20 DUP3 ADD SWAP1 POP SWAP3 SWAP2 POP POP JUMP JUMPDEST PUSH32 0x6E6F206572657320656C206F776E657200000000000000000000000000000000 PUSH0 DUP3 ADD MSTORE POP JUMP JUMPDEST PUSH0 PUSH2 0x8F0 PUSH1 0x10 DUP4 PUSH2 0x8AC JUMP JUMPDEST SWAP2 POP PUSH2 0x8FB DUP3 PUSH2 0x8BC JUMP JUMPDEST PUSH1 0x20 DUP3 ADD SWAP1 POP SWAP2 SWAP1 POP JUMP JUMPDEST PUSH0 PUSH1 0x20 DUP3 ADD SWAP1 POP DUP2 DUP2 SUB PUSH0 DUP4 ADD MSTORE PUSH2 0x91D DUP2 PUSH2 0x8E4 JUMP JUMPDEST SWAP1 POP SWAP2 SWAP1 POP JUMP JUMPDEST PUSH32 0x66616C6C6F20656C20656E76696F000000000000000000000000000000000000 PUSH0 DUP3 ADD MSTORE POP JUMP JUMPDEST PUSH0 PUSH2 0x958 PUSH1 0xE DUP4 PUSH2 0x8AC JUMP JUMPDEST SWAP2 POP PUSH2 0x963 DUP3 PUSH2 0x924 JUMP JUMPDEST PUSH1 0x20 DUP3 ADD SWAP1 POP SWAP2 SWAP1 POP JUMP JUMPDEST PUSH0 PUSH1 0x20 DUP3 ADD SWAP1 POP DUP2 DUP2 SUB PUSH0 DUP4 ADD MSTORE PUSH2 0x985 DUP2 PUSH2 0x94C JUMP JUMPDEST SWAP1 POP SWAP2 SWAP1 POP JUMP JUMPDEST PUSH32 0x4E487B7100000000000000000000000000000000000000000000000000000000 PUSH0 MSTORE PUSH1 0x32 PUSH1 0x4 MSTORE PUSH1 0x24 PUSH0 REVERT INVALID LOG2 PUSH5 0x6970667358 0x22 SLT KECCAK256 JUMPDEST PUSH16 0xD1E989E491F87A04B5573FDB43D070E9 0xD 0xDD SWAP2 PUSH26 0x63D82CBB8E3EFC79FDB064736F6C634300081A00330000000000 "
				},
				"gasEstimates": {
					"creation": {
						"codeDepositCost": "508600",
						"executionCost": "71171",
						"totalCost": "579771"
					},
					"external": {
						"GetApostadores()": "infinite",
						"GetMayorApostador()": "infinite",
						"listaApostadores(uint256)": "infinite",
						"mayorApostador()": "4776",
						"transferEtherOwner()": "infinite"
					},
					"internal": {
						"devolverApuestas()": "infinite"
					}
				},
				"methodIdentifiers": {
					"GetApostadores()": "30426583",
					"GetMayorApostador()": "b9ed4264",
					"listaApostadores(uint256)": "d6df17fa",
					"mayorApostador()": "bbfb7ce0",
					"transferEtherOwner()": "88aa112b"
				}
			},
			"storageLayout": {
				"storage": [
					{
						"astId": 3,
						"contract": "subasta.sol:subasta",
						"label": "owner",
						"offset": 0,
						"slot": "0",
						"type": "t_address"
					},
					{
						"astId": 12,
						"contract": "subasta.sol:subasta",
						"label": "listaApostadores",
						"offset": 0,
						"slot": "1",
						"type": "t_array(t_struct(Person)8_storage)dyn_storage"
					},
					{
						"astId": 15,
						"contract": "subasta.sol:subasta",
						"label": "mayorApostador",
						"offset": 0,
						"slot": "2",
						"type": "t_struct(Person)8_storage"
					}
				],
				"types": {
					"t_address": {
						"encoding": "inplace",
						"label": "address",
						"numberOfBytes": "20"
					},
					"t_address_payable": {
						"encoding": "inplace",
						"label": "address payable",
						"numberOfBytes": "20"
					},
					"t_array(t_struct(Person)8_storage)dyn_storage": {
						"base": "t_struct(Person)8_storage",
						"encoding": "dynamic_array",
						"label": "struct subasta.Person[]",
						"numberOfBytes": "32"
					},
					"t_struct(Person)8_storage": {
						"encoding": "inplace",
						"label": "struct subasta.Person",
						"members": [
							{
								"astId": 5,
								"contract": "subasta.sol:subasta",
								"label": "direccion",
								"offset": 0,
								"slot": "0",
								"type": "t_address_payable"
							},
							{
								"astId": 7,
								"contract": "subasta.sol:subasta",
								"label": "apuesta",
								"offset": 0,
								"slot": "1",
								"type": "t_uint256"
							}
						],
						"numberOfBytes": "64"
					},
					"t_uint256": {
						"encoding": "inplace",
						"label": "uint256",
						"numberOfBytes": "32"
					}
				}
			},
			"userdoc": {
				"kind": "user",
				"methods": {},
				"version": 1
			}
		}
	}
}